{
	"contracts/token.sol": {
		"BEP20Token": {
			"abi": [
				{
					"inputs": [
						{
							"internalType": "string",
							"name": "_name",
							"type": "string"
						},
						{
							"internalType": "string",
							"name": "_symbol",
							"type": "string"
						},
						{
							"internalType": "uint256",
							"name": "_initialSupply",
							"type": "uint256"
						}
					],
					"stateMutability": "nonpayable",
					"type": "constructor"
				},
				{
					"anonymous": false,
					"inputs": [
						{
							"indexed": true,
							"internalType": "address",
							"name": "owner",
							"type": "address"
						},
						{
							"indexed": true,
							"internalType": "address",
							"name": "spender",
							"type": "address"
						},
						{
							"indexed": false,
							"internalType": "uint256",
							"name": "value",
							"type": "uint256"
						}
					],
					"name": "Approval",
					"type": "event"
				},
				{
					"anonymous": false,
					"inputs": [
						{
							"indexed": true,
							"internalType": "address",
							"name": "previousOwner",
							"type": "address"
						},
						{
							"indexed": true,
							"internalType": "address",
							"name": "newOwner",
							"type": "address"
						}
					],
					"name": "OwnershipTransferred",
					"type": "event"
				},
				{
					"anonymous": false,
					"inputs": [
						{
							"indexed": true,
							"internalType": "address",
							"name": "from",
							"type": "address"
						},
						{
							"indexed": true,
							"internalType": "address",
							"name": "to",
							"type": "address"
						},
						{
							"indexed": false,
							"internalType": "uint256",
							"name": "value",
							"type": "uint256"
						}
					],
					"name": "Transfer",
					"type": "event"
				},
				{
					"inputs": [
						{
							"internalType": "address",
							"name": "",
							"type": "address"
						},
						{
							"internalType": "address",
							"name": "",
							"type": "address"
						}
					],
					"name": "allowance",
					"outputs": [
						{
							"internalType": "uint256",
							"name": "",
							"type": "uint256"
						}
					],
					"stateMutability": "view",
					"type": "function"
				},
				{
					"inputs": [
						{
							"internalType": "address",
							"name": "_spender",
							"type": "address"
						},
						{
							"internalType": "uint256",
							"name": "_value",
							"type": "uint256"
						}
					],
					"name": "approve",
					"outputs": [
						{
							"internalType": "bool",
							"name": "success",
							"type": "bool"
						}
					],
					"stateMutability": "nonpayable",
					"type": "function"
				},
				{
					"inputs": [
						{
							"internalType": "address",
							"name": "",
							"type": "address"
						}
					],
					"name": "balanceOf",
					"outputs": [
						{
							"internalType": "uint256",
							"name": "",
							"type": "uint256"
						}
					],
					"stateMutability": "view",
					"type": "function"
				},
				{
					"inputs": [
						{
							"internalType": "uint256",
							"name": "_amount",
							"type": "uint256"
						}
					],
					"name": "burn",
					"outputs": [],
					"stateMutability": "nonpayable",
					"type": "function"
				},
				{
					"inputs": [],
					"name": "decimals",
					"outputs": [
						{
							"internalType": "uint8",
							"name": "",
							"type": "uint8"
						}
					],
					"stateMutability": "view",
					"type": "function"
				},
				{
					"inputs": [
						{
							"internalType": "address",
							"name": "_to",
							"type": "address"
						},
						{
							"internalType": "uint256",
							"name": "_amount",
							"type": "uint256"
						}
					],
					"name": "mint",
					"outputs": [],
					"stateMutability": "nonpayable",
					"type": "function"
				},
				{
					"inputs": [],
					"name": "name",
					"outputs": [
						{
							"internalType": "string",
							"name": "",
							"type": "string"
						}
					],
					"stateMutability": "view",
					"type": "function"
				},
				{
					"inputs": [],
					"name": "owner",
					"outputs": [
						{
							"internalType": "address",
							"name": "",
							"type": "address"
						}
					],
					"stateMutability": "view",
					"type": "function"
				},
				{
					"inputs": [],
					"name": "symbol",
					"outputs": [
						{
							"internalType": "string",
							"name": "",
							"type": "string"
						}
					],
					"stateMutability": "view",
					"type": "function"
				},
				{
					"inputs": [],
					"name": "totalSupply",
					"outputs": [
						{
							"internalType": "uint256",
							"name": "",
							"type": "uint256"
						}
					],
					"stateMutability": "view",
					"type": "function"
				},
				{
					"inputs": [
						{
							"internalType": "address",
							"name": "_to",
							"type": "address"
						},
						{
							"internalType": "uint256",
							"name": "_value",
							"type": "uint256"
						}
					],
					"name": "transfer",
					"outputs": [
						{
							"internalType": "bool",
							"name": "success",
							"type": "bool"
						}
					],
					"stateMutability": "nonpayable",
					"type": "function"
				},
				{
					"inputs": [
						{
							"internalType": "address",
							"name": "_from",
							"type": "address"
						},
						{
							"internalType": "address",
							"name": "_to",
							"type": "address"
						},
						{
							"internalType": "uint256",
							"name": "_value",
							"type": "uint256"
						}
					],
					"name": "transferFrom",
					"outputs": [
						{
							"internalType": "bool",
							"name": "success",
							"type": "bool"
						}
					],
					"stateMutability": "nonpayable",
					"type": "function"
				},
				{
					"inputs": [
						{
							"internalType": "address",
							"name": "newOwner",
							"type": "address"
						}
					],
					"name": "transferOwnership",
					"outputs": [],
					"stateMutability": "nonpayable",
					"type": "function"
				}
			],
			"devdoc": {
				"details": "标准的 BSC 代币实现，兼容 ERC20",
				"kind": "dev",
				"methods": {},
				"title": "BEP20 代币合约",
				"version": 1
			},
			"evm": {
				"assembly": "    /* \"contracts/token.sol\":145:3002  contract BEP20Token {... */\n  mstore(0x40, 0x80)\n    /* \"contracts/token.sol\":221:247  uint8 public decimals = 18 */\n  0x02\n  dup1\n  sload\n  not(0xff)\n  and\n    /* \"contracts/token.sol\":245:247  18 */\n  0x12\n    /* \"contracts/token.sol\":221:247  uint8 public decimals = 18 */\n  or\n  swap1\n  sstore\n    /* \"contracts/token.sol\":800:1051  constructor(... */\n  callvalue\n  dup1\n  iszero\n  tag_1\n  jumpi\n  0x00\n  dup1\n  revert\ntag_1:\n  pop\n  mload(0x40)\n  sub(codesize, bytecodeSize)\n  dup1\n  bytecodeSize\n  dup4\n  codecopy\n  dup2\n  add\n  0x40\n  dup2\n  swap1\n  mstore\n  tag_2\n  swap2\n  tag_3\n  jump\t// in\ntag_2:\n    /* \"contracts/token.sol\":920:924  name */\n  0x00\n    /* \"contracts/token.sol\":920:932  name = _name */\n  tag_6\n    /* \"contracts/token.sol\":927:932  _name */\n  dup5\n    /* \"contracts/token.sol\":920:924  name */\n  dup3\n    /* \"contracts/token.sol\":920:932  name = _name */\n  tag_7\n  jump\t// in\ntag_6:\n  pop\n    /* \"contracts/token.sol\":942:948  symbol */\n  0x01\n    /* \"contracts/token.sol\":942:958  symbol = _symbol */\n  tag_8\n    /* \"contracts/token.sol\":951:958  _symbol */\n  dup4\n    /* \"contracts/token.sol\":942:948  symbol */\n  dup3\n    /* \"contracts/token.sol\":942:958  symbol = _symbol */\n  tag_7\n  jump\t// in\ntag_8:\n  pop\n    /* \"contracts/token.sol\":968:973  owner */\n  0x04\n    /* \"contracts/token.sol\":968:986  owner = msg.sender */\n  dup1\n  sload\n  not(sub(shl(0xa0, 0x01), 0x01))\n  and\n    /* \"contracts/token.sol\":976:986  msg.sender */\n  caller\n    /* \"contracts/token.sol\":968:986  owner = msg.sender */\n  swap1\n  dup2\n  or\n  swap1\n  swap2\n  sstore\n    /* \"contracts/token.sol\":1035:1043  decimals */\n  sload(0x02)\n    /* \"contracts/token.sol\":996:1044  _mint(msg.sender, _initialSupply * 10**decimals) */\n  tag_9\n  swap2\n    /* \"contracts/token.sol\":976:986  msg.sender */\n  swap1\n    /* \"contracts/token.sol\":1031:1043  10**decimals */\n  tag_10\n  swap1\n    /* \"contracts/token.sol\":1035:1043  decimals */\n  0xff\n  and\n    /* \"contracts/token.sol\":1031:1033  10 */\n  0x0a\n    /* \"contracts/token.sol\":1031:1043  10**decimals */\n  tag_11\n  jump\t// in\ntag_10:\n    /* \"contracts/token.sol\":1014:1043  _initialSupply * 10**decimals */\n  tag_12\n  swap1\n    /* \"contracts/token.sol\":1014:1028  _initialSupply */\n  dup5\n    /* \"contracts/token.sol\":1014:1043  _initialSupply * 10**decimals */\n  tag_13\n  jump\t// in\ntag_12:\n    /* \"contracts/token.sol\":996:1001  _mint */\n  tag_14\n    /* \"contracts/token.sol\":996:1044  _mint(msg.sender, _initialSupply * 10**decimals) */\n  jump\t// in\ntag_9:\n    /* \"contracts/token.sol\":800:1051  constructor(... */\n  pop\n  pop\n  pop\n    /* \"contracts/token.sol\":145:3002  contract BEP20Token {... */\n  jump(tag_34)\n    /* \"contracts/token.sol\":2184:2416  function _mint(address _to, uint256 _amount) internal {... */\ntag_14:\n  sub(shl(0xa0, 0x01), 0x01)\n    /* \"contracts/token.sol\":2256:2273  _to != address(0) */\n  dup3\n  and\n    /* \"contracts/token.sol\":2248:2293  require(_to != address(0), \"Invalid address\") */\n  tag_17\n  jumpi\n  mload(0x40)\n  shl(0xe5, 0x461bcd)\n  dup2\n  mstore\n    /* \"#utility.yul\":6098:6100   */\n  0x20\n    /* \"contracts/token.sol\":2248:2293  require(_to != address(0), \"Invalid address\") */\n  0x04\n  dup3\n  add\n    /* \"#utility.yul\":6080:6101   */\n  mstore\n    /* \"#utility.yul\":6137:6139   */\n  0x0f\n    /* \"#utility.yul\":6117:6135   */\n  0x24\n  dup3\n  add\n    /* \"#utility.yul\":6110:6140   */\n  mstore\n  shl(0x88, 0x496e76616c69642061646472657373)\n    /* \"#utility.yul\":6156:6174   */\n  0x44\n  dup3\n  add\n    /* \"#utility.yul\":6149:6194   */\n  mstore\n    /* \"#utility.yul\":6211:6229   */\n  0x64\n  add\n    /* \"contracts/token.sol\":2248:2293  require(_to != address(0), \"Invalid address\") */\n  mload(0x40)\n  dup1\n  swap2\n  sub\n  swap1\n  revert\ntag_17:\n    /* \"contracts/token.sol\":2318:2325  _amount */\n  dup1\n    /* \"contracts/token.sol\":2303:2314  totalSupply */\n  0x03\n  0x00\n    /* \"contracts/token.sol\":2303:2325  totalSupply += _amount */\n  dup3\n  dup3\n  sload\n  tag_20\n  swap2\n  swap1\n  tag_21\n  jump\t// in\ntag_20:\n  swap1\n  swap2\n  sstore\n  pop\n  pop\n  sub(shl(0xa0, 0x01), 0x01)\n    /* \"contracts/token.sol\":2335:2349  balanceOf[_to] */\n  dup3\n  and\n  0x00\n  swap1\n  dup2\n  mstore\n    /* \"contracts/token.sol\":2335:2344  balanceOf */\n  0x05\n    /* \"contracts/token.sol\":2335:2349  balanceOf[_to] */\n  0x20\n  mstore\n  0x40\n  dup2\n  keccak256\n    /* \"contracts/token.sol\":2335:2360  balanceOf[_to] += _amount */\n  dup1\n  sload\n    /* \"contracts/token.sol\":2353:2360  _amount */\n  dup4\n  swap3\n    /* \"contracts/token.sol\":2335:2349  balanceOf[_to] */\n  swap1\n    /* \"contracts/token.sol\":2335:2360  balanceOf[_to] += _amount */\n  tag_22\n  swap1\n    /* \"contracts/token.sol\":2353:2360  _amount */\n  dup5\n  swap1\n    /* \"contracts/token.sol\":2335:2360  balanceOf[_to] += _amount */\n  tag_21\n  jump\t// in\ntag_22:\n  swap1\n  swap2\n  sstore\n  pop\n  pop\n    /* \"contracts/token.sol\":2375:2409  Transfer(address(0), _to, _amount) */\n  mload(0x40)\n    /* \"#utility.yul\":6516:6541   */\n  dup2\n  dup2\n  mstore\n  sub(shl(0xa0, 0x01), 0x01)\n    /* \"contracts/token.sol\":2375:2409  Transfer(address(0), _to, _amount) */\n  dup4\n  and\n  swap1\n    /* \"contracts/token.sol\":2392:2393  0 */\n  0x00\n  swap1\n    /* \"contracts/token.sol\":2375:2409  Transfer(address(0), _to, _amount) */\n  0xddf252ad1be2c89b69c2b068fc378daa952ba7f163c4a11628f55a4df523b3ef\n  swap1\n    /* \"#utility.yul\":6504:6506   */\n  0x20\n    /* \"#utility.yul\":6489:6507   */\n  add\n    /* \"contracts/token.sol\":2375:2409  Transfer(address(0), _to, _amount) */\n  mload(0x40)\n  dup1\n  swap2\n  sub\n  swap1\n  log3\n    /* \"contracts/token.sol\":2184:2416  function _mint(address _to, uint256 _amount) internal {... */\n  pop\n  pop\n  jump\t// out\n    /* \"#utility.yul\":14:141   */\ntag_25:\n    /* \"#utility.yul\":75:85   */\n  0x4e487b71\n    /* \"#utility.yul\":70:73   */\n  0xe0\n    /* \"#utility.yul\":66:86   */\n  shl\n    /* \"#utility.yul\":63:64   */\n  0x00\n    /* \"#utility.yul\":56:87   */\n  mstore\n    /* \"#utility.yul\":106:110   */\n  0x41\n    /* \"#utility.yul\":103:104   */\n  0x04\n    /* \"#utility.yul\":96:111   */\n  mstore\n    /* \"#utility.yul\":130:134   */\n  0x24\n    /* \"#utility.yul\":127:128   */\n  0x00\n    /* \"#utility.yul\":120:135   */\n  revert\n    /* \"#utility.yul\":146:986   */\ntag_26:\n    /* \"#utility.yul\":200:205   */\n  0x00\n    /* \"#utility.yul\":253:256   */\n  dup3\n    /* \"#utility.yul\":246:250   */\n  0x1f\n    /* \"#utility.yul\":238:244   */\n  dup4\n    /* \"#utility.yul\":234:251   */\n  add\n    /* \"#utility.yul\":230:257   */\n  slt\n    /* \"#utility.yul\":220:275   */\n  tag_37\n  jumpi\n    /* \"#utility.yul\":271:272   */\n  0x00\n    /* \"#utility.yul\":268:269   */\n  dup1\n    /* \"#utility.yul\":261:273   */\n  revert\n    /* \"#utility.yul\":220:275   */\ntag_37:\n    /* \"#utility.yul\":294:307   */\n  dup2\n  mload\n  sub(shl(0x40, 0x01), 0x01)\n    /* \"#utility.yul\":356:366   */\n  dup1\n  dup3\n  gt\n    /* \"#utility.yul\":353:389   */\n  iszero\n  tag_39\n  jumpi\n    /* \"#utility.yul\":369:387   */\n  tag_39\n  tag_25\n  jump\t// in\ntag_39:\n    /* \"#utility.yul\":444:446   */\n  0x40\n    /* \"#utility.yul\":438:447   */\n  mload\n    /* \"#utility.yul\":412:414   */\n  0x1f\n    /* \"#utility.yul\":498:511   */\n  dup4\n  add\n  not(0x1f)\n    /* \"#utility.yul\":494:516   */\n  swap1\n  dup2\n  and\n    /* \"#utility.yul\":518:520   */\n  0x3f\n    /* \"#utility.yul\":490:521   */\n  add\n    /* \"#utility.yul\":486:526   */\n  and\n    /* \"#utility.yul\":474:527   */\n  dup2\n  add\n  swap1\n    /* \"#utility.yul\":542:560   */\n  dup3\n  dup3\n  gt\n    /* \"#utility.yul\":562:584   */\n  dup2\n  dup4\n  lt\n    /* \"#utility.yul\":539:585   */\n  or\n    /* \"#utility.yul\":536:608   */\n  iszero\n  tag_41\n  jumpi\n    /* \"#utility.yul\":588:606   */\n  tag_41\n  tag_25\n  jump\t// in\ntag_41:\n    /* \"#utility.yul\":628:638   */\n  dup2\n    /* \"#utility.yul\":624:626   */\n  0x40\n    /* \"#utility.yul\":617:639   */\n  mstore\n    /* \"#utility.yul\":663:665   */\n  dup4\n    /* \"#utility.yul\":655:661   */\n  dup2\n    /* \"#utility.yul\":648:666   */\n  mstore\n    /* \"#utility.yul\":685:689   */\n  0x20\n    /* \"#utility.yul\":675:689   */\n  swap3\n  pop\n    /* \"#utility.yul\":730:733   */\n  dup7\n    /* \"#utility.yul\":725:727   */\n  dup4\n    /* \"#utility.yul\":720:722   */\n  dup6\n    /* \"#utility.yul\":712:718   */\n  dup9\n    /* \"#utility.yul\":708:723   */\n  add\n    /* \"#utility.yul\":704:728   */\n  add\n    /* \"#utility.yul\":701:734   */\n  gt\n    /* \"#utility.yul\":698:751   */\n  iszero\n  tag_42\n  jumpi\n    /* \"#utility.yul\":747:748   */\n  0x00\n    /* \"#utility.yul\":744:745   */\n  dup1\n    /* \"#utility.yul\":737:749   */\n  revert\n    /* \"#utility.yul\":698:751   */\ntag_42:\n    /* \"#utility.yul\":769:770   */\n  0x00\n    /* \"#utility.yul\":760:770   */\n  swap2\n  pop\n    /* \"#utility.yul\":779:912   */\ntag_43:\n    /* \"#utility.yul\":793:795   */\n  dup4\n    /* \"#utility.yul\":790:791   */\n  dup3\n    /* \"#utility.yul\":787:796   */\n  lt\n    /* \"#utility.yul\":779:912   */\n  iszero\n  tag_45\n  jumpi\n    /* \"#utility.yul\":881:895   */\n  dup6\n  dup3\n  add\n    /* \"#utility.yul\":877:900   */\n  dup4\n  add\n    /* \"#utility.yul\":871:901   */\n  mload\n    /* \"#utility.yul\":850:864   */\n  dup2\n  dup4\n  add\n    /* \"#utility.yul\":846:869   */\n  dup5\n  add\n    /* \"#utility.yul\":839:902   */\n  mstore\n    /* \"#utility.yul\":804:814   */\n  swap1\n  dup3\n  add\n  swap1\n    /* \"#utility.yul\":779:912   */\n  jump(tag_43)\ntag_45:\n    /* \"#utility.yul\":954:955   */\n  0x00\n    /* \"#utility.yul\":932:947   */\n  swap4\n  dup2\n  add\n    /* \"#utility.yul\":928:952   */\n  swap1\n  swap3\n  add\n    /* \"#utility.yul\":921:956   */\n  swap3\n  swap1\n  swap3\n  mstore\n    /* \"#utility.yul\":936:942   */\n  swap5\n    /* \"#utility.yul\":146:986   */\n  swap4\n  pop\n  pop\n  pop\n  pop\n  jump\t// out\n    /* \"#utility.yul\":991:1614   */\ntag_3:\n    /* \"#utility.yul\":1099:1105   */\n  0x00\n    /* \"#utility.yul\":1107:1113   */\n  dup1\n    /* \"#utility.yul\":1115:1121   */\n  0x00\n    /* \"#utility.yul\":1168:1170   */\n  0x60\n    /* \"#utility.yul\":1156:1165   */\n  dup5\n    /* \"#utility.yul\":1147:1154   */\n  dup7\n    /* \"#utility.yul\":1143:1166   */\n  sub\n    /* \"#utility.yul\":1139:1171   */\n  slt\n    /* \"#utility.yul\":1136:1188   */\n  iszero\n  tag_47\n  jumpi\n    /* \"#utility.yul\":1184:1185   */\n  0x00\n    /* \"#utility.yul\":1181:1182   */\n  dup1\n    /* \"#utility.yul\":1174:1186   */\n  revert\n    /* \"#utility.yul\":1136:1188   */\ntag_47:\n    /* \"#utility.yul\":1211:1227   */\n  dup4\n  mload\n  sub(shl(0x40, 0x01), 0x01)\n    /* \"#utility.yul\":1276:1290   */\n  dup1\n  dup3\n  gt\n    /* \"#utility.yul\":1273:1307   */\n  iszero\n  tag_48\n  jumpi\n    /* \"#utility.yul\":1303:1304   */\n  0x00\n    /* \"#utility.yul\":1300:1301   */\n  dup1\n    /* \"#utility.yul\":1293:1305   */\n  revert\n    /* \"#utility.yul\":1273:1307   */\ntag_48:\n    /* \"#utility.yul\":1326:1387   */\n  tag_49\n    /* \"#utility.yul\":1379:1386   */\n  dup8\n    /* \"#utility.yul\":1370:1376   */\n  dup4\n    /* \"#utility.yul\":1359:1368   */\n  dup9\n    /* \"#utility.yul\":1355:1377   */\n  add\n    /* \"#utility.yul\":1326:1387   */\n  tag_26\n  jump\t// in\ntag_49:\n    /* \"#utility.yul\":1316:1387   */\n  swap5\n  pop\n    /* \"#utility.yul\":1433:1435   */\n  0x20\n    /* \"#utility.yul\":1422:1431   */\n  dup7\n    /* \"#utility.yul\":1418:1436   */\n  add\n    /* \"#utility.yul\":1412:1437   */\n  mload\n    /* \"#utility.yul\":1396:1437   */\n  swap2\n  pop\n    /* \"#utility.yul\":1462:1464   */\n  dup1\n    /* \"#utility.yul\":1452:1460   */\n  dup3\n    /* \"#utility.yul\":1449:1465   */\n  gt\n    /* \"#utility.yul\":1446:1482   */\n  iszero\n  tag_50\n  jumpi\n    /* \"#utility.yul\":1478:1479   */\n  0x00\n    /* \"#utility.yul\":1475:1476   */\n  dup1\n    /* \"#utility.yul\":1468:1480   */\n  revert\n    /* \"#utility.yul\":1446:1482   */\ntag_50:\n  pop\n    /* \"#utility.yul\":1501:1564   */\n  tag_51\n    /* \"#utility.yul\":1556:1563   */\n  dup7\n    /* \"#utility.yul\":1545:1553   */\n  dup3\n    /* \"#utility.yul\":1534:1543   */\n  dup8\n    /* \"#utility.yul\":1530:1554   */\n  add\n    /* \"#utility.yul\":1501:1564   */\n  tag_26\n  jump\t// in\ntag_51:\n    /* \"#utility.yul\":1491:1564   */\n  swap3\n  pop\n  pop\n    /* \"#utility.yul\":1604:1606   */\n  0x40\n    /* \"#utility.yul\":1593:1602   */\n  dup5\n    /* \"#utility.yul\":1589:1607   */\n  add\n    /* \"#utility.yul\":1583:1608   */\n  mload\n    /* \"#utility.yul\":1573:1608   */\n  swap1\n  pop\n    /* \"#utility.yul\":991:1614   */\n  swap3\n  pop\n  swap3\n  pop\n  swap3\n  jump\t// out\n    /* \"#utility.yul\":1619:1999   */\ntag_27:\n    /* \"#utility.yul\":1698:1699   */\n  0x01\n    /* \"#utility.yul\":1694:1706   */\n  dup2\n  dup2\n  shr\n  swap1\n    /* \"#utility.yul\":1741:1753   */\n  dup3\n  and\n  dup1\n    /* \"#utility.yul\":1762:1823   */\n  tag_53\n  jumpi\n    /* \"#utility.yul\":1816:1820   */\n  0x7f\n    /* \"#utility.yul\":1808:1814   */\n  dup3\n    /* \"#utility.yul\":1804:1821   */\n  and\n    /* \"#utility.yul\":1794:1821   */\n  swap2\n  pop\n    /* \"#utility.yul\":1762:1823   */\ntag_53:\n    /* \"#utility.yul\":1869:1871   */\n  0x20\n    /* \"#utility.yul\":1861:1867   */\n  dup3\n    /* \"#utility.yul\":1858:1872   */\n  lt\n    /* \"#utility.yul\":1838:1856   */\n  dup2\n    /* \"#utility.yul\":1835:1873   */\n  sub\n    /* \"#utility.yul\":1832:1993   */\n  tag_54\n  jumpi\n    /* \"#utility.yul\":1915:1925   */\n  0x4e487b71\n    /* \"#utility.yul\":1910:1913   */\n  0xe0\n    /* \"#utility.yul\":1906:1926   */\n  shl\n    /* \"#utility.yul\":1903:1904   */\n  0x00\n    /* \"#utility.yul\":1896:1927   */\n  mstore\n    /* \"#utility.yul\":1950:1954   */\n  0x22\n    /* \"#utility.yul\":1947:1948   */\n  0x04\n    /* \"#utility.yul\":1940:1955   */\n  mstore\n    /* \"#utility.yul\":1978:1982   */\n  0x24\n    /* \"#utility.yul\":1975:1976   */\n  0x00\n    /* \"#utility.yul\":1968:1983   */\n  revert\n    /* \"#utility.yul\":1832:1993   */\ntag_54:\n  pop\n    /* \"#utility.yul\":1619:1999   */\n  swap2\n  swap1\n  pop\n  jump\t// out\n    /* \"#utility.yul\":2130:2675   */\ntag_29:\n    /* \"#utility.yul\":2232:2234   */\n  0x1f\n    /* \"#utility.yul\":2227:2230   */\n  dup3\n    /* \"#utility.yul\":2224:2235   */\n  gt\n    /* \"#utility.yul\":2221:2669   */\n  iszero\n  tag_57\n  jumpi\n    /* \"#utility.yul\":2268:2269   */\n  0x00\n    /* \"#utility.yul\":2293:2298   */\n  dup2\n    /* \"#utility.yul\":2289:2291   */\n  dup2\n    /* \"#utility.yul\":2282:2299   */\n  mstore\n    /* \"#utility.yul\":2338:2342   */\n  0x20\n    /* \"#utility.yul\":2334:2336   */\n  dup2\n    /* \"#utility.yul\":2324:2343   */\n  keccak256\n    /* \"#utility.yul\":2408:2410   */\n  0x1f\n    /* \"#utility.yul\":2396:2406   */\n  dup6\n    /* \"#utility.yul\":2392:2411   */\n  add\n    /* \"#utility.yul\":2389:2390   */\n  0x05\n    /* \"#utility.yul\":2385:2412   */\n  shr\n    /* \"#utility.yul\":2379:2383   */\n  dup2\n    /* \"#utility.yul\":2375:2413   */\n  add\n    /* \"#utility.yul\":2444:2448   */\n  0x20\n    /* \"#utility.yul\":2432:2442   */\n  dup7\n    /* \"#utility.yul\":2429:2449   */\n  lt\n    /* \"#utility.yul\":2426:2473   */\n  iszero\n  tag_58\n  jumpi\n  pop\n    /* \"#utility.yul\":2467:2471   */\n  dup1\n    /* \"#utility.yul\":2426:2473   */\ntag_58:\n    /* \"#utility.yul\":2522:2524   */\n  0x1f\n    /* \"#utility.yul\":2517:2520   */\n  dup6\n    /* \"#utility.yul\":2513:2525   */\n  add\n    /* \"#utility.yul\":2510:2511   */\n  0x05\n    /* \"#utility.yul\":2506:2526   */\n  shr\n    /* \"#utility.yul\":2500:2504   */\n  dup3\n    /* \"#utility.yul\":2496:2527   */\n  add\n    /* \"#utility.yul\":2486:2527   */\n  swap2\n  pop\n    /* \"#utility.yul\":2577:2659   */\ntag_59:\n    /* \"#utility.yul\":2595:2597   */\n  dup2\n    /* \"#utility.yul\":2588:2593   */\n  dup2\n    /* \"#utility.yul\":2585:2598   */\n  lt\n    /* \"#utility.yul\":2577:2659   */\n  iszero\n  tag_61\n  jumpi\n    /* \"#utility.yul\":2640:2657   */\n  dup3\n  dup2\n  sstore\n    /* \"#utility.yul\":2621:2622   */\n  0x01\n    /* \"#utility.yul\":2610:2623   */\n  add\n    /* \"#utility.yul\":2577:2659   */\n  jump(tag_59)\ntag_61:\n    /* \"#utility.yul\":2581:2584   */\n  pop\n  pop\n  pop\n    /* \"#utility.yul\":2221:2669   */\ntag_57:\n    /* \"#utility.yul\":2130:2675   */\n  pop\n  pop\n  pop\n  jump\t// out\n    /* \"#utility.yul\":2851:4203   */\ntag_7:\n    /* \"#utility.yul\":2971:2981   */\n  dup2\n  mload\n  sub(shl(0x40, 0x01), 0x01)\n    /* \"#utility.yul\":2993:3023   */\n  dup2\n  gt\n    /* \"#utility.yul\":2990:3046   */\n  iszero\n  tag_65\n  jumpi\n    /* \"#utility.yul\":3026:3044   */\n  tag_65\n  tag_25\n  jump\t// in\ntag_65:\n    /* \"#utility.yul\":3055:3152   */\n  tag_66\n    /* \"#utility.yul\":3145:3151   */\n  dup2\n    /* \"#utility.yul\":3105:3143   */\n  tag_67\n    /* \"#utility.yul\":3137:3141   */\n  dup5\n    /* \"#utility.yul\":3131:3142   */\n  sload\n    /* \"#utility.yul\":3105:3143   */\n  tag_27\n  jump\t// in\ntag_67:\n    /* \"#utility.yul\":3099:3103   */\n  dup5\n    /* \"#utility.yul\":3055:3152   */\n  tag_29\n  jump\t// in\ntag_66:\n    /* \"#utility.yul\":3207:3211   */\n  0x20\n  dup1\n    /* \"#utility.yul\":3271:3273   */\n  0x1f\n    /* \"#utility.yul\":3260:3274   */\n  dup4\n  gt\n    /* \"#utility.yul\":3288:3289   */\n  0x01\n    /* \"#utility.yul\":3283:3946   */\n  dup2\n  eq\n  tag_69\n  jumpi\n    /* \"#utility.yul\":3990:3991   */\n  0x00\n    /* \"#utility.yul\":4007:4013   */\n  dup5\n    /* \"#utility.yul\":4004:4093   */\n  iszero\n  tag_70\n  jumpi\n  pop\n    /* \"#utility.yul\":4059:4078   */\n  dup6\n  dup4\n  add\n    /* \"#utility.yul\":4053:4079   */\n  mload\n    /* \"#utility.yul\":4004:4093   */\ntag_70:\n  not(0x00)\n    /* \"#utility.yul\":2808:2809   */\n  0x03\n    /* \"#utility.yul\":2804:2815   */\n  dup7\n  swap1\n  shl\n    /* \"#utility.yul\":2800:2824   */\n  shr\n    /* \"#utility.yul\":2796:2825   */\n  not\n    /* \"#utility.yul\":2786:2826   */\n  and\n    /* \"#utility.yul\":2832:2833   */\n  0x01\n    /* \"#utility.yul\":2828:2839   */\n  dup6\n  swap1\n  shl\n    /* \"#utility.yul\":2783:2840   */\n  or\n    /* \"#utility.yul\":4106:4187   */\n  dup6\n  sstore\n    /* \"#utility.yul\":3253:4197   */\n  jump(tag_61)\n    /* \"#utility.yul\":3283:3946   */\ntag_69:\n    /* \"#utility.yul\":2077:2078   */\n  0x00\n    /* \"#utility.yul\":2070:2084   */\n  dup6\n  dup2\n  mstore\n    /* \"#utility.yul\":2114:2118   */\n  0x20\n    /* \"#utility.yul\":2101:2119   */\n  dup2\n  keccak256\n  not(0x1f)\n    /* \"#utility.yul\":3319:3339   */\n  dup7\n  and\n  swap2\n    /* \"#utility.yul\":3437:3673   */\ntag_73:\n    /* \"#utility.yul\":3451:3458   */\n  dup3\n    /* \"#utility.yul\":3448:3449   */\n  dup2\n    /* \"#utility.yul\":3445:3459   */\n  lt\n    /* \"#utility.yul\":3437:3673   */\n  iszero\n  tag_75\n  jumpi\n    /* \"#utility.yul\":3540:3559   */\n  dup9\n  dup7\n  add\n    /* \"#utility.yul\":3534:3560   */\n  mload\n    /* \"#utility.yul\":3519:3561   */\n  dup3\n  sstore\n    /* \"#utility.yul\":3632:3659   */\n  swap5\n  dup5\n  add\n  swap5\n    /* \"#utility.yul\":3600:3601   */\n  0x01\n    /* \"#utility.yul\":3588:3602   */\n  swap1\n  swap2\n  add\n  swap1\n    /* \"#utility.yul\":3467:3486   */\n  dup5\n  add\n    /* \"#utility.yul\":3437:3673   */\n  jump(tag_73)\ntag_75:\n    /* \"#utility.yul\":3441:3444   */\n  pop\n    /* \"#utility.yul\":3701:3707   */\n  dup6\n    /* \"#utility.yul\":3692:3699   */\n  dup3\n    /* \"#utility.yul\":3689:3708   */\n  lt\n    /* \"#utility.yul\":3686:3887   */\n  iszero\n  tag_76\n  jumpi\n    /* \"#utility.yul\":3762:3781   */\n  dup8\n  dup6\n  add\n    /* \"#utility.yul\":3756:3782   */\n  mload\n  not(0x00)\n    /* \"#utility.yul\":3845:3846   */\n  0x03\n    /* \"#utility.yul\":3841:3855   */\n  dup9\n  swap1\n  shl\n    /* \"#utility.yul\":3857:3860   */\n  0xf8\n    /* \"#utility.yul\":3837:3861   */\n  and\n    /* \"#utility.yul\":3833:3870   */\n  shr\n    /* \"#utility.yul\":3829:3871   */\n  not\n    /* \"#utility.yul\":3814:3872   */\n  and\n    /* \"#utility.yul\":3799:3873   */\n  dup2\n  sstore\n    /* \"#utility.yul\":3686:3887   */\ntag_76:\n  pop\n  pop\n  pop\n  pop\n  pop\n    /* \"#utility.yul\":3933:3934   */\n  0x01\n    /* \"#utility.yul\":3917:3931   */\n  swap1\n  dup2\n  shl\n    /* \"#utility.yul\":3913:3935   */\n  add\n    /* \"#utility.yul\":3900:3936   */\n  swap1\n  sstore\n  pop\n    /* \"#utility.yul\":2851:4203   */\n  jump\t// out\n    /* \"#utility.yul\":4208:4335   */\ntag_31:\n    /* \"#utility.yul\":4269:4279   */\n  0x4e487b71\n    /* \"#utility.yul\":4264:4267   */\n  0xe0\n    /* \"#utility.yul\":4260:4280   */\n  shl\n    /* \"#utility.yul\":4257:4258   */\n  0x00\n    /* \"#utility.yul\":4250:4281   */\n  mstore\n    /* \"#utility.yul\":4300:4304   */\n  0x11\n    /* \"#utility.yul\":4297:4298   */\n  0x04\n    /* \"#utility.yul\":4290:4305   */\n  mstore\n    /* \"#utility.yul\":4324:4328   */\n  0x24\n    /* \"#utility.yul\":4321:4322   */\n  0x00\n    /* \"#utility.yul\":4314:4329   */\n  revert\n    /* \"#utility.yul\":4340:4762   */\ntag_32:\n    /* \"#utility.yul\":4429:4430   */\n  0x01\n    /* \"#utility.yul\":4472:4477   */\n  dup2\n    /* \"#utility.yul\":4429:4430   */\n  dup2\n    /* \"#utility.yul\":4486:4756   */\ntag_79:\n    /* \"#utility.yul\":4507:4514   */\n  dup1\n    /* \"#utility.yul\":4497:4505   */\n  dup6\n    /* \"#utility.yul\":4494:4515   */\n  gt\n    /* \"#utility.yul\":4486:4756   */\n  iszero\n  tag_81\n  jumpi\n    /* \"#utility.yul\":4566:4570   */\n  dup2\n    /* \"#utility.yul\":4562:4563   */\n  0x00\n    /* \"#utility.yul\":4558:4564   */\n  not\n    /* \"#utility.yul\":4554:4571   */\n  div\n    /* \"#utility.yul\":4548:4552   */\n  dup3\n    /* \"#utility.yul\":4545:4572   */\n  gt\n    /* \"#utility.yul\":4542:4595   */\n  iszero\n  tag_83\n  jumpi\n    /* \"#utility.yul\":4575:4593   */\n  tag_83\n  tag_31\n  jump\t// in\ntag_83:\n    /* \"#utility.yul\":4625:4632   */\n  dup1\n    /* \"#utility.yul\":4615:4623   */\n  dup6\n    /* \"#utility.yul\":4611:4633   */\n  and\n    /* \"#utility.yul\":4608:4663   */\n  iszero\n  tag_84\n  jumpi\n    /* \"#utility.yul\":4645:4661   */\n  swap2\n  dup2\n  mul\n  swap2\n    /* \"#utility.yul\":4608:4663   */\ntag_84:\n    /* \"#utility.yul\":4724:4746   */\n  swap4\n  dup5\n  shr\n  swap4\n    /* \"#utility.yul\":4684:4699   */\n  swap1\n  dup1\n  mul\n  swap1\n    /* \"#utility.yul\":4486:4756   */\n  jump(tag_79)\ntag_81:\n    /* \"#utility.yul\":4490:4493   */\n  pop\n    /* \"#utility.yul\":4340:4762   */\n  swap3\n  pop\n  swap3\n  swap1\n  pop\n  jump\t// out\n    /* \"#utility.yul\":4767:5573   */\ntag_33:\n    /* \"#utility.yul\":4816:4821   */\n  0x00\n    /* \"#utility.yul\":4846:4854   */\n  dup3\n    /* \"#utility.yul\":4836:4916   */\n  tag_86\n  jumpi\n  pop\n    /* \"#utility.yul\":4887:4888   */\n  0x01\n    /* \"#utility.yul\":4901:4906   */\n  jump(tag_85)\n    /* \"#utility.yul\":4836:4916   */\ntag_86:\n    /* \"#utility.yul\":4935:4939   */\n  dup2\n    /* \"#utility.yul\":4925:5001   */\n  tag_87\n  jumpi\n  pop\n    /* \"#utility.yul\":4972:4973   */\n  0x00\n    /* \"#utility.yul\":4986:4991   */\n  jump(tag_85)\n    /* \"#utility.yul\":4925:5001   */\ntag_87:\n    /* \"#utility.yul\":5017:5021   */\n  dup2\n    /* \"#utility.yul\":5035:5036   */\n  0x01\n    /* \"#utility.yul\":5030:5089   */\n  dup2\n  eq\n  tag_89\n  jumpi\n    /* \"#utility.yul\":5103:5104   */\n  0x02\n    /* \"#utility.yul\":5098:5228   */\n  dup2\n  eq\n  tag_90\n  jumpi\n    /* \"#utility.yul\":5010:5228   */\n  jump(tag_88)\n    /* \"#utility.yul\":5030:5089   */\ntag_89:\n    /* \"#utility.yul\":5060:5061   */\n  0x01\n    /* \"#utility.yul\":5051:5061   */\n  swap2\n  pop\n    /* \"#utility.yul\":5074:5079   */\n  pop\n  jump(tag_85)\n    /* \"#utility.yul\":5098:5228   */\ntag_90:\n    /* \"#utility.yul\":5135:5138   */\n  0xff\n    /* \"#utility.yul\":5125:5133   */\n  dup5\n    /* \"#utility.yul\":5122:5139   */\n  gt\n    /* \"#utility.yul\":5119:5162   */\n  iszero\n  tag_92\n  jumpi\n    /* \"#utility.yul\":5142:5160   */\n  tag_92\n  tag_31\n  jump\t// in\ntag_92:\n  pop\n  pop\n    /* \"#utility.yul\":5198:5199   */\n  0x01\n    /* \"#utility.yul\":5184:5200   */\n  dup3\n  shl\n    /* \"#utility.yul\":5213:5218   */\n  jump(tag_85)\n    /* \"#utility.yul\":5010:5228   */\ntag_88:\n  pop\n    /* \"#utility.yul\":5312:5314   */\n  0x20\n    /* \"#utility.yul\":5302:5310   */\n  dup4\n    /* \"#utility.yul\":5299:5315   */\n  lt\n    /* \"#utility.yul\":5293:5296   */\n  0x0133\n    /* \"#utility.yul\":5287:5291   */\n  dup4\n    /* \"#utility.yul\":5284:5297   */\n  lt\n    /* \"#utility.yul\":5280:5316   */\n  and\n    /* \"#utility.yul\":5274:5276   */\n  0x4e\n    /* \"#utility.yul\":5264:5272   */\n  dup5\n    /* \"#utility.yul\":5261:5277   */\n  lt\n    /* \"#utility.yul\":5256:5258   */\n  0x0b\n    /* \"#utility.yul\":5250:5254   */\n  dup5\n    /* \"#utility.yul\":5247:5259   */\n  lt\n    /* \"#utility.yul\":5243:5278   */\n  and\n    /* \"#utility.yul\":5240:5317   */\n  or\n    /* \"#utility.yul\":5237:5396   */\n  iszero\n  tag_93\n  jumpi\n  pop\n    /* \"#utility.yul\":5349:5368   */\n  dup2\n  dup2\n  exp\n    /* \"#utility.yul\":5381:5386   */\n  jump(tag_85)\n    /* \"#utility.yul\":5237:5396   */\ntag_93:\n    /* \"#utility.yul\":5428:5462   */\n  tag_94\n    /* \"#utility.yul\":5453:5461   */\n  dup4\n    /* \"#utility.yul\":5447:5451   */\n  dup4\n    /* \"#utility.yul\":5428:5462   */\n  tag_32\n  jump\t// in\ntag_94:\n    /* \"#utility.yul\":5498:5504   */\n  dup1\n    /* \"#utility.yul\":5494:5495   */\n  0x00\n    /* \"#utility.yul\":5490:5496   */\n  not\n    /* \"#utility.yul\":5486:5505   */\n  div\n    /* \"#utility.yul\":5477:5484   */\n  dup3\n    /* \"#utility.yul\":5474:5506   */\n  gt\n    /* \"#utility.yul\":5471:5529   */\n  iszero\n  tag_96\n  jumpi\n    /* \"#utility.yul\":5509:5527   */\n  tag_96\n  tag_31\n  jump\t// in\ntag_96:\n    /* \"#utility.yul\":5547:5567   */\n  mul\n  swap1\n  pop\n    /* \"#utility.yul\":4767:5573   */\ntag_85:\n  swap3\n  swap2\n  pop\n  pop\n  jump\t// out\n    /* \"#utility.yul\":5578:5718   */\ntag_11:\n    /* \"#utility.yul\":5636:5641   */\n  0x00\n    /* \"#utility.yul\":5665:5712   */\n  tag_98\n    /* \"#utility.yul\":5706:5710   */\n  0xff\n    /* \"#utility.yul\":5696:5704   */\n  dup5\n    /* \"#utility.yul\":5692:5711   */\n  and\n    /* \"#utility.yul\":5686:5690   */\n  dup4\n    /* \"#utility.yul\":5665:5712   */\n  tag_33\n  jump\t// in\ntag_98:\n    /* \"#utility.yul\":5656:5712   */\n  swap4\n    /* \"#utility.yul\":5578:5718   */\n  swap3\n  pop\n  pop\n  pop\n  jump\t// out\n    /* \"#utility.yul\":5723:5891   */\ntag_13:\n    /* \"#utility.yul\":5796:5805   */\n  dup1\n  dup3\n  mul\n    /* \"#utility.yul\":5827:5836   */\n  dup2\n  iszero\n    /* \"#utility.yul\":5844:5859   */\n  dup3\n  dup3\n  div\n    /* \"#utility.yul\":5838:5860   */\n  dup5\n  eq\n    /* \"#utility.yul\":5824:5861   */\n  or\n    /* \"#utility.yul\":5814:5885   */\n  tag_85\n  jumpi\n    /* \"#utility.yul\":5865:5883   */\n  tag_85\n  tag_31\n  jump\t// in\n    /* \"#utility.yul\":6240:6365   */\ntag_21:\n    /* \"#utility.yul\":6305:6314   */\n  dup1\n  dup3\n  add\n    /* \"#utility.yul\":6326:6336   */\n  dup1\n  dup3\n  gt\n    /* \"#utility.yul\":6323:6359   */\n  iszero\n  tag_85\n  jumpi\n    /* \"#utility.yul\":6339:6357   */\n  tag_85\n  tag_31\n  jump\t// in\n    /* \"#utility.yul\":6370:6547   */\ntag_34:\n    /* \"contracts/token.sol\":145:3002  contract BEP20Token {... */\n  dataSize(sub_0)\n  dup1\n  dataOffset(sub_0)\n  0x00\n  codecopy\n  0x00\n  return\nstop\n\nsub_0: assembly {\n        /* \"contracts/token.sol\":145:3002  contract BEP20Token {... */\n      mstore(0x40, 0x80)\n      callvalue\n      dup1\n      iszero\n      tag_1\n      jumpi\n      0x00\n      dup1\n      revert\n    tag_1:\n      pop\n      jumpi(tag_2, lt(calldatasize, 0x04))\n      shr(0xe0, calldataload(0x00))\n      dup1\n      0x06fdde03\n      eq\n      tag_3\n      jumpi\n      dup1\n      0x095ea7b3\n      eq\n      tag_4\n      jumpi\n      dup1\n      0x18160ddd\n      eq\n      tag_5\n      jumpi\n      dup1\n      0x23b872dd\n      eq\n      tag_6\n      jumpi\n      dup1\n      0x313ce567\n      eq\n      tag_7\n      jumpi\n      dup1\n      0x40c10f19\n      eq\n      tag_8\n      jumpi\n      dup1\n      0x42966c68\n      eq\n      tag_9\n      jumpi\n      dup1\n      0x70a08231\n      eq\n      tag_10\n      jumpi\n      dup1\n      0x8da5cb5b\n      eq\n      tag_11\n      jumpi\n      dup1\n      0x95d89b41\n      eq\n      tag_12\n      jumpi\n      dup1\n      0xa9059cbb\n      eq\n      tag_13\n      jumpi\n      dup1\n      0xdd62ed3e\n      eq\n      tag_14\n      jumpi\n      dup1\n      0xf2fde38b\n      eq\n      tag_15\n      jumpi\n    tag_2:\n      0x00\n      dup1\n      revert\n        /* \"contracts/token.sol\":171:189  string public name */\n    tag_3:\n      tag_16\n      tag_17\n      jump\t// in\n    tag_16:\n      mload(0x40)\n      tag_18\n      swap2\n      swap1\n      tag_19\n      jump\t// in\n    tag_18:\n      mload(0x40)\n      dup1\n      swap2\n      sub\n      swap1\n      return\n        /* \"contracts/token.sol\":1446:1658  function approve(address _spender, uint256 _value) public returns (bool success) {... */\n    tag_4:\n      tag_20\n      tag_21\n      calldatasize\n      0x04\n      tag_22\n      jump\t// in\n    tag_21:\n      tag_23\n      jump\t// in\n    tag_20:\n      mload(0x40)\n        /* \"#utility.yul\":1169:1183   */\n      swap1\n      iszero\n        /* \"#utility.yul\":1162:1184   */\n      iszero\n        /* \"#utility.yul\":1144:1185   */\n      dup2\n      mstore\n        /* \"#utility.yul\":1132:1134   */\n      0x20\n        /* \"#utility.yul\":1117:1135   */\n      add\n        /* \"contracts/token.sol\":1446:1658  function approve(address _spender, uint256 _value) public returns (bool success) {... */\n      tag_18\n        /* \"#utility.yul\":1004:1191   */\n      jump\n        /* \"contracts/token.sol\":253:279  uint256 public totalSupply */\n    tag_5:\n      tag_26\n      sload(0x03)\n      dup2\n      jump\n    tag_26:\n      mload(0x40)\n        /* \"#utility.yul\":1342:1367   */\n      swap1\n      dup2\n      mstore\n        /* \"#utility.yul\":1330:1332   */\n      0x20\n        /* \"#utility.yul\":1315:1333   */\n      add\n        /* \"contracts/token.sol\":253:279  uint256 public totalSupply */\n      tag_18\n        /* \"#utility.yul\":1196:1373   */\n      jump\n        /* \"contracts/token.sol\":1668:2174  function transferFrom(address _from, address _to, uint256 _value) public returns (bool success) {... */\n    tag_6:\n      tag_20\n      tag_31\n      calldatasize\n      0x04\n      tag_32\n      jump\t// in\n    tag_31:\n      tag_33\n      jump\t// in\n        /* \"contracts/token.sol\":221:247  uint8 public decimals = 18 */\n    tag_7:\n      sload(0x02)\n      tag_35\n      swap1\n      0xff\n      and\n      dup2\n      jump\n    tag_35:\n      mload(0x40)\n        /* \"#utility.yul\":1883:1887   */\n      0xff\n        /* \"#utility.yul\":1871:1888   */\n      swap1\n      swap2\n      and\n        /* \"#utility.yul\":1853:1889   */\n      dup2\n      mstore\n        /* \"#utility.yul\":1841:1843   */\n      0x20\n        /* \"#utility.yul\":1826:1844   */\n      add\n        /* \"contracts/token.sol\":221:247  uint8 public decimals = 18 */\n      tag_18\n        /* \"#utility.yul\":1711:1895   */\n      jump\n        /* \"contracts/token.sol\":2426:2523  function mint(address _to, uint256 _amount) public onlyOwner {... */\n    tag_8:\n      tag_39\n      tag_40\n      calldatasize\n      0x04\n      tag_22\n      jump\t// in\n    tag_40:\n      tag_41\n      jump\t// in\n    tag_39:\n      stop\n        /* \"contracts/token.sol\":2533:2783  function burn(uint256 _amount) public {... */\n    tag_9:\n      tag_39\n      tag_43\n      calldatasize\n      0x04\n      tag_44\n      jump\t// in\n    tag_43:\n      tag_45\n      jump\t// in\n        /* \"contracts/token.sol\":321:365  mapping(address => uint256) public balanceOf */\n    tag_10:\n      tag_26\n      tag_47\n      calldatasize\n      0x04\n      tag_48\n      jump\t// in\n    tag_47:\n      mstore(0x20, 0x05)\n      0x00\n      swap1\n      dup2\n      mstore\n      0x40\n      swap1\n      keccak256\n      sload\n      dup2\n      jump\n        /* \"contracts/token.sol\":290:310  address public owner */\n    tag_11:\n      sload(0x04)\n      tag_51\n      swap1\n      sub(shl(0xa0, 0x01), 0x01)\n      and\n      dup2\n      jump\n    tag_51:\n      mload(0x40)\n      sub(shl(0xa0, 0x01), 0x01)\n        /* \"#utility.yul\":2440:2472   */\n      swap1\n      swap2\n      and\n        /* \"#utility.yul\":2422:2473   */\n      dup2\n      mstore\n        /* \"#utility.yul\":2410:2412   */\n      0x20\n        /* \"#utility.yul\":2395:2413   */\n      add\n        /* \"contracts/token.sol\":290:310  address public owner */\n      tag_18\n        /* \"#utility.yul\":2276:2479   */\n      jump\n        /* \"contracts/token.sol\":195:215  string public symbol */\n    tag_12:\n      tag_16\n      tag_56\n      jump\t// in\n        /* \"contracts/token.sol\":1061:1436  function transfer(address _to, uint256 _value) public returns (bool success) {... */\n    tag_13:\n      tag_20\n      tag_59\n      calldatasize\n      0x04\n      tag_22\n      jump\t// in\n    tag_59:\n      tag_60\n      jump\t// in\n        /* \"contracts/token.sol\":371:435  mapping(address => mapping(address => uint256)) public allowance */\n    tag_14:\n      tag_26\n      tag_63\n      calldatasize\n      0x04\n      tag_64\n      jump\t// in\n    tag_63:\n      0x06\n      0x20\n      swap1\n      dup2\n      mstore\n      0x00\n      swap3\n      dup4\n      mstore\n      0x40\n      dup1\n      dup5\n      keccak256\n      swap1\n      swap2\n      mstore\n      swap1\n      dup3\n      mstore\n      swap1\n      keccak256\n      sload\n      dup2\n      jump\n        /* \"contracts/token.sol\":2793:3000  function transferOwnership(address newOwner) public onlyOwner {... */\n    tag_15:\n      tag_39\n      tag_68\n      calldatasize\n      0x04\n      tag_48\n      jump\t// in\n    tag_68:\n      tag_69\n      jump\t// in\n        /* \"contracts/token.sol\":171:189  string public name */\n    tag_17:\n      0x00\n      dup1\n      sload\n      tag_70\n      swap1\n      tag_71\n      jump\t// in\n    tag_70:\n      dup1\n      0x1f\n      add\n      0x20\n      dup1\n      swap2\n      div\n      mul\n      0x20\n      add\n      mload(0x40)\n      swap1\n      dup2\n      add\n      0x40\n      mstore\n      dup1\n      swap3\n      swap2\n      swap1\n      dup2\n      dup2\n      mstore\n      0x20\n      add\n      dup3\n      dup1\n      sload\n      tag_72\n      swap1\n      tag_71\n      jump\t// in\n    tag_72:\n      dup1\n      iszero\n      tag_73\n      jumpi\n      dup1\n      0x1f\n      lt\n      tag_74\n      jumpi\n      0x0100\n      dup1\n      dup4\n      sload\n      div\n      mul\n      dup4\n      mstore\n      swap2\n      0x20\n      add\n      swap2\n      jump(tag_73)\n    tag_74:\n      dup3\n      add\n      swap2\n      swap1\n      0x00\n      mstore\n      keccak256(0x00, 0x20)\n      swap1\n    tag_75:\n      dup2\n      sload\n      dup2\n      mstore\n      swap1\n      0x01\n      add\n      swap1\n      0x20\n      add\n      dup1\n      dup4\n      gt\n      tag_75\n      jumpi\n      dup3\n      swap1\n      sub\n      0x1f\n      and\n      dup3\n      add\n      swap2\n    tag_73:\n      pop\n      pop\n      pop\n      pop\n      pop\n      dup2\n      jump\t// out\n        /* \"contracts/token.sol\":1446:1658  function approve(address _spender, uint256 _value) public returns (bool success) {... */\n    tag_23:\n        /* \"contracts/token.sol\":1547:1557  msg.sender */\n      caller\n        /* \"contracts/token.sol\":1513:1525  bool success */\n      0x00\n        /* \"contracts/token.sol\":1537:1558  allowance[msg.sender] */\n      dup2\n      dup2\n      mstore\n        /* \"contracts/token.sol\":1537:1546  allowance */\n      0x06\n        /* \"contracts/token.sol\":1537:1558  allowance[msg.sender] */\n      0x20\n      swap1\n      dup2\n      mstore\n      0x40\n      dup1\n      dup4\n      keccak256\n      sub(shl(0xa0, 0x01), 0x01)\n        /* \"contracts/token.sol\":1537:1568  allowance[msg.sender][_spender] */\n      dup8\n      and\n      dup1\n      dup6\n      mstore\n      swap3\n      mstore\n      dup1\n      dup4\n      keccak256\n        /* \"contracts/token.sol\":1537:1577  allowance[msg.sender][_spender] = _value */\n      dup6\n      swap1\n      sstore\n        /* \"contracts/token.sol\":1592:1630  Approval(msg.sender, _spender, _value) */\n      mload\n        /* \"contracts/token.sol\":1513:1525  bool success */\n      swap2\n      swap3\n        /* \"contracts/token.sol\":1537:1568  allowance[msg.sender][_spender] */\n      swap1\n      swap2\n        /* \"contracts/token.sol\":1592:1630  Approval(msg.sender, _spender, _value) */\n      0x8c5be1e5ebec7d5bd14f71427d1e84f3dd0314c0f7b2291e5b200ac8c7c3b925\n      swap1\n      tag_77\n      swap1\n        /* \"contracts/token.sol\":1571:1577  _value */\n      dup7\n        /* \"#utility.yul\":1342:1367   */\n      dup2\n      mstore\n        /* \"#utility.yul\":1330:1332   */\n      0x20\n        /* \"#utility.yul\":1315:1333   */\n      add\n      swap1\n        /* \"#utility.yul\":1196:1373   */\n      jump\n        /* \"contracts/token.sol\":1592:1630  Approval(msg.sender, _spender, _value) */\n    tag_77:\n      mload(0x40)\n      dup1\n      swap2\n      sub\n      swap1\n      log3\n      pop\n        /* \"contracts/token.sol\":1647:1651  true */\n      0x01\n        /* \"contracts/token.sol\":1446:1658  function approve(address _spender, uint256 _value) public returns (bool success) {... */\n    tag_76:\n      swap3\n      swap2\n      pop\n      pop\n      jump\t// out\n        /* \"contracts/token.sol\":1668:2174  function transferFrom(address _from, address _to, uint256 _value) public returns (bool success) {... */\n    tag_33:\n        /* \"contracts/token.sol\":1750:1762  bool success */\n      0x00\n      sub(shl(0xa0, 0x01), 0x01)\n        /* \"contracts/token.sol\":1782:1799  _to != address(0) */\n      dup4\n      and\n        /* \"contracts/token.sol\":1774:1819  require(_to != address(0), \"Invalid address\") */\n      tag_79\n      jumpi\n      mload(0x40)\n      shl(0xe5, 0x461bcd)\n      dup2\n      mstore\n      0x04\n      add\n      tag_80\n      swap1\n      tag_81\n      jump\t// in\n    tag_80:\n      mload(0x40)\n      dup1\n      swap2\n      sub\n      swap1\n      revert\n    tag_79:\n      sub(shl(0xa0, 0x01), 0x01)\n        /* \"contracts/token.sol\":1837:1853  balanceOf[_from] */\n      dup5\n      and\n      0x00\n      swap1\n      dup2\n      mstore\n        /* \"contracts/token.sol\":1837:1846  balanceOf */\n      0x05\n        /* \"contracts/token.sol\":1837:1853  balanceOf[_from] */\n      0x20\n      mstore\n      0x40\n      swap1\n      keccak256\n      sload\n        /* \"contracts/token.sol\":1837:1863  balanceOf[_from] >= _value */\n      dup3\n      gt\n      iszero\n        /* \"contracts/token.sol\":1829:1888  require(balanceOf[_from] >= _value, \"Insufficient balance\") */\n      tag_82\n      jumpi\n      mload(0x40)\n      shl(0xe5, 0x461bcd)\n      dup2\n      mstore\n      0x04\n      add\n      tag_80\n      swap1\n      tag_84\n      jump\t// in\n    tag_82:\n      sub(shl(0xa0, 0x01), 0x01)\n        /* \"contracts/token.sol\":1906:1922  allowance[_from] */\n      dup5\n      and\n      0x00\n      swap1\n      dup2\n      mstore\n        /* \"contracts/token.sol\":1906:1915  allowance */\n      0x06\n        /* \"contracts/token.sol\":1906:1922  allowance[_from] */\n      0x20\n      swap1\n      dup2\n      mstore\n      0x40\n      dup1\n      dup4\n      keccak256\n        /* \"contracts/token.sol\":1923:1933  msg.sender */\n      caller\n        /* \"contracts/token.sol\":1906:1934  allowance[_from][msg.sender] */\n      dup5\n      mstore\n      swap1\n      swap2\n      mstore\n      swap1\n      keccak256\n      sload\n        /* \"contracts/token.sol\":1906:1944  allowance[_from][msg.sender] >= _value */\n      dup3\n      gt\n      iszero\n        /* \"contracts/token.sol\":1898:1967  require(allowance[_from][msg.sender] >= _value, \"Allowance exceeded\") */\n      tag_85\n      jumpi\n      mload(0x40)\n      shl(0xe5, 0x461bcd)\n      dup2\n      mstore\n        /* \"#utility.yul\":4029:4031   */\n      0x20\n        /* \"contracts/token.sol\":1898:1967  require(allowance[_from][msg.sender] >= _value, \"Allowance exceeded\") */\n      0x04\n      dup3\n      add\n        /* \"#utility.yul\":4011:4032   */\n      mstore\n        /* \"#utility.yul\":4068:4070   */\n      0x12\n        /* \"#utility.yul\":4048:4066   */\n      0x24\n      dup3\n      add\n        /* \"#utility.yul\":4041:4071   */\n      mstore\n      shl(0x72, 0x105b1b1bddd85b98d948195e18d959591959)\n        /* \"#utility.yul\":4087:4105   */\n      0x44\n      dup3\n      add\n        /* \"#utility.yul\":4080:4128   */\n      mstore\n        /* \"#utility.yul\":4145:4163   */\n      0x64\n      add\n        /* \"contracts/token.sol\":1898:1967  require(allowance[_from][msg.sender] >= _value, \"Allowance exceeded\") */\n      tag_80\n        /* \"#utility.yul\":3827:4169   */\n      jump\n        /* \"contracts/token.sol\":1898:1967  require(allowance[_from][msg.sender] >= _value, \"Allowance exceeded\") */\n    tag_85:\n      sub(shl(0xa0, 0x01), 0x01)\n        /* \"contracts/token.sol\":1986:2002  balanceOf[_from] */\n      dup5\n      and\n      0x00\n      swap1\n      dup2\n      mstore\n        /* \"contracts/token.sol\":1986:1995  balanceOf */\n      0x05\n        /* \"contracts/token.sol\":1986:2002  balanceOf[_from] */\n      0x20\n      mstore\n      0x40\n      dup2\n      keccak256\n        /* \"contracts/token.sol\":1986:2012  balanceOf[_from] -= _value */\n      dup1\n      sload\n        /* \"contracts/token.sol\":2006:2012  _value */\n      dup5\n      swap3\n        /* \"contracts/token.sol\":1986:2002  balanceOf[_from] */\n      swap1\n        /* \"contracts/token.sol\":1986:2012  balanceOf[_from] -= _value */\n      tag_88\n      swap1\n        /* \"contracts/token.sol\":2006:2012  _value */\n      dup5\n      swap1\n        /* \"contracts/token.sol\":1986:2012  balanceOf[_from] -= _value */\n      tag_89\n      jump\t// in\n    tag_88:\n      swap1\n      swap2\n      sstore\n      pop\n      pop\n      sub(shl(0xa0, 0x01), 0x01)\n        /* \"contracts/token.sol\":2022:2036  balanceOf[_to] */\n      dup4\n      and\n      0x00\n      swap1\n      dup2\n      mstore\n        /* \"contracts/token.sol\":2022:2031  balanceOf */\n      0x05\n        /* \"contracts/token.sol\":2022:2036  balanceOf[_to] */\n      0x20\n      mstore\n      0x40\n      dup2\n      keccak256\n        /* \"contracts/token.sol\":2022:2046  balanceOf[_to] += _value */\n      dup1\n      sload\n        /* \"contracts/token.sol\":2040:2046  _value */\n      dup5\n      swap3\n        /* \"contracts/token.sol\":2022:2036  balanceOf[_to] */\n      swap1\n        /* \"contracts/token.sol\":2022:2046  balanceOf[_to] += _value */\n      tag_90\n      swap1\n        /* \"contracts/token.sol\":2040:2046  _value */\n      dup5\n      swap1\n        /* \"contracts/token.sol\":2022:2046  balanceOf[_to] += _value */\n      tag_91\n      jump\t// in\n    tag_90:\n      swap1\n      swap2\n      sstore\n      pop\n      pop\n      sub(shl(0xa0, 0x01), 0x01)\n        /* \"contracts/token.sol\":2056:2072  allowance[_from] */\n      dup5\n      and\n      0x00\n      swap1\n      dup2\n      mstore\n        /* \"contracts/token.sol\":2056:2065  allowance */\n      0x06\n        /* \"contracts/token.sol\":2056:2072  allowance[_from] */\n      0x20\n      swap1\n      dup2\n      mstore\n      0x40\n      dup1\n      dup4\n      keccak256\n        /* \"contracts/token.sol\":2073:2083  msg.sender */\n      caller\n        /* \"contracts/token.sol\":2056:2084  allowance[_from][msg.sender] */\n      dup5\n      mstore\n      swap1\n      swap2\n      mstore\n      dup2\n      keccak256\n        /* \"contracts/token.sol\":2056:2094  allowance[_from][msg.sender] -= _value */\n      dup1\n      sload\n        /* \"contracts/token.sol\":2088:2094  _value */\n      dup5\n      swap3\n        /* \"contracts/token.sol\":2056:2072  allowance[_from] */\n      swap1\n        /* \"contracts/token.sol\":2056:2094  allowance[_from][msg.sender] -= _value */\n      tag_92\n      swap1\n        /* \"contracts/token.sol\":2088:2094  _value */\n      dup5\n      swap1\n        /* \"contracts/token.sol\":2056:2094  allowance[_from][msg.sender] -= _value */\n      tag_89\n      jump\t// in\n    tag_92:\n      swap3\n      pop\n      pop\n      dup2\n      swap1\n      sstore\n      pop\n        /* \"contracts/token.sol\":2134:2137  _to */\n      dup3\n      sub(shl(0xa0, 0x01), 0x01)\n        /* \"contracts/token.sol\":2118:2146  Transfer(_from, _to, _value) */\n      and\n        /* \"contracts/token.sol\":2127:2132  _from */\n      dup5\n      sub(shl(0xa0, 0x01), 0x01)\n        /* \"contracts/token.sol\":2118:2146  Transfer(_from, _to, _value) */\n      and\n      0x00\n      dup1\n      mload\n      0x20\n      data_ada389e1fc24a8587c776340efb91b36e675792ab631816100d55df0b5cf3cbc\n      dup4\n      codecopy\n      dup2\n      mload\n      swap2\n      mstore\n        /* \"contracts/token.sol\":2139:2145  _value */\n      dup5\n        /* \"contracts/token.sol\":2118:2146  Transfer(_from, _to, _value) */\n      mload(0x40)\n      tag_93\n      swap2\n        /* \"#utility.yul\":1342:1367   */\n      dup2\n      mstore\n        /* \"#utility.yul\":1330:1332   */\n      0x20\n        /* \"#utility.yul\":1315:1333   */\n      add\n      swap1\n        /* \"#utility.yul\":1196:1373   */\n      jump\n        /* \"contracts/token.sol\":2118:2146  Transfer(_from, _to, _value) */\n    tag_93:\n      mload(0x40)\n      dup1\n      swap2\n      sub\n      swap1\n      log3\n      pop\n        /* \"contracts/token.sol\":2163:2167  true */\n      0x01\n        /* \"contracts/token.sol\":1668:2174  function transferFrom(address _from, address _to, uint256 _value) public returns (bool success) {... */\n      swap4\n      swap3\n      pop\n      pop\n      pop\n      jump\t// out\n        /* \"contracts/token.sol\":2426:2523  function mint(address _to, uint256 _amount) public onlyOwner {... */\n    tag_41:\n        /* \"contracts/token.sol\":753:758  owner */\n      and(sub(shl(0xa0, 0x01), 0x01), sload(0x04))\n        /* \"contracts/token.sol\":739:749  msg.sender */\n      caller\n        /* \"contracts/token.sol\":739:758  msg.sender == owner */\n      eq\n        /* \"contracts/token.sol\":731:772  require(msg.sender == owner, \"Not owner\") */\n      tag_95\n      jumpi\n      mload(0x40)\n      shl(0xe5, 0x461bcd)\n      dup2\n      mstore\n      0x04\n      add\n      tag_80\n      swap1\n      tag_97\n      jump\t// in\n    tag_95:\n        /* \"contracts/token.sol\":2497:2516  _mint(_to, _amount) */\n      tag_99\n        /* \"contracts/token.sol\":2503:2506  _to */\n      dup3\n        /* \"contracts/token.sol\":2508:2515  _amount */\n      dup3\n        /* \"contracts/token.sol\":2497:2502  _mint */\n      tag_100\n        /* \"contracts/token.sol\":2497:2516  _mint(_to, _amount) */\n      jump\t// in\n    tag_99:\n        /* \"contracts/token.sol\":2426:2523  function mint(address _to, uint256 _amount) public onlyOwner {... */\n      pop\n      pop\n      jump\t// out\n        /* \"contracts/token.sol\":2533:2783  function burn(uint256 _amount) public {... */\n    tag_45:\n        /* \"contracts/token.sol\":2599:2609  msg.sender */\n      caller\n        /* \"contracts/token.sol\":2589:2610  balanceOf[msg.sender] */\n      0x00\n      swap1\n      dup2\n      mstore\n        /* \"contracts/token.sol\":2589:2598  balanceOf */\n      0x05\n        /* \"contracts/token.sol\":2589:2610  balanceOf[msg.sender] */\n      0x20\n      mstore\n      0x40\n      swap1\n      keccak256\n      sload\n        /* \"contracts/token.sol\":2589:2621  balanceOf[msg.sender] >= _amount */\n      dup2\n      gt\n      iszero\n        /* \"contracts/token.sol\":2581:2646  require(balanceOf[msg.sender] >= _amount, \"Insufficient balance\") */\n      tag_102\n      jumpi\n      mload(0x40)\n      shl(0xe5, 0x461bcd)\n      dup2\n      mstore\n      0x04\n      add\n      tag_80\n      swap1\n      tag_84\n      jump\t// in\n    tag_102:\n        /* \"contracts/token.sol\":2666:2676  msg.sender */\n      caller\n        /* \"contracts/token.sol\":2656:2677  balanceOf[msg.sender] */\n      0x00\n      swap1\n      dup2\n      mstore\n        /* \"contracts/token.sol\":2656:2665  balanceOf */\n      0x05\n        /* \"contracts/token.sol\":2656:2677  balanceOf[msg.sender] */\n      0x20\n      mstore\n      0x40\n      dup2\n      keccak256\n        /* \"contracts/token.sol\":2656:2688  balanceOf[msg.sender] -= _amount */\n      dup1\n      sload\n        /* \"contracts/token.sol\":2681:2688  _amount */\n      dup4\n      swap3\n        /* \"contracts/token.sol\":2656:2677  balanceOf[msg.sender] */\n      swap1\n        /* \"contracts/token.sol\":2656:2688  balanceOf[msg.sender] -= _amount */\n      tag_104\n      swap1\n        /* \"contracts/token.sol\":2681:2688  _amount */\n      dup5\n      swap1\n        /* \"contracts/token.sol\":2656:2688  balanceOf[msg.sender] -= _amount */\n      tag_89\n      jump\t// in\n    tag_104:\n      swap3\n      pop\n      pop\n      dup2\n      swap1\n      sstore\n      pop\n        /* \"contracts/token.sol\":2713:2720  _amount */\n      dup1\n        /* \"contracts/token.sol\":2698:2709  totalSupply */\n      0x03\n      0x00\n        /* \"contracts/token.sol\":2698:2720  totalSupply -= _amount */\n      dup3\n      dup3\n      sload\n      tag_105\n      swap2\n      swap1\n      tag_89\n      jump\t// in\n    tag_105:\n      swap1\n      swap2\n      sstore\n      pop\n      pop\n        /* \"contracts/token.sol\":2735:2776  Transfer(msg.sender, address(0), _amount) */\n      mload(0x40)\n        /* \"#utility.yul\":1342:1367   */\n      dup2\n      dup2\n      mstore\n        /* \"contracts/token.sol\":2764:2765  0 */\n      0x00\n      swap1\n        /* \"contracts/token.sol\":2744:2754  msg.sender */\n      caller\n      swap1\n      0x00\n      dup1\n      mload\n      0x20\n      data_ada389e1fc24a8587c776340efb91b36e675792ab631816100d55df0b5cf3cbc\n      dup4\n      codecopy\n      dup2\n      mload\n      swap2\n      mstore\n        /* \"contracts/token.sol\":2735:2776  Transfer(msg.sender, address(0), _amount) */\n      swap1\n        /* \"#utility.yul\":1330:1332   */\n      0x20\n        /* \"#utility.yul\":1315:1333   */\n      add\n        /* \"contracts/token.sol\":2735:2776  Transfer(msg.sender, address(0), _amount) */\n      mload(0x40)\n      dup1\n      swap2\n      sub\n      swap1\n      log3\n        /* \"contracts/token.sol\":2533:2783  function burn(uint256 _amount) public {... */\n      pop\n      jump\t// out\n        /* \"contracts/token.sol\":195:215  string public symbol */\n    tag_56:\n      0x01\n      dup1\n      sload\n      tag_70\n      swap1\n      tag_71\n      jump\t// in\n        /* \"contracts/token.sol\":1061:1436  function transfer(address _to, uint256 _value) public returns (bool success) {... */\n    tag_60:\n        /* \"contracts/token.sol\":1124:1136  bool success */\n      0x00\n      sub(shl(0xa0, 0x01), 0x01)\n        /* \"contracts/token.sol\":1156:1173  _to != address(0) */\n      dup4\n      and\n        /* \"contracts/token.sol\":1148:1193  require(_to != address(0), \"Invalid address\") */\n      tag_113\n      jumpi\n      mload(0x40)\n      shl(0xe5, 0x461bcd)\n      dup2\n      mstore\n      0x04\n      add\n      tag_80\n      swap1\n      tag_81\n      jump\t// in\n    tag_113:\n        /* \"contracts/token.sol\":1221:1231  msg.sender */\n      caller\n        /* \"contracts/token.sol\":1211:1232  balanceOf[msg.sender] */\n      0x00\n      swap1\n      dup2\n      mstore\n        /* \"contracts/token.sol\":1211:1220  balanceOf */\n      0x05\n        /* \"contracts/token.sol\":1211:1232  balanceOf[msg.sender] */\n      0x20\n      mstore\n      0x40\n      swap1\n      keccak256\n      sload\n        /* \"contracts/token.sol\":1211:1242  balanceOf[msg.sender] >= _value */\n      dup3\n      gt\n      iszero\n        /* \"contracts/token.sol\":1203:1267  require(balanceOf[msg.sender] >= _value, \"Insufficient balance\") */\n      tag_115\n      jumpi\n      mload(0x40)\n      shl(0xe5, 0x461bcd)\n      dup2\n      mstore\n      0x04\n      add\n      tag_80\n      swap1\n      tag_84\n      jump\t// in\n    tag_115:\n        /* \"contracts/token.sol\":1296:1306  msg.sender */\n      caller\n        /* \"contracts/token.sol\":1286:1307  balanceOf[msg.sender] */\n      0x00\n      swap1\n      dup2\n      mstore\n        /* \"contracts/token.sol\":1286:1295  balanceOf */\n      0x05\n        /* \"contracts/token.sol\":1286:1307  balanceOf[msg.sender] */\n      0x20\n      mstore\n      0x40\n      dup2\n      keccak256\n        /* \"contracts/token.sol\":1286:1317  balanceOf[msg.sender] -= _value */\n      dup1\n      sload\n        /* \"contracts/token.sol\":1311:1317  _value */\n      dup5\n      swap3\n        /* \"contracts/token.sol\":1286:1307  balanceOf[msg.sender] */\n      swap1\n        /* \"contracts/token.sol\":1286:1317  balanceOf[msg.sender] -= _value */\n      tag_117\n      swap1\n        /* \"contracts/token.sol\":1311:1317  _value */\n      dup5\n      swap1\n        /* \"contracts/token.sol\":1286:1317  balanceOf[msg.sender] -= _value */\n      tag_89\n      jump\t// in\n    tag_117:\n      swap1\n      swap2\n      sstore\n      pop\n      pop\n      sub(shl(0xa0, 0x01), 0x01)\n        /* \"contracts/token.sol\":1327:1341  balanceOf[_to] */\n      dup4\n      and\n      0x00\n      swap1\n      dup2\n      mstore\n        /* \"contracts/token.sol\":1327:1336  balanceOf */\n      0x05\n        /* \"contracts/token.sol\":1327:1341  balanceOf[_to] */\n      0x20\n      mstore\n      0x40\n      dup2\n      keccak256\n        /* \"contracts/token.sol\":1327:1351  balanceOf[_to] += _value */\n      dup1\n      sload\n        /* \"contracts/token.sol\":1345:1351  _value */\n      dup5\n      swap3\n        /* \"contracts/token.sol\":1327:1341  balanceOf[_to] */\n      swap1\n        /* \"contracts/token.sol\":1327:1351  balanceOf[_to] += _value */\n      tag_118\n      swap1\n        /* \"contracts/token.sol\":1345:1351  _value */\n      dup5\n      swap1\n        /* \"contracts/token.sol\":1327:1351  balanceOf[_to] += _value */\n      tag_91\n      jump\t// in\n    tag_118:\n      swap1\n      swap2\n      sstore\n      pop\n      pop\n        /* \"contracts/token.sol\":1375:1408  Transfer(msg.sender, _to, _value) */\n      mload(0x40)\n        /* \"#utility.yul\":1342:1367   */\n      dup3\n      dup2\n      mstore\n      sub(shl(0xa0, 0x01), 0x01)\n        /* \"contracts/token.sol\":1375:1408  Transfer(msg.sender, _to, _value) */\n      dup5\n      and\n      swap1\n        /* \"contracts/token.sol\":1384:1394  msg.sender */\n      caller\n      swap1\n      0x00\n      dup1\n      mload\n      0x20\n      data_ada389e1fc24a8587c776340efb91b36e675792ab631816100d55df0b5cf3cbc\n      dup4\n      codecopy\n      dup2\n      mload\n      swap2\n      mstore\n        /* \"contracts/token.sol\":1375:1408  Transfer(msg.sender, _to, _value) */\n      swap1\n        /* \"#utility.yul\":1330:1332   */\n      0x20\n        /* \"#utility.yul\":1315:1333   */\n      add\n        /* \"contracts/token.sol\":1375:1408  Transfer(msg.sender, _to, _value) */\n      tag_77\n        /* \"#utility.yul\":1196:1373   */\n      jump\n        /* \"contracts/token.sol\":2793:3000  function transferOwnership(address newOwner) public onlyOwner {... */\n    tag_69:\n        /* \"contracts/token.sol\":753:758  owner */\n      and(sub(shl(0xa0, 0x01), 0x01), sload(0x04))\n        /* \"contracts/token.sol\":739:749  msg.sender */\n      caller\n        /* \"contracts/token.sol\":739:758  msg.sender == owner */\n      eq\n        /* \"contracts/token.sol\":731:772  require(msg.sender == owner, \"Not owner\") */\n      tag_121\n      jumpi\n      mload(0x40)\n      shl(0xe5, 0x461bcd)\n      dup2\n      mstore\n      0x04\n      add\n      tag_80\n      swap1\n      tag_97\n      jump\t// in\n    tag_121:\n      sub(shl(0xa0, 0x01), 0x01)\n        /* \"contracts/token.sol\":2873:2895  newOwner != address(0) */\n      dup2\n      and\n        /* \"contracts/token.sol\":2865:2915  require(newOwner != address(0), \"Invalid address\") */\n      tag_124\n      jumpi\n      mload(0x40)\n      shl(0xe5, 0x461bcd)\n      dup2\n      mstore\n      0x04\n      add\n      tag_80\n      swap1\n      tag_81\n      jump\t// in\n    tag_124:\n        /* \"contracts/token.sol\":2951:2956  owner */\n      sload(0x04)\n        /* \"contracts/token.sol\":2930:2967  OwnershipTransferred(owner, newOwner) */\n      mload(0x40)\n      sub(shl(0xa0, 0x01), 0x01)\n      dup1\n      dup5\n      and\n      swap3\n        /* \"contracts/token.sol\":2951:2956  owner */\n      and\n      swap1\n        /* \"contracts/token.sol\":2930:2967  OwnershipTransferred(owner, newOwner) */\n      0x8be0079c531659141344cd1fd0a4f28419497f9722a3daafe3b4186f6b6457e0\n      swap1\n        /* \"contracts/token.sol\":2951:2956  owner */\n      0x00\n      swap1\n        /* \"contracts/token.sol\":2930:2967  OwnershipTransferred(owner, newOwner) */\n      log3\n        /* \"contracts/token.sol\":2977:2982  owner */\n      0x04\n        /* \"contracts/token.sol\":2977:2993  owner = newOwner */\n      dup1\n      sload\n      not(sub(shl(0xa0, 0x01), 0x01))\n      and\n      sub(shl(0xa0, 0x01), 0x01)\n      swap3\n      swap1\n      swap3\n      and\n      swap2\n      swap1\n      swap2\n      or\n      swap1\n      sstore\n        /* \"contracts/token.sol\":2793:3000  function transferOwnership(address newOwner) public onlyOwner {... */\n      jump\t// out\n        /* \"contracts/token.sol\":2184:2416  function _mint(address _to, uint256 _amount) internal {... */\n    tag_100:\n      sub(shl(0xa0, 0x01), 0x01)\n        /* \"contracts/token.sol\":2256:2273  _to != address(0) */\n      dup3\n      and\n        /* \"contracts/token.sol\":2248:2293  require(_to != address(0), \"Invalid address\") */\n      tag_127\n      jumpi\n      mload(0x40)\n      shl(0xe5, 0x461bcd)\n      dup2\n      mstore\n      0x04\n      add\n      tag_80\n      swap1\n      tag_81\n      jump\t// in\n    tag_127:\n        /* \"contracts/token.sol\":2318:2325  _amount */\n      dup1\n        /* \"contracts/token.sol\":2303:2314  totalSupply */\n      0x03\n      0x00\n        /* \"contracts/token.sol\":2303:2325  totalSupply += _amount */\n      dup3\n      dup3\n      sload\n      tag_129\n      swap2\n      swap1\n      tag_91\n      jump\t// in\n    tag_129:\n      swap1\n      swap2\n      sstore\n      pop\n      pop\n      sub(shl(0xa0, 0x01), 0x01)\n        /* \"contracts/token.sol\":2335:2349  balanceOf[_to] */\n      dup3\n      and\n      0x00\n      swap1\n      dup2\n      mstore\n        /* \"contracts/token.sol\":2335:2344  balanceOf */\n      0x05\n        /* \"contracts/token.sol\":2335:2349  balanceOf[_to] */\n      0x20\n      mstore\n      0x40\n      dup2\n      keccak256\n        /* \"contracts/token.sol\":2335:2360  balanceOf[_to] += _amount */\n      dup1\n      sload\n        /* \"contracts/token.sol\":2353:2360  _amount */\n      dup4\n      swap3\n        /* \"contracts/token.sol\":2335:2349  balanceOf[_to] */\n      swap1\n        /* \"contracts/token.sol\":2335:2360  balanceOf[_to] += _amount */\n      tag_130\n      swap1\n        /* \"contracts/token.sol\":2353:2360  _amount */\n      dup5\n      swap1\n        /* \"contracts/token.sol\":2335:2360  balanceOf[_to] += _amount */\n      tag_91\n      jump\t// in\n    tag_130:\n      swap1\n      swap2\n      sstore\n      pop\n      pop\n        /* \"contracts/token.sol\":2375:2409  Transfer(address(0), _to, _amount) */\n      mload(0x40)\n        /* \"#utility.yul\":1342:1367   */\n      dup2\n      dup2\n      mstore\n      sub(shl(0xa0, 0x01), 0x01)\n        /* \"contracts/token.sol\":2375:2409  Transfer(address(0), _to, _amount) */\n      dup4\n      and\n      swap1\n        /* \"contracts/token.sol\":2392:2393  0 */\n      0x00\n      swap1\n      0x00\n      dup1\n      mload\n      0x20\n      data_ada389e1fc24a8587c776340efb91b36e675792ab631816100d55df0b5cf3cbc\n      dup4\n      codecopy\n      dup2\n      mload\n      swap2\n      mstore\n        /* \"contracts/token.sol\":2375:2409  Transfer(address(0), _to, _amount) */\n      swap1\n        /* \"#utility.yul\":1330:1332   */\n      0x20\n        /* \"#utility.yul\":1315:1333   */\n      add\n        /* \"contracts/token.sol\":2375:2409  Transfer(address(0), _to, _amount) */\n      mload(0x40)\n      dup1\n      swap2\n      sub\n      swap1\n      log3\n        /* \"contracts/token.sol\":2184:2416  function _mint(address _to, uint256 _amount) internal {... */\n      pop\n      pop\n      jump\t// out\n        /* \"#utility.yul\":14:562   */\n    tag_19:\n        /* \"#utility.yul\":126:130   */\n      0x00\n        /* \"#utility.yul\":155:157   */\n      0x20\n        /* \"#utility.yul\":184:186   */\n      dup1\n        /* \"#utility.yul\":173:182   */\n      dup4\n        /* \"#utility.yul\":166:187   */\n      mstore\n        /* \"#utility.yul\":216:222   */\n      dup4\n        /* \"#utility.yul\":210:223   */\n      mload\n        /* \"#utility.yul\":259:265   */\n      dup1\n        /* \"#utility.yul\":254:256   */\n      dup3\n        /* \"#utility.yul\":243:252   */\n      dup6\n        /* \"#utility.yul\":239:257   */\n      add\n        /* \"#utility.yul\":232:266   */\n      mstore\n        /* \"#utility.yul\":284:285   */\n      0x00\n        /* \"#utility.yul\":294:434   */\n    tag_136:\n        /* \"#utility.yul\":308:314   */\n      dup2\n        /* \"#utility.yul\":305:306   */\n      dup2\n        /* \"#utility.yul\":302:315   */\n      lt\n        /* \"#utility.yul\":294:434   */\n      iszero\n      tag_138\n      jumpi\n        /* \"#utility.yul\":403:417   */\n      dup6\n      dup2\n      add\n        /* \"#utility.yul\":399:422   */\n      dup4\n      add\n        /* \"#utility.yul\":393:423   */\n      mload\n        /* \"#utility.yul\":369:386   */\n      dup6\n      dup3\n      add\n        /* \"#utility.yul\":388:390   */\n      0x40\n        /* \"#utility.yul\":365:391   */\n      add\n        /* \"#utility.yul\":358:424   */\n      mstore\n        /* \"#utility.yul\":323:333   */\n      dup3\n      add\n        /* \"#utility.yul\":294:434   */\n      jump(tag_136)\n    tag_138:\n        /* \"#utility.yul\":298:301   */\n      pop\n        /* \"#utility.yul\":483:484   */\n      0x00\n        /* \"#utility.yul\":478:480   */\n      0x40\n        /* \"#utility.yul\":469:475   */\n      dup3\n        /* \"#utility.yul\":458:467   */\n      dup7\n        /* \"#utility.yul\":454:476   */\n      add\n        /* \"#utility.yul\":450:481   */\n      add\n        /* \"#utility.yul\":443:485   */\n      mstore\n        /* \"#utility.yul\":553:555   */\n      0x40\n        /* \"#utility.yul\":546:548   */\n      0x1f\n        /* \"#utility.yul\":542:549   */\n      not\n        /* \"#utility.yul\":537:539   */\n      0x1f\n        /* \"#utility.yul\":529:535   */\n      dup4\n        /* \"#utility.yul\":525:540   */\n      add\n        /* \"#utility.yul\":521:550   */\n      and\n        /* \"#utility.yul\":510:519   */\n      dup6\n        /* \"#utility.yul\":506:551   */\n      add\n        /* \"#utility.yul\":502:556   */\n      add\n        /* \"#utility.yul\":494:556   */\n      swap3\n      pop\n      pop\n      pop\n        /* \"#utility.yul\":14:562   */\n      swap3\n      swap2\n      pop\n      pop\n      jump\t// out\n        /* \"#utility.yul\":567:740   */\n    tag_132:\n        /* \"#utility.yul\":635:655   */\n      dup1\n      calldataload\n      sub(shl(0xa0, 0x01), 0x01)\n        /* \"#utility.yul\":684:715   */\n      dup2\n      and\n        /* \"#utility.yul\":674:716   */\n      dup2\n      eq\n        /* \"#utility.yul\":664:734   */\n      tag_140\n      jumpi\n        /* \"#utility.yul\":730:731   */\n      0x00\n        /* \"#utility.yul\":727:728   */\n      dup1\n        /* \"#utility.yul\":720:732   */\n      revert\n        /* \"#utility.yul\":664:734   */\n    tag_140:\n        /* \"#utility.yul\":567:740   */\n      swap2\n      swap1\n      pop\n      jump\t// out\n        /* \"#utility.yul\":745:999   */\n    tag_22:\n        /* \"#utility.yul\":813:819   */\n      0x00\n        /* \"#utility.yul\":821:827   */\n      dup1\n        /* \"#utility.yul\":874:876   */\n      0x40\n        /* \"#utility.yul\":862:871   */\n      dup4\n        /* \"#utility.yul\":853:860   */\n      dup6\n        /* \"#utility.yul\":849:872   */\n      sub\n        /* \"#utility.yul\":845:877   */\n      slt\n        /* \"#utility.yul\":842:894   */\n      iszero\n      tag_142\n      jumpi\n        /* \"#utility.yul\":890:891   */\n      0x00\n        /* \"#utility.yul\":887:888   */\n      dup1\n        /* \"#utility.yul\":880:892   */\n      revert\n        /* \"#utility.yul\":842:894   */\n    tag_142:\n        /* \"#utility.yul\":913:942   */\n      tag_143\n        /* \"#utility.yul\":932:941   */\n      dup4\n        /* \"#utility.yul\":913:942   */\n      tag_132\n      jump\t// in\n    tag_143:\n        /* \"#utility.yul\":903:942   */\n      swap5\n        /* \"#utility.yul\":989:991   */\n      0x20\n        /* \"#utility.yul\":974:992   */\n      swap4\n      swap1\n      swap4\n      add\n        /* \"#utility.yul\":961:993   */\n      calldataload\n      swap4\n      pop\n      pop\n      pop\n        /* \"#utility.yul\":745:999   */\n      jump\t// out\n        /* \"#utility.yul\":1378:1706   */\n    tag_32:\n        /* \"#utility.yul\":1455:1461   */\n      0x00\n        /* \"#utility.yul\":1463:1469   */\n      dup1\n        /* \"#utility.yul\":1471:1477   */\n      0x00\n        /* \"#utility.yul\":1524:1526   */\n      0x60\n        /* \"#utility.yul\":1512:1521   */\n      dup5\n        /* \"#utility.yul\":1503:1510   */\n      dup7\n        /* \"#utility.yul\":1499:1522   */\n      sub\n        /* \"#utility.yul\":1495:1527   */\n      slt\n        /* \"#utility.yul\":1492:1544   */\n      iszero\n      tag_147\n      jumpi\n        /* \"#utility.yul\":1540:1541   */\n      0x00\n        /* \"#utility.yul\":1537:1538   */\n      dup1\n        /* \"#utility.yul\":1530:1542   */\n      revert\n        /* \"#utility.yul\":1492:1544   */\n    tag_147:\n        /* \"#utility.yul\":1563:1592   */\n      tag_148\n        /* \"#utility.yul\":1582:1591   */\n      dup5\n        /* \"#utility.yul\":1563:1592   */\n      tag_132\n      jump\t// in\n    tag_148:\n        /* \"#utility.yul\":1553:1592   */\n      swap3\n      pop\n        /* \"#utility.yul\":1611:1649   */\n      tag_149\n        /* \"#utility.yul\":1645:1647   */\n      0x20\n        /* \"#utility.yul\":1634:1643   */\n      dup6\n        /* \"#utility.yul\":1630:1648   */\n      add\n        /* \"#utility.yul\":1611:1649   */\n      tag_132\n      jump\t// in\n    tag_149:\n        /* \"#utility.yul\":1601:1649   */\n      swap2\n      pop\n        /* \"#utility.yul\":1696:1698   */\n      0x40\n        /* \"#utility.yul\":1685:1694   */\n      dup5\n        /* \"#utility.yul\":1681:1699   */\n      add\n        /* \"#utility.yul\":1668:1700   */\n      calldataload\n        /* \"#utility.yul\":1658:1700   */\n      swap1\n      pop\n        /* \"#utility.yul\":1378:1706   */\n      swap3\n      pop\n      swap3\n      pop\n      swap3\n      jump\t// out\n        /* \"#utility.yul\":1900:2080   */\n    tag_44:\n        /* \"#utility.yul\":1959:1965   */\n      0x00\n        /* \"#utility.yul\":2012:2014   */\n      0x20\n        /* \"#utility.yul\":2000:2009   */\n      dup3\n        /* \"#utility.yul\":1991:1998   */\n      dup5\n        /* \"#utility.yul\":1987:2010   */\n      sub\n        /* \"#utility.yul\":1983:2015   */\n      slt\n        /* \"#utility.yul\":1980:2032   */\n      iszero\n      tag_152\n      jumpi\n        /* \"#utility.yul\":2028:2029   */\n      0x00\n        /* \"#utility.yul\":2025:2026   */\n      dup1\n        /* \"#utility.yul\":2018:2030   */\n      revert\n        /* \"#utility.yul\":1980:2032   */\n    tag_152:\n      pop\n        /* \"#utility.yul\":2051:2074   */\n      calldataload\n      swap2\n        /* \"#utility.yul\":1900:2080   */\n      swap1\n      pop\n      jump\t// out\n        /* \"#utility.yul\":2085:2271   */\n    tag_48:\n        /* \"#utility.yul\":2144:2150   */\n      0x00\n        /* \"#utility.yul\":2197:2199   */\n      0x20\n        /* \"#utility.yul\":2185:2194   */\n      dup3\n        /* \"#utility.yul\":2176:2183   */\n      dup5\n        /* \"#utility.yul\":2172:2195   */\n      sub\n        /* \"#utility.yul\":2168:2200   */\n      slt\n        /* \"#utility.yul\":2165:2217   */\n      iszero\n      tag_154\n      jumpi\n        /* \"#utility.yul\":2213:2214   */\n      0x00\n        /* \"#utility.yul\":2210:2211   */\n      dup1\n        /* \"#utility.yul\":2203:2215   */\n      revert\n        /* \"#utility.yul\":2165:2217   */\n    tag_154:\n        /* \"#utility.yul\":2236:2265   */\n      tag_155\n        /* \"#utility.yul\":2255:2264   */\n      dup3\n        /* \"#utility.yul\":2236:2265   */\n      tag_132\n      jump\t// in\n    tag_155:\n        /* \"#utility.yul\":2226:2265   */\n      swap4\n        /* \"#utility.yul\":2085:2271   */\n      swap3\n      pop\n      pop\n      pop\n      jump\t// out\n        /* \"#utility.yul\":2484:2744   */\n    tag_64:\n        /* \"#utility.yul\":2552:2558   */\n      0x00\n        /* \"#utility.yul\":2560:2566   */\n      dup1\n        /* \"#utility.yul\":2613:2615   */\n      0x40\n        /* \"#utility.yul\":2601:2610   */\n      dup4\n        /* \"#utility.yul\":2592:2599   */\n      dup6\n        /* \"#utility.yul\":2588:2611   */\n      sub\n        /* \"#utility.yul\":2584:2616   */\n      slt\n        /* \"#utility.yul\":2581:2633   */\n      iszero\n      tag_158\n      jumpi\n        /* \"#utility.yul\":2629:2630   */\n      0x00\n        /* \"#utility.yul\":2626:2627   */\n      dup1\n        /* \"#utility.yul\":2619:2631   */\n      revert\n        /* \"#utility.yul\":2581:2633   */\n    tag_158:\n        /* \"#utility.yul\":2652:2681   */\n      tag_159\n        /* \"#utility.yul\":2671:2680   */\n      dup4\n        /* \"#utility.yul\":2652:2681   */\n      tag_132\n      jump\t// in\n    tag_159:\n        /* \"#utility.yul\":2642:2681   */\n      swap2\n      pop\n        /* \"#utility.yul\":2700:2738   */\n      tag_160\n        /* \"#utility.yul\":2734:2736   */\n      0x20\n        /* \"#utility.yul\":2723:2732   */\n      dup5\n        /* \"#utility.yul\":2719:2737   */\n      add\n        /* \"#utility.yul\":2700:2738   */\n      tag_132\n      jump\t// in\n    tag_160:\n        /* \"#utility.yul\":2690:2738   */\n      swap1\n      pop\n        /* \"#utility.yul\":2484:2744   */\n      swap3\n      pop\n      swap3\n      swap1\n      pop\n      jump\t// out\n        /* \"#utility.yul\":2749:3129   */\n    tag_71:\n        /* \"#utility.yul\":2828:2829   */\n      0x01\n        /* \"#utility.yul\":2824:2836   */\n      dup2\n      dup2\n      shr\n      swap1\n        /* \"#utility.yul\":2871:2883   */\n      dup3\n      and\n      dup1\n        /* \"#utility.yul\":2892:2953   */\n      tag_162\n      jumpi\n        /* \"#utility.yul\":2946:2950   */\n      0x7f\n        /* \"#utility.yul\":2938:2944   */\n      dup3\n        /* \"#utility.yul\":2934:2951   */\n      and\n        /* \"#utility.yul\":2924:2951   */\n      swap2\n      pop\n        /* \"#utility.yul\":2892:2953   */\n    tag_162:\n        /* \"#utility.yul\":2999:3001   */\n      0x20\n        /* \"#utility.yul\":2991:2997   */\n      dup3\n        /* \"#utility.yul\":2988:3002   */\n      lt\n        /* \"#utility.yul\":2968:2986   */\n      dup2\n        /* \"#utility.yul\":2965:3003   */\n      sub\n        /* \"#utility.yul\":2962:3123   */\n      tag_163\n      jumpi\n        /* \"#utility.yul\":3045:3055   */\n      0x4e487b71\n        /* \"#utility.yul\":3040:3043   */\n      0xe0\n        /* \"#utility.yul\":3036:3056   */\n      shl\n        /* \"#utility.yul\":3033:3034   */\n      0x00\n        /* \"#utility.yul\":3026:3057   */\n      mstore\n        /* \"#utility.yul\":3080:3084   */\n      0x22\n        /* \"#utility.yul\":3077:3078   */\n      0x04\n        /* \"#utility.yul\":3070:3085   */\n      mstore\n        /* \"#utility.yul\":3108:3112   */\n      0x24\n        /* \"#utility.yul\":3105:3106   */\n      0x00\n        /* \"#utility.yul\":3098:3113   */\n      revert\n        /* \"#utility.yul\":2962:3123   */\n    tag_163:\n      pop\n        /* \"#utility.yul\":2749:3129   */\n      swap2\n      swap1\n      pop\n      jump\t// out\n        /* \"#utility.yul\":3134:3473   */\n    tag_81:\n        /* \"#utility.yul\":3336:3338   */\n      0x20\n        /* \"#utility.yul\":3318:3339   */\n      dup1\n      dup3\n      mstore\n        /* \"#utility.yul\":3375:3377   */\n      0x0f\n        /* \"#utility.yul\":3355:3373   */\n      swap1\n      dup3\n      add\n        /* \"#utility.yul\":3348:3378   */\n      mstore\n      shl(0x88, 0x496e76616c69642061646472657373)\n        /* \"#utility.yul\":3409:3411   */\n      0x40\n        /* \"#utility.yul\":3394:3412   */\n      dup3\n      add\n        /* \"#utility.yul\":3387:3432   */\n      mstore\n        /* \"#utility.yul\":3464:3466   */\n      0x60\n        /* \"#utility.yul\":3449:3467   */\n      add\n      swap1\n        /* \"#utility.yul\":3134:3473   */\n      jump\t// out\n        /* \"#utility.yul\":3478:3822   */\n    tag_84:\n        /* \"#utility.yul\":3680:3682   */\n      0x20\n        /* \"#utility.yul\":3662:3683   */\n      dup1\n      dup3\n      mstore\n        /* \"#utility.yul\":3719:3721   */\n      0x14\n        /* \"#utility.yul\":3699:3717   */\n      swap1\n      dup3\n      add\n        /* \"#utility.yul\":3692:3722   */\n      mstore\n      shl(0x60, 0x496e73756666696369656e742062616c616e6365)\n        /* \"#utility.yul\":3753:3755   */\n      0x40\n        /* \"#utility.yul\":3738:3756   */\n      dup3\n      add\n        /* \"#utility.yul\":3731:3781   */\n      mstore\n        /* \"#utility.yul\":3813:3815   */\n      0x60\n        /* \"#utility.yul\":3798:3816   */\n      add\n      swap1\n        /* \"#utility.yul\":3478:3822   */\n      jump\t// out\n        /* \"#utility.yul\":4174:4301   */\n    tag_133:\n        /* \"#utility.yul\":4235:4245   */\n      0x4e487b71\n        /* \"#utility.yul\":4230:4233   */\n      0xe0\n        /* \"#utility.yul\":4226:4246   */\n      shl\n        /* \"#utility.yul\":4223:4224   */\n      0x00\n        /* \"#utility.yul\":4216:4247   */\n      mstore\n        /* \"#utility.yul\":4266:4270   */\n      0x11\n        /* \"#utility.yul\":4263:4264   */\n      0x04\n        /* \"#utility.yul\":4256:4271   */\n      mstore\n        /* \"#utility.yul\":4290:4294   */\n      0x24\n        /* \"#utility.yul\":4287:4288   */\n      0x00\n        /* \"#utility.yul\":4280:4295   */\n      revert\n        /* \"#utility.yul\":4306:4434   */\n    tag_89:\n        /* \"#utility.yul\":4373:4382   */\n      dup2\n      dup2\n      sub\n        /* \"#utility.yul\":4394:4405   */\n      dup2\n      dup2\n      gt\n        /* \"#utility.yul\":4391:4428   */\n      iszero\n      tag_76\n      jumpi\n        /* \"#utility.yul\":4408:4426   */\n      tag_76\n      tag_133\n      jump\t// in\n        /* \"#utility.yul\":4439:4564   */\n    tag_91:\n        /* \"#utility.yul\":4504:4513   */\n      dup1\n      dup3\n      add\n        /* \"#utility.yul\":4525:4535   */\n      dup1\n      dup3\n      gt\n        /* \"#utility.yul\":4522:4558   */\n      iszero\n      tag_76\n      jumpi\n        /* \"#utility.yul\":4538:4556   */\n      tag_76\n      tag_133\n      jump\t// in\n        /* \"#utility.yul\":4569:4901   */\n    tag_97:\n        /* \"#utility.yul\":4771:4773   */\n      0x20\n        /* \"#utility.yul\":4753:4774   */\n      dup1\n      dup3\n      mstore\n        /* \"#utility.yul\":4810:4811   */\n      0x09\n        /* \"#utility.yul\":4790:4808   */\n      swap1\n      dup3\n      add\n        /* \"#utility.yul\":4783:4812   */\n      mstore\n      shl(0xb9, 0x2737ba1037bbb732b9)\n        /* \"#utility.yul\":4843:4845   */\n      0x40\n        /* \"#utility.yul\":4828:4846   */\n      dup3\n      add\n        /* \"#utility.yul\":4821:4860   */\n      mstore\n        /* \"#utility.yul\":4892:4894   */\n      0x60\n        /* \"#utility.yul\":4877:4895   */\n      add\n      swap1\n        /* \"#utility.yul\":4569:4901   */\n      jump\t// out\n    stop\n    data_ada389e1fc24a8587c776340efb91b36e675792ab631816100d55df0b5cf3cbc ddf252ad1be2c89b69c2b068fc378daa952ba7f163c4a11628f55a4df523b3ef\n\n    auxdata: 0xa26469706673582212207882909b8b8338917ca953fbaa7a25b63793f35b20c4d13761645dcbcdf089cd64736f6c63430008140033\n}\n",
				"bytecode": {
					"linkReferences": {},
					"object": "60806040526002805460ff191660121790553480156200001d575f80fd5b5060405162000f5838038062000f5883398101604081905262000040916200023b565b5f6200004d848262000335565b5060016200005c838262000335565b50600480546001600160a01b031916339081179091556002546200009d91906200008b9060ff16600a6200050c565b62000097908462000523565b620000a6565b50505062000553565b6001600160a01b038216620000f35760405162461bcd60e51b815260206004820152600f60248201526e496e76616c6964206164647265737360881b604482015260640160405180910390fd5b8060035f8282546200010691906200053d565b90915550506001600160a01b0382165f9081526005602052604081208054839290620001349084906200053d565b90915550506040518181526001600160a01b038316905f907fddf252ad1be2c89b69c2b068fc378daa952ba7f163c4a11628f55a4df523b3ef9060200160405180910390a35050565b634e487b7160e01b5f52604160045260245ffd5b5f82601f830112620001a1575f80fd5b81516001600160401b0380821115620001be57620001be6200017d565b604051601f8301601f19908116603f01168101908282118183101715620001e957620001e96200017d565b8160405283815260209250868385880101111562000205575f80fd5b5f91505b8382101562000228578582018301518183018401529082019062000209565b5f93810190920192909252949350505050565b5f805f606084860312156200024e575f80fd5b83516001600160401b038082111562000265575f80fd5b620002738783880162000191565b9450602086015191508082111562000289575f80fd5b50620002988682870162000191565b925050604084015190509250925092565b600181811c90821680620002be57607f821691505b602082108103620002dd57634e487b7160e01b5f52602260045260245ffd5b50919050565b601f82111562000330575f81815260208120601f850160051c810160208610156200030b5750805b601f850160051c820191505b818110156200032c5782815560010162000317565b5050505b505050565b81516001600160401b038111156200035157620003516200017d565b6200036981620003628454620002a9565b84620002e3565b602080601f8311600181146200039f575f8415620003875750858301515b5f19600386901b1c1916600185901b1785556200032c565b5f85815260208120601f198616915b82811015620003cf57888601518255948401946001909101908401620003ae565b5085821015620003ed57878501515f19600388901b60f8161c191681555b5050505050600190811b01905550565b634e487b7160e01b5f52601160045260245ffd5b600181815b808511156200045157815f1904821115620004355762000435620003fd565b808516156200044357918102915b93841c939080029062000416565b509250929050565b5f82620004695750600162000506565b816200047757505f62000506565b81600181146200049057600281146200049b57620004bb565b600191505062000506565b60ff841115620004af57620004af620003fd565b50506001821b62000506565b5060208310610133831016604e8410600b8410161715620004e0575081810a62000506565b620004ec838362000411565b805f1904821115620005025762000502620003fd565b0290505b92915050565b5f6200051c60ff84168362000459565b9392505050565b8082028115828204841417620005065762000506620003fd565b80820180821115620005065762000506620003fd565b6109f780620005615f395ff3fe608060405234801561000f575f80fd5b50600436106100ad575f3560e01c806306fdde03146100b1578063095ea7b3146100cf57806318160ddd146100f257806323b872dd14610109578063313ce5671461011c57806340c10f191461013b57806342966c681461015057806370a08231146101635780638da5cb5b1461018257806395d89b41146101ad578063a9059cbb146101b5578063dd62ed3e146101c8578063f2fde38b146101f2575b5f80fd5b6100b9610205565b6040516100c69190610786565b60405180910390f35b6100e26100dd3660046107ec565b610290565b60405190151581526020016100c6565b6100fb60035481565b6040519081526020016100c6565b6100e2610117366004610814565b6102fc565b6002546101299060ff1681565b60405160ff90911681526020016100c6565b61014e6101493660046107ec565b61049f565b005b61014e61015e36600461084d565b6104d7565b6100fb610171366004610864565b60056020525f908152604090205481565b600454610195906001600160a01b031681565b6040516001600160a01b0390911681526020016100c6565b6100b9610567565b6100e26101c33660046107ec565b610574565b6100fb6101d6366004610884565b600660209081525f928352604080842090915290825290205481565b61014e610200366004610864565b610642565b5f8054610211906108b5565b80601f016020809104026020016040519081016040528092919081815260200182805461023d906108b5565b80156102885780601f1061025f57610100808354040283529160200191610288565b820191905f5260205f20905b81548152906001019060200180831161026b57829003601f168201915b505050505081565b335f8181526006602090815260408083206001600160a01b038716808552925280832085905551919290917f8c5be1e5ebec7d5bd14f71427d1e84f3dd0314c0f7b2291e5b200ac8c7c3b925906102ea9086815260200190565b60405180910390a35060015b92915050565b5f6001600160a01b03831661032c5760405162461bcd60e51b8152600401610323906108ed565b60405180910390fd5b6001600160a01b0384165f908152600560205260409020548211156103635760405162461bcd60e51b815260040161032390610916565b6001600160a01b0384165f9081526006602090815260408083203384529091529020548211156103ca5760405162461bcd60e51b8152602060048201526012602482015271105b1b1bddd85b98d948195e18d95959195960721b6044820152606401610323565b6001600160a01b0384165f90815260056020526040812080548492906103f1908490610958565b90915550506001600160a01b0383165f908152600560205260408120805484929061041d90849061096b565b90915550506001600160a01b0384165f90815260066020908152604080832033845290915281208054849290610454908490610958565b92505081905550826001600160a01b0316846001600160a01b03165f805160206109a28339815191528460405161048d91815260200190565b60405180910390a35060019392505050565b6004546001600160a01b031633146104c95760405162461bcd60e51b81526004016103239061097e565b6104d382826106ed565b5050565b335f908152600560205260409020548111156105055760405162461bcd60e51b815260040161032390610916565b335f9081526005602052604081208054839290610523908490610958565b925050819055508060035f82825461053b9190610958565b90915550506040518181525f9033905f805160206109a28339815191529060200160405180910390a350565b60018054610211906108b5565b5f6001600160a01b03831661059b5760405162461bcd60e51b8152600401610323906108ed565b335f908152600560205260409020548211156105c95760405162461bcd60e51b815260040161032390610916565b335f90815260056020526040812080548492906105e7908490610958565b90915550506001600160a01b0383165f908152600560205260408120805484929061061390849061096b565b90915550506040518281526001600160a01b0384169033905f805160206109a2833981519152906020016102ea565b6004546001600160a01b0316331461066c5760405162461bcd60e51b81526004016103239061097e565b6001600160a01b0381166106925760405162461bcd60e51b8152600401610323906108ed565b6004546040516001600160a01b038084169216907f8be0079c531659141344cd1fd0a4f28419497f9722a3daafe3b4186f6b6457e0905f90a3600480546001600160a01b0319166001600160a01b0392909216919091179055565b6001600160a01b0382166107135760405162461bcd60e51b8152600401610323906108ed565b8060035f828254610724919061096b565b90915550506001600160a01b0382165f908152600560205260408120805483929061075090849061096b565b90915550506040518181526001600160a01b038316905f905f805160206109a28339815191529060200160405180910390a35050565b5f6020808352835180828501525f5b818110156107b157858101830151858201604001528201610795565b505f604082860101526040601f19601f8301168501019250505092915050565b80356001600160a01b03811681146107e7575f80fd5b919050565b5f80604083850312156107fd575f80fd5b610806836107d1565b946020939093013593505050565b5f805f60608486031215610826575f80fd5b61082f846107d1565b925061083d602085016107d1565b9150604084013590509250925092565b5f6020828403121561085d575f80fd5b5035919050565b5f60208284031215610874575f80fd5b61087d826107d1565b9392505050565b5f8060408385031215610895575f80fd5b61089e836107d1565b91506108ac602084016107d1565b90509250929050565b600181811c908216806108c957607f821691505b6020821081036108e757634e487b7160e01b5f52602260045260245ffd5b50919050565b6020808252600f908201526e496e76616c6964206164647265737360881b604082015260600190565b602080825260149082015273496e73756666696369656e742062616c616e636560601b604082015260600190565b634e487b7160e01b5f52601160045260245ffd5b818103818111156102f6576102f6610944565b808201808211156102f6576102f6610944565b6020808252600990820152682737ba1037bbb732b960b91b60408201526060019056feddf252ad1be2c89b69c2b068fc378daa952ba7f163c4a11628f55a4df523b3efa26469706673582212207882909b8b8338917ca953fbaa7a25b63793f35b20c4d13761645dcbcdf089cd64736f6c63430008140033",
					"opcodes": "PUSH1 0x80 PUSH1 0x40 MSTORE PUSH1 0x2 DUP1 SLOAD PUSH1 0xFF NOT AND PUSH1 0x12 OR SWAP1 SSTORE CALLVALUE DUP1 ISZERO PUSH3 0x1D JUMPI PUSH0 DUP1 REVERT JUMPDEST POP PUSH1 0x40 MLOAD PUSH3 0xF58 CODESIZE SUB DUP1 PUSH3 0xF58 DUP4 CODECOPY DUP2 ADD PUSH1 0x40 DUP2 SWAP1 MSTORE PUSH3 0x40 SWAP2 PUSH3 0x23B JUMP JUMPDEST PUSH0 PUSH3 0x4D DUP5 DUP3 PUSH3 0x335 JUMP JUMPDEST POP PUSH1 0x1 PUSH3 0x5C DUP4 DUP3 PUSH3 0x335 JUMP JUMPDEST POP PUSH1 0x4 DUP1 SLOAD PUSH1 0x1 PUSH1 0x1 PUSH1 0xA0 SHL SUB NOT AND CALLER SWAP1 DUP2 OR SWAP1 SWAP2 SSTORE PUSH1 0x2 SLOAD PUSH3 0x9D SWAP2 SWAP1 PUSH3 0x8B SWAP1 PUSH1 0xFF AND PUSH1 0xA PUSH3 0x50C JUMP JUMPDEST PUSH3 0x97 SWAP1 DUP5 PUSH3 0x523 JUMP JUMPDEST PUSH3 0xA6 JUMP JUMPDEST POP POP POP PUSH3 0x553 JUMP JUMPDEST PUSH1 0x1 PUSH1 0x1 PUSH1 0xA0 SHL SUB DUP3 AND PUSH3 0xF3 JUMPI PUSH1 0x40 MLOAD PUSH3 0x461BCD PUSH1 0xE5 SHL DUP2 MSTORE PUSH1 0x20 PUSH1 0x4 DUP3 ADD MSTORE PUSH1 0xF PUSH1 0x24 DUP3 ADD MSTORE PUSH15 0x496E76616C69642061646472657373 PUSH1 0x88 SHL PUSH1 0x44 DUP3 ADD MSTORE PUSH1 0x64 ADD PUSH1 0x40 MLOAD DUP1 SWAP2 SUB SWAP1 REVERT JUMPDEST DUP1 PUSH1 0x3 PUSH0 DUP3 DUP3 SLOAD PUSH3 0x106 SWAP2 SWAP1 PUSH3 0x53D JUMP JUMPDEST SWAP1 SWAP2 SSTORE POP POP PUSH1 0x1 PUSH1 0x1 PUSH1 0xA0 SHL SUB DUP3 AND PUSH0 SWAP1 DUP2 MSTORE PUSH1 0x5 PUSH1 0x20 MSTORE PUSH1 0x40 DUP2 KECCAK256 DUP1 SLOAD DUP4 SWAP3 SWAP1 PUSH3 0x134 SWAP1 DUP5 SWAP1 PUSH3 0x53D JUMP JUMPDEST SWAP1 SWAP2 SSTORE POP POP PUSH1 0x40 MLOAD DUP2 DUP2 MSTORE PUSH1 0x1 PUSH1 0x1 PUSH1 0xA0 SHL SUB DUP4 AND SWAP1 PUSH0 SWAP1 PUSH32 0xDDF252AD1BE2C89B69C2B068FC378DAA952BA7F163C4A11628F55A4DF523B3EF SWAP1 PUSH1 0x20 ADD PUSH1 0x40 MLOAD DUP1 SWAP2 SUB SWAP1 LOG3 POP POP JUMP JUMPDEST PUSH4 0x4E487B71 PUSH1 0xE0 SHL PUSH0 MSTORE PUSH1 0x41 PUSH1 0x4 MSTORE PUSH1 0x24 PUSH0 REVERT JUMPDEST PUSH0 DUP3 PUSH1 0x1F DUP4 ADD SLT PUSH3 0x1A1 JUMPI PUSH0 DUP1 REVERT JUMPDEST DUP2 MLOAD PUSH1 0x1 PUSH1 0x1 PUSH1 0x40 SHL SUB DUP1 DUP3 GT ISZERO PUSH3 0x1BE JUMPI PUSH3 0x1BE PUSH3 0x17D JUMP JUMPDEST PUSH1 0x40 MLOAD PUSH1 0x1F DUP4 ADD PUSH1 0x1F NOT SWAP1 DUP2 AND PUSH1 0x3F ADD AND DUP2 ADD SWAP1 DUP3 DUP3 GT DUP2 DUP4 LT OR ISZERO PUSH3 0x1E9 JUMPI PUSH3 0x1E9 PUSH3 0x17D JUMP JUMPDEST DUP2 PUSH1 0x40 MSTORE DUP4 DUP2 MSTORE PUSH1 0x20 SWAP3 POP DUP7 DUP4 DUP6 DUP9 ADD ADD GT ISZERO PUSH3 0x205 JUMPI PUSH0 DUP1 REVERT JUMPDEST PUSH0 SWAP2 POP JUMPDEST DUP4 DUP3 LT ISZERO PUSH3 0x228 JUMPI DUP6 DUP3 ADD DUP4 ADD MLOAD DUP2 DUP4 ADD DUP5 ADD MSTORE SWAP1 DUP3 ADD SWAP1 PUSH3 0x209 JUMP JUMPDEST PUSH0 SWAP4 DUP2 ADD SWAP1 SWAP3 ADD SWAP3 SWAP1 SWAP3 MSTORE SWAP5 SWAP4 POP POP POP POP JUMP JUMPDEST PUSH0 DUP1 PUSH0 PUSH1 0x60 DUP5 DUP7 SUB SLT ISZERO PUSH3 0x24E JUMPI PUSH0 DUP1 REVERT JUMPDEST DUP4 MLOAD PUSH1 0x1 PUSH1 0x1 PUSH1 0x40 SHL SUB DUP1 DUP3 GT ISZERO PUSH3 0x265 JUMPI PUSH0 DUP1 REVERT JUMPDEST PUSH3 0x273 DUP8 DUP4 DUP9 ADD PUSH3 0x191 JUMP JUMPDEST SWAP5 POP PUSH1 0x20 DUP7 ADD MLOAD SWAP2 POP DUP1 DUP3 GT ISZERO PUSH3 0x289 JUMPI PUSH0 DUP1 REVERT JUMPDEST POP PUSH3 0x298 DUP7 DUP3 DUP8 ADD PUSH3 0x191 JUMP JUMPDEST SWAP3 POP POP PUSH1 0x40 DUP5 ADD MLOAD SWAP1 POP SWAP3 POP SWAP3 POP SWAP3 JUMP JUMPDEST PUSH1 0x1 DUP2 DUP2 SHR SWAP1 DUP3 AND DUP1 PUSH3 0x2BE JUMPI PUSH1 0x7F DUP3 AND SWAP2 POP JUMPDEST PUSH1 0x20 DUP3 LT DUP2 SUB PUSH3 0x2DD JUMPI PUSH4 0x4E487B71 PUSH1 0xE0 SHL PUSH0 MSTORE PUSH1 0x22 PUSH1 0x4 MSTORE PUSH1 0x24 PUSH0 REVERT JUMPDEST POP SWAP2 SWAP1 POP JUMP JUMPDEST PUSH1 0x1F DUP3 GT ISZERO PUSH3 0x330 JUMPI PUSH0 DUP2 DUP2 MSTORE PUSH1 0x20 DUP2 KECCAK256 PUSH1 0x1F DUP6 ADD PUSH1 0x5 SHR DUP2 ADD PUSH1 0x20 DUP7 LT ISZERO PUSH3 0x30B JUMPI POP DUP1 JUMPDEST PUSH1 0x1F DUP6 ADD PUSH1 0x5 SHR DUP3 ADD SWAP2 POP JUMPDEST DUP2 DUP2 LT ISZERO PUSH3 0x32C JUMPI DUP3 DUP2 SSTORE PUSH1 0x1 ADD PUSH3 0x317 JUMP JUMPDEST POP POP POP JUMPDEST POP POP POP JUMP JUMPDEST DUP2 MLOAD PUSH1 0x1 PUSH1 0x1 PUSH1 0x40 SHL SUB DUP2 GT ISZERO PUSH3 0x351 JUMPI PUSH3 0x351 PUSH3 0x17D JUMP JUMPDEST PUSH3 0x369 DUP2 PUSH3 0x362 DUP5 SLOAD PUSH3 0x2A9 JUMP JUMPDEST DUP5 PUSH3 0x2E3 JUMP JUMPDEST PUSH1 0x20 DUP1 PUSH1 0x1F DUP4 GT PUSH1 0x1 DUP2 EQ PUSH3 0x39F JUMPI PUSH0 DUP5 ISZERO PUSH3 0x387 JUMPI POP DUP6 DUP4 ADD MLOAD JUMPDEST PUSH0 NOT PUSH1 0x3 DUP7 SWAP1 SHL SHR NOT AND PUSH1 0x1 DUP6 SWAP1 SHL OR DUP6 SSTORE PUSH3 0x32C JUMP JUMPDEST PUSH0 DUP6 DUP2 MSTORE PUSH1 0x20 DUP2 KECCAK256 PUSH1 0x1F NOT DUP7 AND SWAP2 JUMPDEST DUP3 DUP2 LT ISZERO PUSH3 0x3CF JUMPI DUP9 DUP7 ADD MLOAD DUP3 SSTORE SWAP5 DUP5 ADD SWAP5 PUSH1 0x1 SWAP1 SWAP2 ADD SWAP1 DUP5 ADD PUSH3 0x3AE JUMP JUMPDEST POP DUP6 DUP3 LT ISZERO PUSH3 0x3ED JUMPI DUP8 DUP6 ADD MLOAD PUSH0 NOT PUSH1 0x3 DUP9 SWAP1 SHL PUSH1 0xF8 AND SHR NOT AND DUP2 SSTORE JUMPDEST POP POP POP POP POP PUSH1 0x1 SWAP1 DUP2 SHL ADD SWAP1 SSTORE POP JUMP JUMPDEST PUSH4 0x4E487B71 PUSH1 0xE0 SHL PUSH0 MSTORE PUSH1 0x11 PUSH1 0x4 MSTORE PUSH1 0x24 PUSH0 REVERT JUMPDEST PUSH1 0x1 DUP2 DUP2 JUMPDEST DUP1 DUP6 GT ISZERO PUSH3 0x451 JUMPI DUP2 PUSH0 NOT DIV DUP3 GT ISZERO PUSH3 0x435 JUMPI PUSH3 0x435 PUSH3 0x3FD JUMP JUMPDEST DUP1 DUP6 AND ISZERO PUSH3 0x443 JUMPI SWAP2 DUP2 MUL SWAP2 JUMPDEST SWAP4 DUP5 SHR SWAP4 SWAP1 DUP1 MUL SWAP1 PUSH3 0x416 JUMP JUMPDEST POP SWAP3 POP SWAP3 SWAP1 POP JUMP JUMPDEST PUSH0 DUP3 PUSH3 0x469 JUMPI POP PUSH1 0x1 PUSH3 0x506 JUMP JUMPDEST DUP2 PUSH3 0x477 JUMPI POP PUSH0 PUSH3 0x506 JUMP JUMPDEST DUP2 PUSH1 0x1 DUP2 EQ PUSH3 0x490 JUMPI PUSH1 0x2 DUP2 EQ PUSH3 0x49B JUMPI PUSH3 0x4BB JUMP JUMPDEST PUSH1 0x1 SWAP2 POP POP PUSH3 0x506 JUMP JUMPDEST PUSH1 0xFF DUP5 GT ISZERO PUSH3 0x4AF JUMPI PUSH3 0x4AF PUSH3 0x3FD JUMP JUMPDEST POP POP PUSH1 0x1 DUP3 SHL PUSH3 0x506 JUMP JUMPDEST POP PUSH1 0x20 DUP4 LT PUSH2 0x133 DUP4 LT AND PUSH1 0x4E DUP5 LT PUSH1 0xB DUP5 LT AND OR ISZERO PUSH3 0x4E0 JUMPI POP DUP2 DUP2 EXP PUSH3 0x506 JUMP JUMPDEST PUSH3 0x4EC DUP4 DUP4 PUSH3 0x411 JUMP JUMPDEST DUP1 PUSH0 NOT DIV DUP3 GT ISZERO PUSH3 0x502 JUMPI PUSH3 0x502 PUSH3 0x3FD JUMP JUMPDEST MUL SWAP1 POP JUMPDEST SWAP3 SWAP2 POP POP JUMP JUMPDEST PUSH0 PUSH3 0x51C PUSH1 0xFF DUP5 AND DUP4 PUSH3 0x459 JUMP JUMPDEST SWAP4 SWAP3 POP POP POP JUMP JUMPDEST DUP1 DUP3 MUL DUP2 ISZERO DUP3 DUP3 DIV DUP5 EQ OR PUSH3 0x506 JUMPI PUSH3 0x506 PUSH3 0x3FD JUMP JUMPDEST DUP1 DUP3 ADD DUP1 DUP3 GT ISZERO PUSH3 0x506 JUMPI PUSH3 0x506 PUSH3 0x3FD JUMP JUMPDEST PUSH2 0x9F7 DUP1 PUSH3 0x561 PUSH0 CODECOPY PUSH0 RETURN INVALID PUSH1 0x80 PUSH1 0x40 MSTORE CALLVALUE DUP1 ISZERO PUSH2 0xF JUMPI PUSH0 DUP1 REVERT JUMPDEST POP PUSH1 0x4 CALLDATASIZE LT PUSH2 0xAD JUMPI PUSH0 CALLDATALOAD PUSH1 0xE0 SHR DUP1 PUSH4 0x6FDDE03 EQ PUSH2 0xB1 JUMPI DUP1 PUSH4 0x95EA7B3 EQ PUSH2 0xCF JUMPI DUP1 PUSH4 0x18160DDD EQ PUSH2 0xF2 JUMPI DUP1 PUSH4 0x23B872DD EQ PUSH2 0x109 JUMPI DUP1 PUSH4 0x313CE567 EQ PUSH2 0x11C JUMPI DUP1 PUSH4 0x40C10F19 EQ PUSH2 0x13B JUMPI DUP1 PUSH4 0x42966C68 EQ PUSH2 0x150 JUMPI DUP1 PUSH4 0x70A08231 EQ PUSH2 0x163 JUMPI DUP1 PUSH4 0x8DA5CB5B EQ PUSH2 0x182 JUMPI DUP1 PUSH4 0x95D89B41 EQ PUSH2 0x1AD JUMPI DUP1 PUSH4 0xA9059CBB EQ PUSH2 0x1B5 JUMPI DUP1 PUSH4 0xDD62ED3E EQ PUSH2 0x1C8 JUMPI DUP1 PUSH4 0xF2FDE38B EQ PUSH2 0x1F2 JUMPI JUMPDEST PUSH0 DUP1 REVERT JUMPDEST PUSH2 0xB9 PUSH2 0x205 JUMP JUMPDEST PUSH1 0x40 MLOAD PUSH2 0xC6 SWAP2 SWAP1 PUSH2 0x786 JUMP JUMPDEST PUSH1 0x40 MLOAD DUP1 SWAP2 SUB SWAP1 RETURN JUMPDEST PUSH2 0xE2 PUSH2 0xDD CALLDATASIZE PUSH1 0x4 PUSH2 0x7EC JUMP JUMPDEST PUSH2 0x290 JUMP JUMPDEST PUSH1 0x40 MLOAD SWAP1 ISZERO ISZERO DUP2 MSTORE PUSH1 0x20 ADD PUSH2 0xC6 JUMP JUMPDEST PUSH2 0xFB PUSH1 0x3 SLOAD DUP2 JUMP JUMPDEST PUSH1 0x40 MLOAD SWAP1 DUP2 MSTORE PUSH1 0x20 ADD PUSH2 0xC6 JUMP JUMPDEST PUSH2 0xE2 PUSH2 0x117 CALLDATASIZE PUSH1 0x4 PUSH2 0x814 JUMP JUMPDEST PUSH2 0x2FC JUMP JUMPDEST PUSH1 0x2 SLOAD PUSH2 0x129 SWAP1 PUSH1 0xFF AND DUP2 JUMP JUMPDEST PUSH1 0x40 MLOAD PUSH1 0xFF SWAP1 SWAP2 AND DUP2 MSTORE PUSH1 0x20 ADD PUSH2 0xC6 JUMP JUMPDEST PUSH2 0x14E PUSH2 0x149 CALLDATASIZE PUSH1 0x4 PUSH2 0x7EC JUMP JUMPDEST PUSH2 0x49F JUMP JUMPDEST STOP JUMPDEST PUSH2 0x14E PUSH2 0x15E CALLDATASIZE PUSH1 0x4 PUSH2 0x84D JUMP JUMPDEST PUSH2 0x4D7 JUMP JUMPDEST PUSH2 0xFB PUSH2 0x171 CALLDATASIZE PUSH1 0x4 PUSH2 0x864 JUMP JUMPDEST PUSH1 0x5 PUSH1 0x20 MSTORE PUSH0 SWAP1 DUP2 MSTORE PUSH1 0x40 SWAP1 KECCAK256 SLOAD DUP2 JUMP JUMPDEST PUSH1 0x4 SLOAD PUSH2 0x195 SWAP1 PUSH1 0x1 PUSH1 0x1 PUSH1 0xA0 SHL SUB AND DUP2 JUMP JUMPDEST PUSH1 0x40 MLOAD PUSH1 0x1 PUSH1 0x1 PUSH1 0xA0 SHL SUB SWAP1 SWAP2 AND DUP2 MSTORE PUSH1 0x20 ADD PUSH2 0xC6 JUMP JUMPDEST PUSH2 0xB9 PUSH2 0x567 JUMP JUMPDEST PUSH2 0xE2 PUSH2 0x1C3 CALLDATASIZE PUSH1 0x4 PUSH2 0x7EC JUMP JUMPDEST PUSH2 0x574 JUMP JUMPDEST PUSH2 0xFB PUSH2 0x1D6 CALLDATASIZE PUSH1 0x4 PUSH2 0x884 JUMP JUMPDEST PUSH1 0x6 PUSH1 0x20 SWAP1 DUP2 MSTORE PUSH0 SWAP3 DUP4 MSTORE PUSH1 0x40 DUP1 DUP5 KECCAK256 SWAP1 SWAP2 MSTORE SWAP1 DUP3 MSTORE SWAP1 KECCAK256 SLOAD DUP2 JUMP JUMPDEST PUSH2 0x14E PUSH2 0x200 CALLDATASIZE PUSH1 0x4 PUSH2 0x864 JUMP JUMPDEST PUSH2 0x642 JUMP JUMPDEST PUSH0 DUP1 SLOAD PUSH2 0x211 SWAP1 PUSH2 0x8B5 JUMP JUMPDEST DUP1 PUSH1 0x1F ADD PUSH1 0x20 DUP1 SWAP2 DIV MUL PUSH1 0x20 ADD PUSH1 0x40 MLOAD SWAP1 DUP2 ADD PUSH1 0x40 MSTORE DUP1 SWAP3 SWAP2 SWAP1 DUP2 DUP2 MSTORE PUSH1 0x20 ADD DUP3 DUP1 SLOAD PUSH2 0x23D SWAP1 PUSH2 0x8B5 JUMP JUMPDEST DUP1 ISZERO PUSH2 0x288 JUMPI DUP1 PUSH1 0x1F LT PUSH2 0x25F JUMPI PUSH2 0x100 DUP1 DUP4 SLOAD DIV MUL DUP4 MSTORE SWAP2 PUSH1 0x20 ADD SWAP2 PUSH2 0x288 JUMP JUMPDEST DUP3 ADD SWAP2 SWAP1 PUSH0 MSTORE PUSH1 0x20 PUSH0 KECCAK256 SWAP1 JUMPDEST DUP2 SLOAD DUP2 MSTORE SWAP1 PUSH1 0x1 ADD SWAP1 PUSH1 0x20 ADD DUP1 DUP4 GT PUSH2 0x26B JUMPI DUP3 SWAP1 SUB PUSH1 0x1F AND DUP3 ADD SWAP2 JUMPDEST POP POP POP POP POP DUP2 JUMP JUMPDEST CALLER PUSH0 DUP2 DUP2 MSTORE PUSH1 0x6 PUSH1 0x20 SWAP1 DUP2 MSTORE PUSH1 0x40 DUP1 DUP4 KECCAK256 PUSH1 0x1 PUSH1 0x1 PUSH1 0xA0 SHL SUB DUP8 AND DUP1 DUP6 MSTORE SWAP3 MSTORE DUP1 DUP4 KECCAK256 DUP6 SWAP1 SSTORE MLOAD SWAP2 SWAP3 SWAP1 SWAP2 PUSH32 0x8C5BE1E5EBEC7D5BD14F71427D1E84F3DD0314C0F7B2291E5B200AC8C7C3B925 SWAP1 PUSH2 0x2EA SWAP1 DUP7 DUP2 MSTORE PUSH1 0x20 ADD SWAP1 JUMP JUMPDEST PUSH1 0x40 MLOAD DUP1 SWAP2 SUB SWAP1 LOG3 POP PUSH1 0x1 JUMPDEST SWAP3 SWAP2 POP POP JUMP JUMPDEST PUSH0 PUSH1 0x1 PUSH1 0x1 PUSH1 0xA0 SHL SUB DUP4 AND PUSH2 0x32C JUMPI PUSH1 0x40 MLOAD PUSH3 0x461BCD PUSH1 0xE5 SHL DUP2 MSTORE PUSH1 0x4 ADD PUSH2 0x323 SWAP1 PUSH2 0x8ED JUMP JUMPDEST PUSH1 0x40 MLOAD DUP1 SWAP2 SUB SWAP1 REVERT JUMPDEST PUSH1 0x1 PUSH1 0x1 PUSH1 0xA0 SHL SUB DUP5 AND PUSH0 SWAP1 DUP2 MSTORE PUSH1 0x5 PUSH1 0x20 MSTORE PUSH1 0x40 SWAP1 KECCAK256 SLOAD DUP3 GT ISZERO PUSH2 0x363 JUMPI PUSH1 0x40 MLOAD PUSH3 0x461BCD PUSH1 0xE5 SHL DUP2 MSTORE PUSH1 0x4 ADD PUSH2 0x323 SWAP1 PUSH2 0x916 JUMP JUMPDEST PUSH1 0x1 PUSH1 0x1 PUSH1 0xA0 SHL SUB DUP5 AND PUSH0 SWAP1 DUP2 MSTORE PUSH1 0x6 PUSH1 0x20 SWAP1 DUP2 MSTORE PUSH1 0x40 DUP1 DUP4 KECCAK256 CALLER DUP5 MSTORE SWAP1 SWAP2 MSTORE SWAP1 KECCAK256 SLOAD DUP3 GT ISZERO PUSH2 0x3CA JUMPI PUSH1 0x40 MLOAD PUSH3 0x461BCD PUSH1 0xE5 SHL DUP2 MSTORE PUSH1 0x20 PUSH1 0x4 DUP3 ADD MSTORE PUSH1 0x12 PUSH1 0x24 DUP3 ADD MSTORE PUSH18 0x105B1B1BDDD85B98D948195E18D959591959 PUSH1 0x72 SHL PUSH1 0x44 DUP3 ADD MSTORE PUSH1 0x64 ADD PUSH2 0x323 JUMP JUMPDEST PUSH1 0x1 PUSH1 0x1 PUSH1 0xA0 SHL SUB DUP5 AND PUSH0 SWAP1 DUP2 MSTORE PUSH1 0x5 PUSH1 0x20 MSTORE PUSH1 0x40 DUP2 KECCAK256 DUP1 SLOAD DUP5 SWAP3 SWAP1 PUSH2 0x3F1 SWAP1 DUP5 SWAP1 PUSH2 0x958 JUMP JUMPDEST SWAP1 SWAP2 SSTORE POP POP PUSH1 0x1 PUSH1 0x1 PUSH1 0xA0 SHL SUB DUP4 AND PUSH0 SWAP1 DUP2 MSTORE PUSH1 0x5 PUSH1 0x20 MSTORE PUSH1 0x40 DUP2 KECCAK256 DUP1 SLOAD DUP5 SWAP3 SWAP1 PUSH2 0x41D SWAP1 DUP5 SWAP1 PUSH2 0x96B JUMP JUMPDEST SWAP1 SWAP2 SSTORE POP POP PUSH1 0x1 PUSH1 0x1 PUSH1 0xA0 SHL SUB DUP5 AND PUSH0 SWAP1 DUP2 MSTORE PUSH1 0x6 PUSH1 0x20 SWAP1 DUP2 MSTORE PUSH1 0x40 DUP1 DUP4 KECCAK256 CALLER DUP5 MSTORE SWAP1 SWAP2 MSTORE DUP2 KECCAK256 DUP1 SLOAD DUP5 SWAP3 SWAP1 PUSH2 0x454 SWAP1 DUP5 SWAP1 PUSH2 0x958 JUMP JUMPDEST SWAP3 POP POP DUP2 SWAP1 SSTORE POP DUP3 PUSH1 0x1 PUSH1 0x1 PUSH1 0xA0 SHL SUB AND DUP5 PUSH1 0x1 PUSH1 0x1 PUSH1 0xA0 SHL SUB AND PUSH0 DUP1 MLOAD PUSH1 0x20 PUSH2 0x9A2 DUP4 CODECOPY DUP2 MLOAD SWAP2 MSTORE DUP5 PUSH1 0x40 MLOAD PUSH2 0x48D SWAP2 DUP2 MSTORE PUSH1 0x20 ADD SWAP1 JUMP JUMPDEST PUSH1 0x40 MLOAD DUP1 SWAP2 SUB SWAP1 LOG3 POP PUSH1 0x1 SWAP4 SWAP3 POP POP POP JUMP JUMPDEST PUSH1 0x4 SLOAD PUSH1 0x1 PUSH1 0x1 PUSH1 0xA0 SHL SUB AND CALLER EQ PUSH2 0x4C9 JUMPI PUSH1 0x40 MLOAD PUSH3 0x461BCD PUSH1 0xE5 SHL DUP2 MSTORE PUSH1 0x4 ADD PUSH2 0x323 SWAP1 PUSH2 0x97E JUMP JUMPDEST PUSH2 0x4D3 DUP3 DUP3 PUSH2 0x6ED JUMP JUMPDEST POP POP JUMP JUMPDEST CALLER PUSH0 SWAP1 DUP2 MSTORE PUSH1 0x5 PUSH1 0x20 MSTORE PUSH1 0x40 SWAP1 KECCAK256 SLOAD DUP2 GT ISZERO PUSH2 0x505 JUMPI PUSH1 0x40 MLOAD PUSH3 0x461BCD PUSH1 0xE5 SHL DUP2 MSTORE PUSH1 0x4 ADD PUSH2 0x323 SWAP1 PUSH2 0x916 JUMP JUMPDEST CALLER PUSH0 SWAP1 DUP2 MSTORE PUSH1 0x5 PUSH1 0x20 MSTORE PUSH1 0x40 DUP2 KECCAK256 DUP1 SLOAD DUP4 SWAP3 SWAP1 PUSH2 0x523 SWAP1 DUP5 SWAP1 PUSH2 0x958 JUMP JUMPDEST SWAP3 POP POP DUP2 SWAP1 SSTORE POP DUP1 PUSH1 0x3 PUSH0 DUP3 DUP3 SLOAD PUSH2 0x53B SWAP2 SWAP1 PUSH2 0x958 JUMP JUMPDEST SWAP1 SWAP2 SSTORE POP POP PUSH1 0x40 MLOAD DUP2 DUP2 MSTORE PUSH0 SWAP1 CALLER SWAP1 PUSH0 DUP1 MLOAD PUSH1 0x20 PUSH2 0x9A2 DUP4 CODECOPY DUP2 MLOAD SWAP2 MSTORE SWAP1 PUSH1 0x20 ADD PUSH1 0x40 MLOAD DUP1 SWAP2 SUB SWAP1 LOG3 POP JUMP JUMPDEST PUSH1 0x1 DUP1 SLOAD PUSH2 0x211 SWAP1 PUSH2 0x8B5 JUMP JUMPDEST PUSH0 PUSH1 0x1 PUSH1 0x1 PUSH1 0xA0 SHL SUB DUP4 AND PUSH2 0x59B JUMPI PUSH1 0x40 MLOAD PUSH3 0x461BCD PUSH1 0xE5 SHL DUP2 MSTORE PUSH1 0x4 ADD PUSH2 0x323 SWAP1 PUSH2 0x8ED JUMP JUMPDEST CALLER PUSH0 SWAP1 DUP2 MSTORE PUSH1 0x5 PUSH1 0x20 MSTORE PUSH1 0x40 SWAP1 KECCAK256 SLOAD DUP3 GT ISZERO PUSH2 0x5C9 JUMPI PUSH1 0x40 MLOAD PUSH3 0x461BCD PUSH1 0xE5 SHL DUP2 MSTORE PUSH1 0x4 ADD PUSH2 0x323 SWAP1 PUSH2 0x916 JUMP JUMPDEST CALLER PUSH0 SWAP1 DUP2 MSTORE PUSH1 0x5 PUSH1 0x20 MSTORE PUSH1 0x40 DUP2 KECCAK256 DUP1 SLOAD DUP5 SWAP3 SWAP1 PUSH2 0x5E7 SWAP1 DUP5 SWAP1 PUSH2 0x958 JUMP JUMPDEST SWAP1 SWAP2 SSTORE POP POP PUSH1 0x1 PUSH1 0x1 PUSH1 0xA0 SHL SUB DUP4 AND PUSH0 SWAP1 DUP2 MSTORE PUSH1 0x5 PUSH1 0x20 MSTORE PUSH1 0x40 DUP2 KECCAK256 DUP1 SLOAD DUP5 SWAP3 SWAP1 PUSH2 0x613 SWAP1 DUP5 SWAP1 PUSH2 0x96B JUMP JUMPDEST SWAP1 SWAP2 SSTORE POP POP PUSH1 0x40 MLOAD DUP3 DUP2 MSTORE PUSH1 0x1 PUSH1 0x1 PUSH1 0xA0 SHL SUB DUP5 AND SWAP1 CALLER SWAP1 PUSH0 DUP1 MLOAD PUSH1 0x20 PUSH2 0x9A2 DUP4 CODECOPY DUP2 MLOAD SWAP2 MSTORE SWAP1 PUSH1 0x20 ADD PUSH2 0x2EA JUMP JUMPDEST PUSH1 0x4 SLOAD PUSH1 0x1 PUSH1 0x1 PUSH1 0xA0 SHL SUB AND CALLER EQ PUSH2 0x66C JUMPI PUSH1 0x40 MLOAD PUSH3 0x461BCD PUSH1 0xE5 SHL DUP2 MSTORE PUSH1 0x4 ADD PUSH2 0x323 SWAP1 PUSH2 0x97E JUMP JUMPDEST PUSH1 0x1 PUSH1 0x1 PUSH1 0xA0 SHL SUB DUP2 AND PUSH2 0x692 JUMPI PUSH1 0x40 MLOAD PUSH3 0x461BCD PUSH1 0xE5 SHL DUP2 MSTORE PUSH1 0x4 ADD PUSH2 0x323 SWAP1 PUSH2 0x8ED JUMP JUMPDEST PUSH1 0x4 SLOAD PUSH1 0x40 MLOAD PUSH1 0x1 PUSH1 0x1 PUSH1 0xA0 SHL SUB DUP1 DUP5 AND SWAP3 AND SWAP1 PUSH32 0x8BE0079C531659141344CD1FD0A4F28419497F9722A3DAAFE3B4186F6B6457E0 SWAP1 PUSH0 SWAP1 LOG3 PUSH1 0x4 DUP1 SLOAD PUSH1 0x1 PUSH1 0x1 PUSH1 0xA0 SHL SUB NOT AND PUSH1 0x1 PUSH1 0x1 PUSH1 0xA0 SHL SUB SWAP3 SWAP1 SWAP3 AND SWAP2 SWAP1 SWAP2 OR SWAP1 SSTORE JUMP JUMPDEST PUSH1 0x1 PUSH1 0x1 PUSH1 0xA0 SHL SUB DUP3 AND PUSH2 0x713 JUMPI PUSH1 0x40 MLOAD PUSH3 0x461BCD PUSH1 0xE5 SHL DUP2 MSTORE PUSH1 0x4 ADD PUSH2 0x323 SWAP1 PUSH2 0x8ED JUMP JUMPDEST DUP1 PUSH1 0x3 PUSH0 DUP3 DUP3 SLOAD PUSH2 0x724 SWAP2 SWAP1 PUSH2 0x96B JUMP JUMPDEST SWAP1 SWAP2 SSTORE POP POP PUSH1 0x1 PUSH1 0x1 PUSH1 0xA0 SHL SUB DUP3 AND PUSH0 SWAP1 DUP2 MSTORE PUSH1 0x5 PUSH1 0x20 MSTORE PUSH1 0x40 DUP2 KECCAK256 DUP1 SLOAD DUP4 SWAP3 SWAP1 PUSH2 0x750 SWAP1 DUP5 SWAP1 PUSH2 0x96B JUMP JUMPDEST SWAP1 SWAP2 SSTORE POP POP PUSH1 0x40 MLOAD DUP2 DUP2 MSTORE PUSH1 0x1 PUSH1 0x1 PUSH1 0xA0 SHL SUB DUP4 AND SWAP1 PUSH0 SWAP1 PUSH0 DUP1 MLOAD PUSH1 0x20 PUSH2 0x9A2 DUP4 CODECOPY DUP2 MLOAD SWAP2 MSTORE SWAP1 PUSH1 0x20 ADD PUSH1 0x40 MLOAD DUP1 SWAP2 SUB SWAP1 LOG3 POP POP JUMP JUMPDEST PUSH0 PUSH1 0x20 DUP1 DUP4 MSTORE DUP4 MLOAD DUP1 DUP3 DUP6 ADD MSTORE PUSH0 JUMPDEST DUP2 DUP2 LT ISZERO PUSH2 0x7B1 JUMPI DUP6 DUP2 ADD DUP4 ADD MLOAD DUP6 DUP3 ADD PUSH1 0x40 ADD MSTORE DUP3 ADD PUSH2 0x795 JUMP JUMPDEST POP PUSH0 PUSH1 0x40 DUP3 DUP7 ADD ADD MSTORE PUSH1 0x40 PUSH1 0x1F NOT PUSH1 0x1F DUP4 ADD AND DUP6 ADD ADD SWAP3 POP POP POP SWAP3 SWAP2 POP POP JUMP JUMPDEST DUP1 CALLDATALOAD PUSH1 0x1 PUSH1 0x1 PUSH1 0xA0 SHL SUB DUP2 AND DUP2 EQ PUSH2 0x7E7 JUMPI PUSH0 DUP1 REVERT JUMPDEST SWAP2 SWAP1 POP JUMP JUMPDEST PUSH0 DUP1 PUSH1 0x40 DUP4 DUP6 SUB SLT ISZERO PUSH2 0x7FD JUMPI PUSH0 DUP1 REVERT JUMPDEST PUSH2 0x806 DUP4 PUSH2 0x7D1 JUMP JUMPDEST SWAP5 PUSH1 0x20 SWAP4 SWAP1 SWAP4 ADD CALLDATALOAD SWAP4 POP POP POP JUMP JUMPDEST PUSH0 DUP1 PUSH0 PUSH1 0x60 DUP5 DUP7 SUB SLT ISZERO PUSH2 0x826 JUMPI PUSH0 DUP1 REVERT JUMPDEST PUSH2 0x82F DUP5 PUSH2 0x7D1 JUMP JUMPDEST SWAP3 POP PUSH2 0x83D PUSH1 0x20 DUP6 ADD PUSH2 0x7D1 JUMP JUMPDEST SWAP2 POP PUSH1 0x40 DUP5 ADD CALLDATALOAD SWAP1 POP SWAP3 POP SWAP3 POP SWAP3 JUMP JUMPDEST PUSH0 PUSH1 0x20 DUP3 DUP5 SUB SLT ISZERO PUSH2 0x85D JUMPI PUSH0 DUP1 REVERT JUMPDEST POP CALLDATALOAD SWAP2 SWAP1 POP JUMP JUMPDEST PUSH0 PUSH1 0x20 DUP3 DUP5 SUB SLT ISZERO PUSH2 0x874 JUMPI PUSH0 DUP1 REVERT JUMPDEST PUSH2 0x87D DUP3 PUSH2 0x7D1 JUMP JUMPDEST SWAP4 SWAP3 POP POP POP JUMP JUMPDEST PUSH0 DUP1 PUSH1 0x40 DUP4 DUP6 SUB SLT ISZERO PUSH2 0x895 JUMPI PUSH0 DUP1 REVERT JUMPDEST PUSH2 0x89E DUP4 PUSH2 0x7D1 JUMP JUMPDEST SWAP2 POP PUSH2 0x8AC PUSH1 0x20 DUP5 ADD PUSH2 0x7D1 JUMP JUMPDEST SWAP1 POP SWAP3 POP SWAP3 SWAP1 POP JUMP JUMPDEST PUSH1 0x1 DUP2 DUP2 SHR SWAP1 DUP3 AND DUP1 PUSH2 0x8C9 JUMPI PUSH1 0x7F DUP3 AND SWAP2 POP JUMPDEST PUSH1 0x20 DUP3 LT DUP2 SUB PUSH2 0x8E7 JUMPI PUSH4 0x4E487B71 PUSH1 0xE0 SHL PUSH0 MSTORE PUSH1 0x22 PUSH1 0x4 MSTORE PUSH1 0x24 PUSH0 REVERT JUMPDEST POP SWAP2 SWAP1 POP JUMP JUMPDEST PUSH1 0x20 DUP1 DUP3 MSTORE PUSH1 0xF SWAP1 DUP3 ADD MSTORE PUSH15 0x496E76616C69642061646472657373 PUSH1 0x88 SHL PUSH1 0x40 DUP3 ADD MSTORE PUSH1 0x60 ADD SWAP1 JUMP JUMPDEST PUSH1 0x20 DUP1 DUP3 MSTORE PUSH1 0x14 SWAP1 DUP3 ADD MSTORE PUSH20 0x496E73756666696369656E742062616C616E6365 PUSH1 0x60 SHL PUSH1 0x40 DUP3 ADD MSTORE PUSH1 0x60 ADD SWAP1 JUMP JUMPDEST PUSH4 0x4E487B71 PUSH1 0xE0 SHL PUSH0 MSTORE PUSH1 0x11 PUSH1 0x4 MSTORE PUSH1 0x24 PUSH0 REVERT JUMPDEST DUP2 DUP2 SUB DUP2 DUP2 GT ISZERO PUSH2 0x2F6 JUMPI PUSH2 0x2F6 PUSH2 0x944 JUMP JUMPDEST DUP1 DUP3 ADD DUP1 DUP3 GT ISZERO PUSH2 0x2F6 JUMPI PUSH2 0x2F6 PUSH2 0x944 JUMP JUMPDEST PUSH1 0x20 DUP1 DUP3 MSTORE PUSH1 0x9 SWAP1 DUP3 ADD MSTORE PUSH9 0x2737BA1037BBB732B9 PUSH1 0xB9 SHL PUSH1 0x40 DUP3 ADD MSTORE PUSH1 0x60 ADD SWAP1 JUMP INVALID 0xDD CALLCODE MSTORE 0xAD SHL 0xE2 0xC8 SWAP12 PUSH10 0xC2B068FC378DAA952BA7 CALL PUSH4 0xC4A11628 CREATE2 GAS 0x4D CREATE2 0x23 0xB3 0xEF LOG2 PUSH5 0x6970667358 0x22 SLT KECCAK256 PUSH25 0x82909B8B8338917CA953FBAA7A25B63793F35B20C4D1376164 0x5D 0xCB 0xCD CREATE DUP10 0xCD PUSH5 0x736F6C6343 STOP ADDMOD EQ STOP CALLER "
				},
				"gasEstimates": {
					"creation": {
						"codeDepositCost": "510200",
						"executionCost": "infinite",
						"totalCost": "infinite"
					},
					"external": {
						"allowance(address,address)": "infinite",
						"approve(address,uint256)": "24497",
						"balanceOf(address)": "2648",
						"burn(uint256)": "infinite",
						"decimals()": "2378",
						"mint(address,uint256)": "infinite",
						"name()": "infinite",
						"owner()": "2490",
						"symbol()": "infinite",
						"totalSupply()": "2316",
						"transfer(address,uint256)": "infinite",
						"transferFrom(address,address,uint256)": "infinite",
						"transferOwnership(address)": "30639"
					},
					"internal": {
						"_mint(address,uint256)": "infinite"
					}
				},
				"methodIdentifiers": {
					"allowance(address,address)": "dd62ed3e",
					"approve(address,uint256)": "095ea7b3",
					"balanceOf(address)": "70a08231",
					"burn(uint256)": "42966c68",
					"decimals()": "313ce567",
					"mint(address,uint256)": "40c10f19",
					"name()": "06fdde03",
					"owner()": "8da5cb5b",
					"symbol()": "95d89b41",
					"totalSupply()": "18160ddd",
					"transfer(address,uint256)": "a9059cbb",
					"transferFrom(address,address,uint256)": "23b872dd",
					"transferOwnership(address)": "f2fde38b"
				}
			},
			"storageLayout": {
				"storage": [
					{
						"astId": 4,
						"contract": "contracts/token.sol:BEP20Token",
						"label": "name",
						"offset": 0,
						"slot": "0",
						"type": "t_string_storage"
					},
					{
						"astId": 6,
						"contract": "contracts/token.sol:BEP20Token",
						"label": "symbol",
						"offset": 0,
						"slot": "1",
						"type": "t_string_storage"
					},
					{
						"astId": 9,
						"contract": "contracts/token.sol:BEP20Token",
						"label": "decimals",
						"offset": 0,
						"slot": "2",
						"type": "t_uint8"
					},
					{
						"astId": 11,
						"contract": "contracts/token.sol:BEP20Token",
						"label": "totalSupply",
						"offset": 0,
						"slot": "3",
						"type": "t_uint256"
					},
					{
						"astId": 13,
						"contract": "contracts/token.sol:BEP20Token",
						"label": "owner",
						"offset": 0,
						"slot": "4",
						"type": "t_address"
					},
					{
						"astId": 17,
						"contract": "contracts/token.sol:BEP20Token",
						"label": "balanceOf",
						"offset": 0,
						"slot": "5",
						"type": "t_mapping(t_address,t_uint256)"
					},
					{
						"astId": 23,
						"contract": "contracts/token.sol:BEP20Token",
						"label": "allowance",
						"offset": 0,
						"slot": "6",
						"type": "t_mapping(t_address,t_mapping(t_address,t_uint256))"
					}
				],
				"types": {
					"t_address": {
						"encoding": "inplace",
						"label": "address",
						"numberOfBytes": "20"
					},
					"t_mapping(t_address,t_mapping(t_address,t_uint256))": {
						"encoding": "mapping",
						"key": "t_address",
						"label": "mapping(address => mapping(address => uint256))",
						"numberOfBytes": "32",
						"value": "t_mapping(t_address,t_uint256)"
					},
					"t_mapping(t_address,t_uint256)": {
						"encoding": "mapping",
						"key": "t_address",
						"label": "mapping(address => uint256)",
						"numberOfBytes": "32",
						"value": "t_uint256"
					},
					"t_string_storage": {
						"encoding": "bytes",
						"label": "string",
						"numberOfBytes": "32"
					},
					"t_uint256": {
						"encoding": "inplace",
						"label": "uint256",
						"numberOfBytes": "32"
					},
					"t_uint8": {
						"encoding": "inplace",
						"label": "uint8",
						"numberOfBytes": "1"
					}
				}
			},
			"userdoc": {
				"kind": "user",
				"methods": {},
				"version": 1
			}
		}
	}
}