{
	"contracts/Factory.sol": {
		"WBGZFactory": {
			"abi": [
				{
					"anonymous": false,
					"inputs": [
						{
							"indexed": true,
							"internalType": "address",
							"name": "tokenAddress",
							"type": "address"
						},
						{
							"indexed": true,
							"internalType": "address",
							"name": "initialOwner",
							"type": "address"
						},
						{
							"indexed": false,
							"internalType": "uint8",
							"name": "decimalsValue",
							"type": "uint8"
						},
						{
							"indexed": false,
							"internalType": "uint256",
							"name": "initialSupply",
							"type": "uint256"
						},
						{
							"indexed": false,
							"internalType": "bytes32",
							"name": "salt",
							"type": "bytes32"
						}
					],
					"name": "WBGZTokenDeployed",
					"type": "event"
				},
				{
					"inputs": [
						{
							"internalType": "address",
							"name": "initialOwner",
							"type": "address"
						},
						{
							"internalType": "uint8",
							"name": "decimalsValue",
							"type": "uint8"
						},
						{
							"internalType": "uint256",
							"name": "initialSupply",
							"type": "uint256"
						},
						{
							"internalType": "bytes32",
							"name": "salt",
							"type": "bytes32"
						}
					],
					"name": "deployWBGZToken",
					"outputs": [
						{
							"internalType": "address",
							"name": "tokenAddress",
							"type": "address"
						}
					],
					"stateMutability": "nonpayable",
					"type": "function"
				},
				{
					"inputs": [
						{
							"internalType": "address",
							"name": "initialOwner",
							"type": "address"
						},
						{
							"internalType": "uint8",
							"name": "decimalsValue",
							"type": "uint8"
						},
						{
							"internalType": "uint256",
							"name": "initialSupply",
							"type": "uint256"
						},
						{
							"internalType": "bytes32",
							"name": "salt",
							"type": "bytes32"
						}
					],
					"name": "getWBGZTokenAddress",
					"outputs": [
						{
							"internalType": "address",
							"name": "",
							"type": "address"
						}
					],
					"stateMutability": "view",
					"type": "function"
				}
			],
			"devdoc": {
				"details": "Factory contract for deploying WBGZToken using CREATE2",
				"kind": "dev",
				"methods": {
					"deployWBGZToken(address,uint8,uint256,bytes32)": {
						"params": {
							"decimalsValue": "The number of decimals for the token",
							"initialOwner": "The initial owner of the token",
							"initialSupply": "The initial supply of the token",
							"salt": "A unique salt for CREATE2 deployment"
						},
						"returns": {
							"tokenAddress": "The address of the deployed token"
						}
					},
					"getWBGZTokenAddress(address,uint8,uint256,bytes32)": {
						"params": {
							"decimalsValue": "The number of decimals for the token",
							"initialOwner": "The initial owner of the token",
							"initialSupply": "The initial supply of the token",
							"salt": "A unique salt for CREATE2 deployment"
						},
						"returns": {
							"_0": "The computed address"
						}
					}
				},
				"title": "Factory",
				"version": 1
			},
			"evm": {
				"assembly": "    /* \"contracts/Factory.sol\":169:2953  contract WBGZFactory {... */\n  mstore(0x40, 0x80)\n  callvalue\n  dup1\n  iszero\n  tag_1\n  jumpi\n  0x00\n  dup1\n  revert\ntag_1:\n  pop\n  dataSize(sub_0)\n  dup1\n  dataOffset(sub_0)\n  0x00\n  codecopy\n  0x00\n  return\nstop\n\nsub_0: assembly {\n        /* \"contracts/Factory.sol\":169:2953  contract WBGZFactory {... */\n      mstore(0x40, 0x80)\n      callvalue\n      dup1\n      iszero\n      tag_1\n      jumpi\n      0x00\n      dup1\n      revert\n    tag_1:\n      pop\n      jumpi(tag_2, lt(calldatasize, 0x04))\n      shr(0xe0, calldataload(0x00))\n      dup1\n      0x18423c06\n      eq\n      tag_3\n      jumpi\n      dup1\n      0x3dcee3ac\n      eq\n      tag_4\n      jumpi\n    tag_2:\n      0x00\n      dup1\n      revert\n        /* \"contracts/Factory.sol\":2077:2951  function getWBGZTokenAddress(... */\n    tag_3:\n      tag_5\n      tag_6\n      calldatasize\n      0x04\n      tag_7\n      jump\t// in\n    tag_6:\n      tag_8\n      jump\t// in\n    tag_5:\n      mload(0x40)\n      sub(shl(0xa0, 0x01), 0x01)\n        /* \"#utility.yul\":771:803   */\n      swap1\n      swap2\n      and\n        /* \"#utility.yul\":753:804   */\n      dup2\n      mstore\n        /* \"#utility.yul\":741:743   */\n      0x20\n        /* \"#utility.yul\":726:744   */\n      add\n        /* \"contracts/Factory.sol\":2077:2951  function getWBGZTokenAddress(... */\n      mload(0x40)\n      dup1\n      swap2\n      sub\n      swap1\n      return\n        /* \"contracts/Factory.sol\":723:1671  function deployWBGZToken(... */\n    tag_4:\n      tag_5\n      tag_12\n      calldatasize\n      0x04\n      tag_7\n      jump\t// in\n    tag_12:\n      tag_13\n      jump\t// in\n        /* \"contracts/Factory.sol\":2077:2951  function getWBGZTokenAddress(... */\n    tag_8:\n        /* \"contracts/Factory.sol\":2247:2254  address */\n      0x00\n        /* \"contracts/Factory.sol\":2307:2328  bytes memory bytecode */\n      dup1\n        /* \"contracts/Factory.sol\":2331:2359  type(WBGZToken).creationCode */\n      mload(0x40)\n      dup1\n      0x20\n      add\n      tag_16\n      swap1\n      tag_17\n      jump\t// in\n    tag_16:\n      0x20\n      dup3\n      add\n      dup2\n      sub\n      dup3\n      mstore\n      not(0x1f)\n      0x1f\n      dup3\n      add\n      and\n      0x40\n      mstore\n      pop\n        /* \"contracts/Factory.sol\":2307:2359  bytes memory bytecode = type(WBGZToken).creationCode */\n      swap1\n      pop\n        /* \"contracts/Factory.sol\":2414:2438  bytes memory encodedArgs */\n      0x00\n        /* \"contracts/Factory.sol\":2452:2464  initialOwner */\n      dup7\n        /* \"contracts/Factory.sol\":2466:2479  decimalsValue */\n      dup7\n        /* \"contracts/Factory.sol\":2481:2494  initialSupply */\n      dup7\n        /* \"contracts/Factory.sol\":2441:2495  abi.encode(initialOwner, decimalsValue, initialSupply) */\n      add(0x20, mload(0x40))\n      tag_18\n      swap4\n      swap3\n      swap2\n      swap1\n      tag_19\n      jump\t// in\n    tag_18:\n      mload(0x40)\n      0x20\n      dup2\n      dup4\n      sub\n      sub\n      dup2\n      mstore\n      swap1\n      0x40\n      mstore\n        /* \"contracts/Factory.sol\":2414:2495  bytes memory encodedArgs = abi.encode(initialOwner, decimalsValue, initialSupply) */\n      swap1\n      pop\n        /* \"contracts/Factory.sol\":2562:2587  bytes memory fullBytecode */\n      0x00\n        /* \"contracts/Factory.sol\":2607:2615  bytecode */\n      dup3\n        /* \"contracts/Factory.sol\":2617:2628  encodedArgs */\n      dup3\n        /* \"contracts/Factory.sol\":2590:2629  abi.encodePacked(bytecode, encodedArgs) */\n      add(0x20, mload(0x40))\n      tag_20\n      swap3\n      swap2\n      swap1\n      tag_21\n      jump\t// in\n    tag_20:\n      0x40\n      dup1\n      mload\n      dup1\n      dup4\n      sub\n      not(0x1f)\n      add\n      dup2\n      mstore\n      dup3\n      dup3\n      mstore\n        /* \"contracts/Factory.sol\":2848:2871  keccak256(fullBytecode) */\n      dup1\n      mload\n        /* \"contracts/Factory.sol\":2590:2629  abi.encodePacked(bytecode, encodedArgs) */\n      0x20\n        /* \"contracts/Factory.sol\":2848:2871  keccak256(fullBytecode) */\n      swap2\n      dup3\n      add\n      keccak256\n      not(sub(shl(0xf8, 0x01), 0x01))\n        /* \"contracts/Factory.sol\":2731:2885  abi.encodePacked(... */\n      dup3\n      dup6\n      add\n        /* \"#utility.yul\":1976:2015   */\n      mstore\n        /* \"contracts/Factory.sol\":2803:2807  this */\n      address\n        /* \"#utility.yul\":2077:2079   */\n      0x60\n        /* \"#utility.yul\":2048:2063   */\n      shl\n      not(sub(shl(0x60, 0x01), 0x01))\n        /* \"#utility.yul\":2044:2089   */\n      and\n        /* \"#utility.yul\":2031:2042   */\n      0x21\n      dup6\n      add\n        /* \"#utility.yul\":2024:2090   */\n      mstore\n        /* \"#utility.yul\":2106:2118   */\n      0x35\n      dup5\n      add\n        /* \"#utility.yul\":2099:2127   */\n      swap9\n      swap1\n      swap9\n      mstore\n        /* \"#utility.yul\":2143:2155   */\n      0x55\n      dup1\n      dup5\n      add\n        /* \"#utility.yul\":2136:2164   */\n      swap9\n      swap1\n      swap9\n      mstore\n        /* \"contracts/Factory.sol\":2731:2885  abi.encodePacked(... */\n      dup2\n      mload\n      dup1\n      dup5\n      sub\n      swap1\n      swap9\n      add\n      dup9\n      mstore\n        /* \"#utility.yul\":2180:2192   */\n      0x75\n      swap1\n      swap3\n      add\n        /* \"contracts/Factory.sol\":2731:2885  abi.encodePacked(... */\n      swap1\n      mstore\n        /* \"contracts/Factory.sol\":2708:2895  keccak256(... */\n      dup6\n      mload\n      swap6\n      add\n      swap5\n      swap1\n      swap5\n      keccak256\n      swap8\n      swap7\n      pop\n      pop\n      pop\n      pop\n      pop\n      pop\n      pop\n        /* \"contracts/Factory.sol\":2077:2951  function getWBGZTokenAddress(... */\n      jump\t// out\n        /* \"contracts/Factory.sol\":723:1671  function deployWBGZToken(... */\n    tag_13:\n        /* \"contracts/Factory.sol\":884:904  address tokenAddress */\n      0x00\n        /* \"contracts/Factory.sol\":957:978  bytes memory bytecode */\n      dup1\n        /* \"contracts/Factory.sol\":981:1009  type(WBGZToken).creationCode */\n      mload(0x40)\n      dup1\n      0x20\n      add\n      tag_25\n      swap1\n      tag_17\n      jump\t// in\n    tag_25:\n      0x20\n      dup3\n      add\n      dup2\n      sub\n      dup3\n      mstore\n      not(0x1f)\n      0x1f\n      dup3\n      add\n      and\n      0x40\n      mstore\n      pop\n        /* \"contracts/Factory.sol\":957:1009  bytes memory bytecode = type(WBGZToken).creationCode */\n      swap1\n      pop\n        /* \"contracts/Factory.sol\":1064:1088  bytes memory encodedArgs */\n      0x00\n        /* \"contracts/Factory.sol\":1102:1114  initialOwner */\n      dup7\n        /* \"contracts/Factory.sol\":1116:1129  decimalsValue */\n      dup7\n        /* \"contracts/Factory.sol\":1131:1144  initialSupply */\n      dup7\n        /* \"contracts/Factory.sol\":1091:1145  abi.encode(initialOwner, decimalsValue, initialSupply) */\n      add(0x20, mload(0x40))\n      tag_26\n      swap4\n      swap3\n      swap2\n      swap1\n      tag_19\n      jump\t// in\n    tag_26:\n      mload(0x40)\n      0x20\n      dup2\n      dup4\n      sub\n      sub\n      dup2\n      mstore\n      swap1\n      0x40\n      mstore\n        /* \"contracts/Factory.sol\":1064:1145  bytes memory encodedArgs = abi.encode(initialOwner, decimalsValue, initialSupply) */\n      swap1\n      pop\n        /* \"contracts/Factory.sol\":1212:1237  bytes memory fullBytecode */\n      0x00\n        /* \"contracts/Factory.sol\":1257:1265  bytecode */\n      dup3\n        /* \"contracts/Factory.sol\":1267:1278  encodedArgs */\n      dup3\n        /* \"contracts/Factory.sol\":1240:1279  abi.encodePacked(bytecode, encodedArgs) */\n      add(0x20, mload(0x40))\n      tag_27\n      swap3\n      swap2\n      swap1\n      tag_21\n      jump\t// in\n    tag_27:\n      mload(0x40)\n      0x20\n      dup2\n      dup4\n      sub\n      sub\n      dup2\n      mstore\n      swap1\n      0x40\n      mstore\n        /* \"contracts/Factory.sol\":1212:1279  bytes memory fullBytecode = abi.encodePacked(bytecode, encodedArgs) */\n      swap1\n      pop\n        /* \"contracts/Factory.sol\":1418:1422  salt */\n      dup5\n        /* \"contracts/Factory.sol\":1403:1415  fullBytecode */\n      dup2\n        /* \"contracts/Factory.sol\":1397:1416  mload(fullBytecode) */\n      mload\n        /* \"contracts/Factory.sol\":1390:1394  0x20 */\n      0x20\n        /* \"contracts/Factory.sol\":1376:1388  fullBytecode */\n      dup4\n        /* \"contracts/Factory.sol\":1372:1395  add(fullBytecode, 0x20) */\n      add\n        /* \"contracts/Factory.sol\":1369:1370  0 */\n      0x00\n        /* \"contracts/Factory.sol\":1361:1423  create2(0, add(fullBytecode, 0x20), mload(fullBytecode), salt) */\n      create2\n        /* \"contracts/Factory.sol\":1345:1423  tokenAddress := create2(0, add(fullBytecode, 0x20), mload(fullBytecode), salt) */\n      swap4\n      pop\n      sub(shl(0xa0, 0x01), 0x01)\n        /* \"contracts/Factory.sol\":1497:1523  tokenAddress != address(0) */\n      dup5\n      and\n        /* \"contracts/Factory.sol\":1489:1545  require(tokenAddress != address(0), \"Deployment failed\") */\n      tag_28\n      jumpi\n      mload(0x40)\n      shl(0xe5, 0x461bcd)\n      dup2\n      mstore\n        /* \"#utility.yul\":2405:2407   */\n      0x20\n        /* \"contracts/Factory.sol\":1489:1545  require(tokenAddress != address(0), \"Deployment failed\") */\n      0x04\n      dup3\n      add\n        /* \"#utility.yul\":2387:2408   */\n      mstore\n        /* \"#utility.yul\":2444:2446   */\n      0x11\n        /* \"#utility.yul\":2424:2442   */\n      0x24\n      dup3\n      add\n        /* \"#utility.yul\":2417:2447   */\n      mstore\n      shl(0x7a, 0x11195c1b1bde5b595b9d0819985a5b1959)\n        /* \"#utility.yul\":2463:2481   */\n      0x44\n      dup3\n      add\n        /* \"#utility.yul\":2456:2503   */\n      mstore\n        /* \"#utility.yul\":2520:2538   */\n      0x64\n      add\n        /* \"contracts/Factory.sol\":1489:1545  require(tokenAddress != address(0), \"Deployment failed\") */\n      mload(0x40)\n      dup1\n      swap2\n      sub\n      swap1\n      revert\n    tag_28:\n        /* \"contracts/Factory.sol\":1583:1664  WBGZTokenDeployed(tokenAddress, initialOwner, decimalsValue, initialSupply, salt) */\n      0x40\n      dup1\n      mload\n        /* \"#utility.yul\":2777:2781   */\n      0xff\n        /* \"#utility.yul\":2765:2782   */\n      dup10\n      and\n        /* \"#utility.yul\":2747:2783   */\n      dup2\n      mstore\n        /* \"#utility.yul\":2814:2816   */\n      0x20\n        /* \"#utility.yul\":2799:2817   */\n      dup2\n      add\n        /* \"#utility.yul\":2792:2826   */\n      dup9\n      swap1\n      mstore\n        /* \"#utility.yul\":2842:2860   */\n      swap1\n      dup2\n      add\n        /* \"#utility.yul\":2835:2869   */\n      dup7\n      swap1\n      mstore\n      sub(shl(0xa0, 0x01), 0x01)\n        /* \"contracts/Factory.sol\":1583:1664  WBGZTokenDeployed(tokenAddress, initialOwner, decimalsValue, initialSupply, salt) */\n      dup1\n      dup11\n      and\n      swap2\n      swap1\n      dup7\n      and\n      swap1\n      0xd1c16269e4896821ea5dd6216a16b09048d63329a1b10963f0458d3f0389f4f4\n      swap1\n        /* \"#utility.yul\":2735:2737   */\n      0x60\n        /* \"#utility.yul\":2720:2738   */\n      add\n        /* \"contracts/Factory.sol\":1583:1664  WBGZTokenDeployed(tokenAddress, initialOwner, decimalsValue, initialSupply, salt) */\n      mload(0x40)\n      dup1\n      swap2\n      sub\n      swap1\n      log3\n        /* \"contracts/Factory.sol\":906:1671  {... */\n      pop\n      pop\n      pop\n        /* \"contracts/Factory.sol\":723:1671  function deployWBGZToken(... */\n      swap5\n      swap4\n      pop\n      pop\n      pop\n      pop\n      jump\t// out\n    tag_17:\n      dataSize(sub_0)\n      dup1\n      dataOffset(sub_0)\n      dup4\n      codecopy\n      add\n      swap1\n      jump\t// out\n        /* \"#utility.yul\":14:602   */\n    tag_7:\n        /* \"#utility.yul\":98:104   */\n      0x00\n        /* \"#utility.yul\":106:112   */\n      dup1\n        /* \"#utility.yul\":114:120   */\n      0x00\n        /* \"#utility.yul\":122:128   */\n      dup1\n        /* \"#utility.yul\":175:178   */\n      0x80\n        /* \"#utility.yul\":163:172   */\n      dup6\n        /* \"#utility.yul\":154:161   */\n      dup8\n        /* \"#utility.yul\":150:173   */\n      sub\n        /* \"#utility.yul\":146:179   */\n      slt\n        /* \"#utility.yul\":143:196   */\n      iszero\n      tag_36\n      jumpi\n        /* \"#utility.yul\":192:193   */\n      0x00\n        /* \"#utility.yul\":189:190   */\n      dup1\n        /* \"#utility.yul\":182:194   */\n      revert\n        /* \"#utility.yul\":143:196   */\n    tag_36:\n        /* \"#utility.yul\":218:241   */\n      dup5\n      calldataload\n      sub(shl(0xa0, 0x01), 0x01)\n        /* \"#utility.yul\":270:301   */\n      dup2\n      and\n        /* \"#utility.yul\":260:302   */\n      dup2\n      eq\n        /* \"#utility.yul\":250:320   */\n      tag_37\n      jumpi\n        /* \"#utility.yul\":316:317   */\n      0x00\n        /* \"#utility.yul\":313:314   */\n      dup1\n        /* \"#utility.yul\":306:318   */\n      revert\n        /* \"#utility.yul\":250:320   */\n    tag_37:\n        /* \"#utility.yul\":339:344   */\n      swap4\n      pop\n        /* \"#utility.yul\":396:398   */\n      0x20\n        /* \"#utility.yul\":381:399   */\n      dup6\n      add\n        /* \"#utility.yul\":368:400   */\n      calldataload\n        /* \"#utility.yul\":444:448   */\n      0xff\n        /* \"#utility.yul\":431:449   */\n      dup2\n      and\n        /* \"#utility.yul\":419:450   */\n      dup2\n      eq\n        /* \"#utility.yul\":409:468   */\n      tag_38\n      jumpi\n        /* \"#utility.yul\":464:465   */\n      0x00\n        /* \"#utility.yul\":461:462   */\n      dup1\n        /* \"#utility.yul\":454:466   */\n      revert\n        /* \"#utility.yul\":409:468   */\n    tag_38:\n        /* \"#utility.yul\":14:602   */\n      swap4\n      swap7\n        /* \"#utility.yul\":487:494   */\n      swap4\n      swap6\n      pop\n      pop\n      pop\n      pop\n        /* \"#utility.yul\":541:543   */\n      0x40\n        /* \"#utility.yul\":526:544   */\n      dup3\n      add\n        /* \"#utility.yul\":513:545   */\n      calldataload\n      swap2\n        /* \"#utility.yul\":592:594   */\n      0x60\n        /* \"#utility.yul\":577:595   */\n      add\n        /* \"#utility.yul\":564:596   */\n      calldataload\n      swap1\n        /* \"#utility.yul\":14:602   */\n      jump\t// out\n        /* \"#utility.yul\":815:1167   */\n    tag_19:\n      sub(shl(0xa0, 0x01), 0x01)\n        /* \"#utility.yul\":1031:1063   */\n      swap4\n      swap1\n      swap4\n      and\n        /* \"#utility.yul\":1013:1064   */\n      dup4\n      mstore\n        /* \"#utility.yul\":1112:1116   */\n      0xff\n        /* \"#utility.yul\":1100:1117   */\n      swap2\n      swap1\n      swap2\n      and\n        /* \"#utility.yul\":1095:1097   */\n      0x20\n        /* \"#utility.yul\":1080:1098   */\n      dup4\n      add\n        /* \"#utility.yul\":1073:1118   */\n      mstore\n        /* \"#utility.yul\":1149:1151   */\n      0x40\n        /* \"#utility.yul\":1134:1152   */\n      dup3\n      add\n        /* \"#utility.yul\":1127:1161   */\n      mstore\n        /* \"#utility.yul\":1001:1003   */\n      0x60\n        /* \"#utility.yul\":986:1004   */\n      add\n      swap1\n        /* \"#utility.yul\":815:1167   */\n      jump\t// out\n        /* \"#utility.yul\":1172:1494   */\n    tag_33:\n        /* \"#utility.yul\":1213:1216   */\n      0x00\n        /* \"#utility.yul\":1251:1256   */\n      dup2\n        /* \"#utility.yul\":1245:1257   */\n      mload\n        /* \"#utility.yul\":1275:1276   */\n      0x00\n        /* \"#utility.yul\":1285:1413   */\n    tag_42:\n        /* \"#utility.yul\":1299:1305   */\n      dup2\n        /* \"#utility.yul\":1296:1297   */\n      dup2\n        /* \"#utility.yul\":1293:1306   */\n      lt\n        /* \"#utility.yul\":1285:1413   */\n      iszero\n      tag_44\n      jumpi\n        /* \"#utility.yul\":1396:1400   */\n      0x20\n        /* \"#utility.yul\":1381:1394   */\n      dup2\n      dup6\n      add\n        /* \"#utility.yul\":1377:1401   */\n      dup2\n      add\n        /* \"#utility.yul\":1371:1402   */\n      mload\n        /* \"#utility.yul\":1358:1369   */\n      dup7\n      dup4\n      add\n        /* \"#utility.yul\":1351:1403   */\n      mstore\n        /* \"#utility.yul\":1314:1326   */\n      add\n        /* \"#utility.yul\":1285:1413   */\n      jump(tag_42)\n    tag_44:\n      pop\n        /* \"#utility.yul\":1468:1469   */\n      0x00\n        /* \"#utility.yul\":1432:1448   */\n      swap4\n      add\n        /* \"#utility.yul\":1457:1470   */\n      swap3\n      dup4\n      mstore\n      pop\n        /* \"#utility.yul\":1432:1448   */\n      swap1\n      swap2\n        /* \"#utility.yul\":1172:1494   */\n      swap1\n      pop\n      jump\t// out\n        /* \"#utility.yul\":1499:1760   */\n    tag_21:\n        /* \"#utility.yul\":1674:1677   */\n      0x00\n        /* \"#utility.yul\":1699:1754   */\n      tag_46\n        /* \"#utility.yul\":1724:1753   */\n      tag_47\n        /* \"#utility.yul\":1749:1752   */\n      dup4\n        /* \"#utility.yul\":1741:1747   */\n      dup7\n        /* \"#utility.yul\":1724:1753   */\n      tag_33\n      jump\t// in\n    tag_47:\n        /* \"#utility.yul\":1716:1722   */\n      dup5\n        /* \"#utility.yul\":1699:1754   */\n      tag_33\n      jump\t// in\n    tag_46:\n        /* \"#utility.yul\":1692:1754   */\n      swap5\n        /* \"#utility.yul\":1499:1760   */\n      swap4\n      pop\n      pop\n      pop\n      pop\n      jump\t// out\n    stop\n\n    sub_0: assembly {\n            /* \"contracts/token.sol\":459:2753  contract WBGZToken is ERC20, ERC20Burnable, Ownable, Pausable {... */\n          mstore(0x40, 0x80)\n            /* \"contracts/token.sol\":950:1592  constructor(... */\n          callvalue\n          dup1\n          iszero\n          tag_1\n          jumpi\n          0x00\n          dup1\n          revert\n        tag_1:\n          pop\n          mload(0x40)\n          sub(codesize, bytecodeSize)\n          dup1\n          bytecodeSize\n          dup4\n          codecopy\n          dup2\n          add\n          0x40\n          dup2\n          swap1\n          mstore\n          tag_2\n          swap2\n          tag_3\n          jump\t// in\n        tag_2:\n            /* \"@openzeppelin/contracts/token/ERC20/ERC20.sol\":1582:1695  constructor(string memory name_, string memory symbol_) {... */\n          0x40\n          dup1\n          mload\n          dup1\n          dup3\n          add\n          dup3\n          mstore\n          0x0c\n          dup1\n          dup3\n          mstore\n          shl(0xa0, 0xe5b881e5ae89e4bb99e5a5b3)\n          0x20\n          dup1\n          dup5\n          add\n          dup3\n          swap1\n          mstore\n          dup5\n          mload\n          dup1\n          dup7\n          add\n          swap1\n          swap6\n          mstore\n          swap2\n          dup5\n          mstore\n          swap1\n          dup4\n          add\n          mstore\n            /* \"contracts/token.sol\":1118:1130  initialOwner */\n          dup5\n          swap2\n            /* \"@openzeppelin/contracts/token/ERC20/ERC20.sol\":1648:1653  _name */\n          0x03\n            /* \"@openzeppelin/contracts/token/ERC20/ERC20.sol\":1648:1661  _name = name_ */\n          tag_8\n            /* \"@openzeppelin/contracts/token/ERC20/ERC20.sol\":1582:1695  constructor(string memory name_, string memory symbol_) {... */\n          dup4\n            /* \"@openzeppelin/contracts/token/ERC20/ERC20.sol\":1648:1653  _name */\n          dup3\n            /* \"@openzeppelin/contracts/token/ERC20/ERC20.sol\":1648:1661  _name = name_ */\n          tag_9\n          jump\t// in\n        tag_8:\n          pop\n            /* \"@openzeppelin/contracts/token/ERC20/ERC20.sol\":1671:1678  _symbol */\n          0x04\n            /* \"@openzeppelin/contracts/token/ERC20/ERC20.sol\":1671:1688  _symbol = symbol_ */\n          tag_10\n            /* \"@openzeppelin/contracts/token/ERC20/ERC20.sol\":1681:1688  symbol_ */\n          dup3\n            /* \"@openzeppelin/contracts/token/ERC20/ERC20.sol\":1671:1678  _symbol */\n          dup3\n            /* \"@openzeppelin/contracts/token/ERC20/ERC20.sol\":1671:1688  _symbol = symbol_ */\n          tag_9\n          jump\t// in\n        tag_10:\n          pop\n          pop\n          pop\n          sub(shl(0xa0, 0x01), 0x01)\n            /* \"@openzeppelin/contracts/access/Ownable.sol\":1273:1299  initialOwner == address(0) */\n          dup2\n          and\n            /* \"@openzeppelin/contracts/access/Ownable.sol\":1269:1364  if (initialOwner == address(0)) {... */\n          tag_12\n          jumpi\n            /* \"@openzeppelin/contracts/access/Ownable.sol\":1350:1351  0 */\n          0x00\n            /* \"@openzeppelin/contracts/access/Ownable.sol\":1322:1353  OwnableInvalidOwner(address(0)) */\n          mload(0x40)\n          shl(0xe0, 0x1e4fbdf7)\n          dup2\n          mstore\n          0x04\n          add\n          tag_13\n          swap2\n          swap1\n          tag_14\n          jump\t// in\n        tag_13:\n          mload(0x40)\n          dup1\n          swap2\n          sub\n          swap1\n          revert\n            /* \"@openzeppelin/contracts/access/Ownable.sol\":1269:1364  if (initialOwner == address(0)) {... */\n        tag_12:\n            /* \"@openzeppelin/contracts/access/Ownable.sol\":1373:1405  _transferOwnership(initialOwner) */\n          tag_15\n            /* \"@openzeppelin/contracts/access/Ownable.sol\":1392:1404  initialOwner */\n          dup2\n            /* \"@openzeppelin/contracts/access/Ownable.sol\":1373:1391  _transferOwnership */\n          tag_16\n            /* \"@openzeppelin/contracts/access/Ownable.sol\":1373:1405  _transferOwnership(initialOwner) */\n          jump\t// in\n        tag_15:\n          pop\n          sub(shl(0xa0, 0x01), 0x01)\n            /* \"contracts/token.sol\":1150:1176  initialOwner != address(0) */\n          dup4\n          and\n            /* \"contracts/token.sol\":1142:1194  require(initialOwner != address(0), \"Invalid owner\") */\n          tag_18\n          jumpi\n          mload(0x40)\n          shl(0xe5, 0x461bcd)\n          dup2\n          mstore\n            /* \"#utility.yul\":3659:3661   */\n          0x20\n            /* \"contracts/token.sol\":1142:1194  require(initialOwner != address(0), \"Invalid owner\") */\n          0x04\n          dup3\n          add\n            /* \"#utility.yul\":3641:3662   */\n          mstore\n            /* \"#utility.yul\":3698:3700   */\n          0x0d\n            /* \"#utility.yul\":3678:3696   */\n          0x24\n          dup3\n          add\n            /* \"#utility.yul\":3671:3701   */\n          mstore\n          shl(0x99, 0x24b73b30b634b21037bbb732b9)\n            /* \"#utility.yul\":3717:3735   */\n          0x44\n          dup3\n          add\n            /* \"#utility.yul\":3710:3753   */\n          mstore\n            /* \"#utility.yul\":3770:3788   */\n          0x64\n          add\n            /* \"contracts/token.sol\":1142:1194  require(initialOwner != address(0), \"Invalid owner\") */\n          tag_13\n            /* \"#utility.yul\":3457:3794   */\n          jump\n            /* \"contracts/token.sol\":1142:1194  require(initialOwner != address(0), \"Invalid owner\") */\n        tag_18:\n            /* \"contracts/token.sol\":1229:1231  18 */\n          0x12\n            /* \"contracts/token.sol\":1212:1225  decimalsValue */\n          dup3\n            /* \"contracts/token.sol\":1212:1231  decimalsValue <= 18 */\n          0xff\n          and\n          gt\n          iszero\n            /* \"contracts/token.sol\":1204:1253  require(decimalsValue <= 18, \"Decimals too high\") */\n          tag_21\n          jumpi\n          mload(0x40)\n          shl(0xe5, 0x461bcd)\n          dup2\n          mstore\n            /* \"#utility.yul\":4001:4003   */\n          0x20\n            /* \"contracts/token.sol\":1204:1253  require(decimalsValue <= 18, \"Decimals too high\") */\n          0x04\n          dup3\n          add\n            /* \"#utility.yul\":3983:4004   */\n          mstore\n            /* \"#utility.yul\":4040:4042   */\n          0x11\n            /* \"#utility.yul\":4020:4038   */\n          0x24\n          dup3\n          add\n            /* \"#utility.yul\":4013:4043   */\n          mstore\n          shl(0x7b, 0x088cac6d2dac2d8e640e8dede40d0d2ced)\n            /* \"#utility.yul\":4059:4077   */\n          0x44\n          dup3\n          add\n            /* \"#utility.yul\":4052:4099   */\n          mstore\n            /* \"#utility.yul\":4116:4134   */\n          0x64\n          add\n            /* \"contracts/token.sol\":1204:1253  require(decimalsValue <= 18, \"Decimals too high\") */\n          tag_13\n            /* \"#utility.yul\":3799:4140   */\n          jump\n            /* \"contracts/token.sol\":1204:1253  require(decimalsValue <= 18, \"Decimals too high\") */\n        tag_21:\n            /* \"contracts/token.sol\":1271:1284  initialSupply */\n          dup1\n            /* \"contracts/token.sol\":1288:1289  0 */\n          0x00\n            /* \"contracts/token.sol\":1271:1289  initialSupply != 0 */\n          sub\n            /* \"contracts/token.sol\":1263:1325  require(initialSupply != 0, \"Initial supply must be positive\") */\n          tag_24\n          jumpi\n          mload(0x40)\n          shl(0xe5, 0x461bcd)\n          dup2\n          mstore\n            /* \"#utility.yul\":4347:4349   */\n          0x20\n            /* \"contracts/token.sol\":1263:1325  require(initialSupply != 0, \"Initial supply must be positive\") */\n          0x04\n          dup3\n          add\n            /* \"#utility.yul\":4329:4350   */\n          mstore\n            /* \"#utility.yul\":4386:4388   */\n          0x1f\n            /* \"#utility.yul\":4366:4384   */\n          0x24\n          dup3\n          add\n            /* \"#utility.yul\":4359:4389   */\n          mstore\n            /* \"#utility.yul\":4425:4458   */\n          0x496e697469616c20737570706c79206d75737420626520706f73697469766500\n            /* \"#utility.yul\":4405:4423   */\n          0x44\n          dup3\n          add\n            /* \"#utility.yul\":4398:4459   */\n          mstore\n            /* \"#utility.yul\":4476:4494   */\n          0x64\n          add\n            /* \"contracts/token.sol\":1263:1325  require(initialSupply != 0, \"Initial supply must be positive\") */\n          tag_13\n            /* \"#utility.yul\":4145:4500   */\n          jump\n            /* \"contracts/token.sol\":1263:1325  require(initialSupply != 0, \"Initial supply must be positive\") */\n        tag_24:\n            /* \"contracts/token.sol\":1381:1400  10 ** decimalsValue */\n          tag_27\n            /* \"contracts/token.sol\":1387:1400  decimalsValue */\n          dup3\n            /* \"contracts/token.sol\":1381:1383  10 */\n          0x0a\n            /* \"contracts/token.sol\":1381:1400  10 ** decimalsValue */\n          tag_28\n          jump\t// in\n        tag_27:\n            /* \"contracts/token.sol\":1360:1401  type(uint256).max / (10 ** decimalsValue) */\n          tag_29\n          swap1\n          not(0x00)\n          tag_30\n          jump\t// in\n        tag_29:\n            /* \"contracts/token.sol\":1343:1356  initialSupply */\n          dup2\n            /* \"contracts/token.sol\":1343:1401  initialSupply <= type(uint256).max / (10 ** decimalsValue) */\n          gt\n          iszero\n            /* \"contracts/token.sol\":1335:1422  require(initialSupply <= type(uint256).max / (10 ** decimalsValue), \"Supply too large\") */\n          tag_31\n          jumpi\n          mload(0x40)\n          shl(0xe5, 0x461bcd)\n          dup2\n          mstore\n            /* \"#utility.yul\":6444:6446   */\n          0x20\n            /* \"contracts/token.sol\":1335:1422  require(initialSupply <= type(uint256).max / (10 ** decimalsValue), \"Supply too large\") */\n          0x04\n          dup3\n          add\n            /* \"#utility.yul\":6426:6447   */\n          mstore\n            /* \"#utility.yul\":6483:6485   */\n          0x10\n            /* \"#utility.yul\":6463:6481   */\n          0x24\n          dup3\n          add\n            /* \"#utility.yul\":6456:6486   */\n          mstore\n          shl(0x80, 0x537570706c7920746f6f206c61726765)\n            /* \"#utility.yul\":6502:6520   */\n          0x44\n          dup3\n          add\n            /* \"#utility.yul\":6495:6541   */\n          mstore\n            /* \"#utility.yul\":6558:6576   */\n          0x64\n          add\n            /* \"contracts/token.sol\":1335:1422  require(initialSupply <= type(uint256).max / (10 ** decimalsValue), \"Supply too large\") */\n          tag_13\n            /* \"#utility.yul\":6242:6582   */\n          jump\n            /* \"contracts/token.sol\":1335:1422  require(initialSupply <= type(uint256).max / (10 ** decimalsValue), \"Supply too large\") */\n        tag_31:\n            /* \"contracts/token.sol\":1433:1442  _decimals */\n          0x05\n            /* \"contracts/token.sol\":1433:1458  _decimals = decimalsValue */\n          dup1\n          sload\n          not(shl(0xa8, 0xff))\n          and\n          shl(0xa8, 0x01)\n          0xff\n          dup6\n          and\n          mul\n          or\n          swap1\n          sstore\n            /* \"contracts/token.sol\":1527:1585  _mint(initialOwner, initialSupply * (10 ** decimalsValue)) */\n          tag_34\n            /* \"contracts/token.sol\":1533:1545  initialOwner */\n          dup4\n            /* \"contracts/token.sol\":1564:1583  10 ** decimalsValue */\n          tag_35\n            /* \"contracts/token.sol\":1433:1458  _decimals = decimalsValue */\n          dup5\n            /* \"contracts/token.sol\":1564:1566  10 */\n          0x0a\n            /* \"contracts/token.sol\":1564:1583  10 ** decimalsValue */\n          tag_28\n          jump\t// in\n        tag_35:\n            /* \"contracts/token.sol\":1547:1584  initialSupply * (10 ** decimalsValue) */\n          tag_36\n          swap1\n            /* \"contracts/token.sol\":1547:1560  initialSupply */\n          dup5\n            /* \"contracts/token.sol\":1547:1584  initialSupply * (10 ** decimalsValue) */\n          tag_37\n          jump\t// in\n        tag_36:\n            /* \"contracts/token.sol\":1527:1532  _mint */\n          tag_38\n            /* \"contracts/token.sol\":1527:1585  _mint(initialOwner, initialSupply * (10 ** decimalsValue)) */\n          jump\t// in\n        tag_34:\n            /* \"contracts/token.sol\":950:1592  constructor(... */\n          pop\n          pop\n          pop\n            /* \"contracts/token.sol\":459:2753  contract WBGZToken is ERC20, ERC20Burnable, Ownable, Pausable {... */\n          jump(tag_77)\n            /* \"@openzeppelin/contracts/access/Ownable.sol\":2912:3099  function _transferOwnership(address newOwner) internal virtual {... */\n        tag_16:\n            /* \"@openzeppelin/contracts/access/Ownable.sol\":3004:3010  _owner */\n          0x05\n          dup1\n          sload\n          sub(shl(0xa0, 0x01), 0x01)\n            /* \"@openzeppelin/contracts/access/Ownable.sol\":3020:3037  _owner = newOwner */\n          dup4\n          dup2\n          and\n          not(sub(shl(0xa0, 0x01), 0x01))\n          dup4\n          and\n          dup2\n          or\n          swap1\n          swap4\n          sstore\n            /* \"@openzeppelin/contracts/access/Ownable.sol\":3052:3092  OwnershipTransferred(oldOwner, newOwner) */\n          mload(0x40)\n            /* \"@openzeppelin/contracts/access/Ownable.sol\":3004:3010  _owner */\n          swap2\n          and\n          swap2\n            /* \"@openzeppelin/contracts/access/Ownable.sol\":3020:3037  _owner = newOwner */\n          swap1\n            /* \"@openzeppelin/contracts/access/Ownable.sol\":3004:3010  _owner */\n          dup3\n          swap1\n            /* \"@openzeppelin/contracts/access/Ownable.sol\":3052:3092  OwnershipTransferred(oldOwner, newOwner) */\n          0x8be0079c531659141344cd1fd0a4f28419497f9722a3daafe3b4186f6b6457e0\n          swap1\n            /* \"@openzeppelin/contracts/access/Ownable.sol\":2985:3001  address oldOwner */\n          0x00\n          swap1\n            /* \"@openzeppelin/contracts/access/Ownable.sol\":3052:3092  OwnershipTransferred(oldOwner, newOwner) */\n          log3\n            /* \"@openzeppelin/contracts/access/Ownable.sol\":2975:3099  {... */\n          pop\n            /* \"@openzeppelin/contracts/access/Ownable.sol\":2912:3099  function _transferOwnership(address newOwner) internal virtual {... */\n          pop\n          jump\t// out\n            /* \"@openzeppelin/contracts/token/ERC20/ERC20.sol\":7362:7570  function _mint(address account, uint256 value) internal {... */\n        tag_38:\n          sub(shl(0xa0, 0x01), 0x01)\n            /* \"@openzeppelin/contracts/token/ERC20/ERC20.sol\":7432:7453  account == address(0) */\n          dup3\n          and\n            /* \"@openzeppelin/contracts/token/ERC20/ERC20.sol\":7428:7519  if (account == address(0)) {... */\n          tag_42\n          jumpi\n            /* \"@openzeppelin/contracts/token/ERC20/ERC20.sol\":7505:7506  0 */\n          0x00\n            /* \"@openzeppelin/contracts/token/ERC20/ERC20.sol\":7476:7508  ERC20InvalidReceiver(address(0)) */\n          mload(0x40)\n          shl(0xe0, 0xec442f05)\n          dup2\n          mstore\n          0x04\n          add\n          tag_13\n          swap2\n          swap1\n          tag_14\n          jump\t// in\n            /* \"@openzeppelin/contracts/token/ERC20/ERC20.sol\":7428:7519  if (account == address(0)) {... */\n        tag_42:\n            /* \"@openzeppelin/contracts/token/ERC20/ERC20.sol\":7528:7563  _update(address(0), account, value) */\n          tag_44\n            /* \"@openzeppelin/contracts/token/ERC20/ERC20.sol\":7544:7545  0 */\n          0x00\n            /* \"@openzeppelin/contracts/token/ERC20/ERC20.sol\":7548:7555  account */\n          dup4\n            /* \"@openzeppelin/contracts/token/ERC20/ERC20.sol\":7557:7562  value */\n          dup4\n            /* \"@openzeppelin/contracts/token/ERC20/ERC20.sol\":7528:7535  _update */\n          tag_45\n            /* \"@openzeppelin/contracts/token/ERC20/ERC20.sol\":7528:7563  _update(address(0), account, value) */\n          jump\t// in\n        tag_44:\n            /* \"@openzeppelin/contracts/token/ERC20/ERC20.sol\":7362:7570  function _mint(address account, uint256 value) internal {... */\n          pop\n          pop\n          jump\t// out\n            /* \"contracts/token.sol\":2584:2751  function _update(... */\n        tag_45:\n            /* \"@openzeppelin/contracts/utils/Pausable.sol\":1350:1369  _requireNotPaused() */\n          tag_47\n            /* \"@openzeppelin/contracts/utils/Pausable.sol\":1350:1367  _requireNotPaused */\n          tag_48\n            /* \"@openzeppelin/contracts/utils/Pausable.sol\":1350:1369  _requireNotPaused() */\n          jump\t// in\n        tag_47:\n            /* \"contracts/token.sol\":2714:2744  super._update(from, to, value) */\n          tag_50\n            /* \"contracts/token.sol\":2728:2732  from */\n          dup4\n            /* \"contracts/token.sol\":2734:2736  to */\n          dup4\n            /* \"contracts/token.sol\":2738:2743  value */\n          dup4\n            /* \"contracts/token.sol\":2714:2727  super._update */\n          tag_51\n            /* \"contracts/token.sol\":2714:2744  super._update(from, to, value) */\n          jump\t// in\n        tag_50:\n            /* \"contracts/token.sol\":2584:2751  function _update(... */\n          pop\n          pop\n          pop\n          jump\t// out\n            /* \"@openzeppelin/contracts/utils/Pausable.sol\":1878:2006  function _requireNotPaused() internal view virtual {... */\n        tag_48:\n            /* \"@openzeppelin/contracts/utils/Pausable.sol\":1943:1951  paused() */\n          tag_53\n            /* \"@openzeppelin/contracts/utils/Pausable.sol\":1796:1803  _paused */\n          sload(0x05)\n          shl(0xa0, 0x01)\n          swap1\n          div\n          0xff\n          and\n          swap1\n            /* \"@openzeppelin/contracts/utils/Pausable.sol\":1726:1810  function paused() public view virtual returns (bool) {... */\n          jump\n            /* \"@openzeppelin/contracts/utils/Pausable.sol\":1943:1951  paused() */\n        tag_53:\n            /* \"@openzeppelin/contracts/utils/Pausable.sol\":1939:2000  if (paused()) {... */\n          iszero\n          tag_55\n          jumpi\n            /* \"@openzeppelin/contracts/utils/Pausable.sol\":1974:1989  EnforcedPause() */\n          mload(0x40)\n          shl(0xe0, 0xd93c0665)\n          dup2\n          mstore\n          0x04\n          add\n          mload(0x40)\n          dup1\n          swap2\n          sub\n          swap1\n          revert\n            /* \"@openzeppelin/contracts/utils/Pausable.sol\":1939:2000  if (paused()) {... */\n        tag_55:\n            /* \"@openzeppelin/contracts/utils/Pausable.sol\":1878:2006  function _requireNotPaused() internal view virtual {... */\n          jump\t// out\n            /* \"@openzeppelin/contracts/token/ERC20/ERC20.sol\":5912:7019  function _update(address from, address to, uint256 value) internal virtual {... */\n        tag_51:\n          sub(shl(0xa0, 0x01), 0x01)\n            /* \"@openzeppelin/contracts/token/ERC20/ERC20.sol\":6001:6019  from == address(0) */\n          dup4\n          and\n            /* \"@openzeppelin/contracts/token/ERC20/ERC20.sol\":5997:6537  if (from == address(0)) {... */\n          tag_57\n          jumpi\n            /* \"@openzeppelin/contracts/token/ERC20/ERC20.sol\":6153:6158  value */\n          dup1\n            /* \"@openzeppelin/contracts/token/ERC20/ERC20.sol\":6137:6149  _totalSupply */\n          0x02\n          0x00\n            /* \"@openzeppelin/contracts/token/ERC20/ERC20.sol\":6137:6158  _totalSupply += value */\n          dup3\n          dup3\n          sload\n          tag_58\n          swap2\n          swap1\n          tag_59\n          jump\t// in\n        tag_58:\n          swap1\n          swap2\n          sstore\n          pop\n            /* \"@openzeppelin/contracts/token/ERC20/ERC20.sol\":5997:6537  if (from == address(0)) {... */\n          tag_60\n          swap1\n          pop\n          jump\n        tag_57:\n          sub(shl(0xa0, 0x01), 0x01)\n            /* \"@openzeppelin/contracts/token/ERC20/ERC20.sol\":6211:6226  _balances[from] */\n          dup4\n          and\n            /* \"@openzeppelin/contracts/token/ERC20/ERC20.sol\":6189:6208  uint256 fromBalance */\n          0x00\n            /* \"@openzeppelin/contracts/token/ERC20/ERC20.sol\":6211:6226  _balances[from] */\n          swap1\n          dup2\n          mstore\n          0x20\n          dup2\n          swap1\n          mstore\n          0x40\n          swap1\n          keccak256\n          sload\n            /* \"@openzeppelin/contracts/token/ERC20/ERC20.sol\":6244:6263  fromBalance < value */\n          dup2\n          dup2\n          lt\n            /* \"@openzeppelin/contracts/token/ERC20/ERC20.sol\":6240:6355  if (fromBalance < value) {... */\n          iszero\n          tag_61\n          jumpi\n            /* \"@openzeppelin/contracts/token/ERC20/ERC20.sol\":6290:6340  ERC20InsufficientBalance(from, fromBalance, value) */\n          mload(0x40)\n          shl(0xe2, 0x391434e3)\n          dup2\n          mstore\n          sub(shl(0xa0, 0x01), 0x01)\n            /* \"#utility.yul\":7110:7142   */\n          dup6\n          and\n            /* \"@openzeppelin/contracts/token/ERC20/ERC20.sol\":6290:6340  ERC20InsufficientBalance(from, fromBalance, value) */\n          0x04\n          dup3\n          add\n            /* \"#utility.yul\":7092:7143   */\n          mstore\n            /* \"#utility.yul\":7159:7177   */\n          0x24\n          dup2\n          add\n            /* \"#utility.yul\":7152:7186   */\n          dup3\n          swap1\n          mstore\n            /* \"#utility.yul\":7202:7220   */\n          0x44\n          dup2\n          add\n            /* \"#utility.yul\":7195:7229   */\n          dup4\n          swap1\n          mstore\n            /* \"#utility.yul\":7065:7083   */\n          0x64\n          add\n            /* \"@openzeppelin/contracts/token/ERC20/ERC20.sol\":6290:6340  ERC20InsufficientBalance(from, fromBalance, value) */\n          tag_13\n            /* \"#utility.yul\":6890:7235   */\n          jump\n            /* \"@openzeppelin/contracts/token/ERC20/ERC20.sol\":6240:6355  if (fromBalance < value) {... */\n        tag_61:\n          sub(shl(0xa0, 0x01), 0x01)\n            /* \"@openzeppelin/contracts/token/ERC20/ERC20.sol\":6475:6490  _balances[from] */\n          dup5\n          and\n            /* \"@openzeppelin/contracts/token/ERC20/ERC20.sol\":6475:6484  _balances */\n          0x00\n            /* \"@openzeppelin/contracts/token/ERC20/ERC20.sol\":6475:6490  _balances[from] */\n          swap1\n          dup2\n          mstore\n          0x20\n          dup2\n          swap1\n          mstore\n          0x40\n          swap1\n          keccak256\n            /* \"@openzeppelin/contracts/token/ERC20/ERC20.sol\":6493:6512  fromBalance - value */\n          swap1\n          dup3\n          swap1\n          sub\n            /* \"@openzeppelin/contracts/token/ERC20/ERC20.sol\":6475:6512  _balances[from] = fromBalance - value */\n          swap1\n          sstore\n            /* \"@openzeppelin/contracts/token/ERC20/ERC20.sol\":5997:6537  if (from == address(0)) {... */\n        tag_60:\n          sub(shl(0xa0, 0x01), 0x01)\n            /* \"@openzeppelin/contracts/token/ERC20/ERC20.sol\":6551:6567  to == address(0) */\n          dup3\n          and\n            /* \"@openzeppelin/contracts/token/ERC20/ERC20.sol\":6547:6972  if (to == address(0)) {... */\n          tag_64\n          jumpi\n            /* \"@openzeppelin/contracts/token/ERC20/ERC20.sol\":6714:6726  _totalSupply */\n          0x02\n            /* \"@openzeppelin/contracts/token/ERC20/ERC20.sol\":6714:6735  _totalSupply -= value */\n          dup1\n          sload\n          dup3\n          swap1\n          sub\n          swap1\n          sstore\n            /* \"@openzeppelin/contracts/token/ERC20/ERC20.sol\":6547:6972  if (to == address(0)) {... */\n          jump(tag_65)\n        tag_64:\n          sub(shl(0xa0, 0x01), 0x01)\n            /* \"@openzeppelin/contracts/token/ERC20/ERC20.sol\":6925:6938  _balances[to] */\n          dup3\n          and\n            /* \"@openzeppelin/contracts/token/ERC20/ERC20.sol\":6925:6934  _balances */\n          0x00\n            /* \"@openzeppelin/contracts/token/ERC20/ERC20.sol\":6925:6938  _balances[to] */\n          swap1\n          dup2\n          mstore\n          0x20\n          dup2\n          swap1\n          mstore\n          0x40\n          swap1\n          keccak256\n            /* \"@openzeppelin/contracts/token/ERC20/ERC20.sol\":6925:6947  _balances[to] += value */\n          dup1\n          sload\n          dup3\n          add\n          swap1\n          sstore\n            /* \"@openzeppelin/contracts/token/ERC20/ERC20.sol\":6547:6972  if (to == address(0)) {... */\n        tag_65:\n            /* \"@openzeppelin/contracts/token/ERC20/ERC20.sol\":7002:7004  to */\n          dup2\n          sub(shl(0xa0, 0x01), 0x01)\n            /* \"@openzeppelin/contracts/token/ERC20/ERC20.sol\":6987:7012  Transfer(from, to, value) */\n          and\n            /* \"@openzeppelin/contracts/token/ERC20/ERC20.sol\":6996:7000  from */\n          dup4\n          sub(shl(0xa0, 0x01), 0x01)\n            /* \"@openzeppelin/contracts/token/ERC20/ERC20.sol\":6987:7012  Transfer(from, to, value) */\n          and\n          0xddf252ad1be2c89b69c2b068fc378daa952ba7f163c4a11628f55a4df523b3ef\n            /* \"@openzeppelin/contracts/token/ERC20/ERC20.sol\":7006:7011  value */\n          dup4\n            /* \"@openzeppelin/contracts/token/ERC20/ERC20.sol\":6987:7012  Transfer(from, to, value) */\n          mload(0x40)\n          tag_66\n          swap2\n            /* \"#utility.yul\":7386:7411   */\n          dup2\n          mstore\n            /* \"#utility.yul\":7374:7376   */\n          0x20\n            /* \"#utility.yul\":7359:7377   */\n          add\n          swap1\n            /* \"#utility.yul\":7240:7417   */\n          jump\n            /* \"@openzeppelin/contracts/token/ERC20/ERC20.sol\":6987:7012  Transfer(from, to, value) */\n        tag_66:\n          mload(0x40)\n          dup1\n          swap2\n          sub\n          swap1\n          log3\n            /* \"@openzeppelin/contracts/token/ERC20/ERC20.sol\":5912:7019  function _update(address from, address to, uint256 value) internal virtual {... */\n          pop\n          pop\n          pop\n          jump\t// out\n            /* \"#utility.yul\":14:523   */\n        tag_3:\n            /* \"#utility.yul\":100:106   */\n          0x00\n            /* \"#utility.yul\":108:114   */\n          dup1\n            /* \"#utility.yul\":116:122   */\n          0x00\n            /* \"#utility.yul\":169:171   */\n          0x60\n            /* \"#utility.yul\":157:166   */\n          dup5\n            /* \"#utility.yul\":148:155   */\n          dup7\n            /* \"#utility.yul\":144:167   */\n          sub\n            /* \"#utility.yul\":140:172   */\n          slt\n            /* \"#utility.yul\":137:189   */\n          iszero\n          tag_79\n          jumpi\n            /* \"#utility.yul\":185:186   */\n          0x00\n            /* \"#utility.yul\":182:183   */\n          dup1\n            /* \"#utility.yul\":175:187   */\n          revert\n            /* \"#utility.yul\":137:189   */\n        tag_79:\n            /* \"#utility.yul\":211:227   */\n          dup4\n          mload\n          sub(shl(0xa0, 0x01), 0x01)\n            /* \"#utility.yul\":256:287   */\n          dup2\n          and\n            /* \"#utility.yul\":246:288   */\n          dup2\n          eq\n            /* \"#utility.yul\":236:306   */\n          tag_80\n          jumpi\n            /* \"#utility.yul\":302:303   */\n          0x00\n            /* \"#utility.yul\":299:300   */\n          dup1\n            /* \"#utility.yul\":292:304   */\n          revert\n            /* \"#utility.yul\":236:306   */\n        tag_80:\n            /* \"#utility.yul\":375:377   */\n          0x20\n            /* \"#utility.yul\":360:378   */\n          dup6\n          add\n            /* \"#utility.yul\":354:379   */\n          mload\n            /* \"#utility.yul\":325:330   */\n          swap1\n          swap4\n          pop\n            /* \"#utility.yul\":423:427   */\n          0xff\n            /* \"#utility.yul\":410:428   */\n          dup2\n          and\n            /* \"#utility.yul\":398:429   */\n          dup2\n          eq\n            /* \"#utility.yul\":388:447   */\n          tag_81\n          jumpi\n            /* \"#utility.yul\":443:444   */\n          0x00\n            /* \"#utility.yul\":440:441   */\n          dup1\n            /* \"#utility.yul\":433:445   */\n          revert\n            /* \"#utility.yul\":388:447   */\n        tag_81:\n            /* \"#utility.yul\":466:473   */\n          dup1\n            /* \"#utility.yul\":456:473   */\n          swap3\n          pop\n          pop\n            /* \"#utility.yul\":513:515   */\n          0x40\n            /* \"#utility.yul\":502:511   */\n          dup5\n            /* \"#utility.yul\":498:516   */\n          add\n            /* \"#utility.yul\":492:517   */\n          mload\n            /* \"#utility.yul\":482:517   */\n          swap1\n          pop\n            /* \"#utility.yul\":14:523   */\n          swap3\n          pop\n          swap3\n          pop\n          swap3\n          jump\t// out\n            /* \"#utility.yul\":528:655   */\n        tag_69:\n            /* \"#utility.yul\":589:599   */\n          0x4e487b71\n            /* \"#utility.yul\":584:587   */\n          0xe0\n            /* \"#utility.yul\":580:600   */\n          shl\n            /* \"#utility.yul\":577:578   */\n          0x00\n            /* \"#utility.yul\":570:601   */\n          mstore\n            /* \"#utility.yul\":620:624   */\n          0x41\n            /* \"#utility.yul\":617:618   */\n          0x04\n            /* \"#utility.yul\":610:625   */\n          mstore\n            /* \"#utility.yul\":644:648   */\n          0x24\n            /* \"#utility.yul\":641:642   */\n          0x00\n            /* \"#utility.yul\":634:649   */\n          revert\n            /* \"#utility.yul\":660:1040   */\n        tag_70:\n            /* \"#utility.yul\":739:740   */\n          0x01\n            /* \"#utility.yul\":735:747   */\n          dup2\n          dup2\n          shr\n          swap1\n            /* \"#utility.yul\":782:794   */\n          dup3\n          and\n          dup1\n            /* \"#utility.yul\":803:864   */\n          tag_84\n          jumpi\n            /* \"#utility.yul\":857:861   */\n          0x7f\n            /* \"#utility.yul\":849:855   */\n          dup3\n            /* \"#utility.yul\":845:862   */\n          and\n            /* \"#utility.yul\":835:862   */\n          swap2\n          pop\n            /* \"#utility.yul\":803:864   */\n        tag_84:\n            /* \"#utility.yul\":910:912   */\n          0x20\n            /* \"#utility.yul\":902:908   */\n          dup3\n            /* \"#utility.yul\":899:913   */\n          lt\n            /* \"#utility.yul\":879:897   */\n          dup2\n            /* \"#utility.yul\":876:914   */\n          sub\n            /* \"#utility.yul\":873:1034   */\n          tag_85\n          jumpi\n            /* \"#utility.yul\":956:966   */\n          0x4e487b71\n            /* \"#utility.yul\":951:954   */\n          0xe0\n            /* \"#utility.yul\":947:967   */\n          shl\n            /* \"#utility.yul\":944:945   */\n          0x00\n            /* \"#utility.yul\":937:968   */\n          mstore\n            /* \"#utility.yul\":991:995   */\n          0x22\n            /* \"#utility.yul\":988:989   */\n          0x04\n            /* \"#utility.yul\":981:996   */\n          mstore\n            /* \"#utility.yul\":1019:1023   */\n          0x24\n            /* \"#utility.yul\":1016:1017   */\n          0x00\n            /* \"#utility.yul\":1009:1024   */\n          revert\n            /* \"#utility.yul\":873:1034   */\n        tag_85:\n          pop\n            /* \"#utility.yul\":660:1040   */\n          swap2\n          swap1\n          pop\n          jump\t// out\n            /* \"#utility.yul\":1171:1716   */\n        tag_72:\n            /* \"#utility.yul\":1273:1275   */\n          0x1f\n            /* \"#utility.yul\":1268:1271   */\n          dup3\n            /* \"#utility.yul\":1265:1276   */\n          gt\n            /* \"#utility.yul\":1262:1710   */\n          iszero\n          tag_50\n          jumpi\n            /* \"#utility.yul\":1309:1310   */\n          0x00\n            /* \"#utility.yul\":1334:1339   */\n          dup2\n            /* \"#utility.yul\":1330:1332   */\n          dup2\n            /* \"#utility.yul\":1323:1340   */\n          mstore\n            /* \"#utility.yul\":1379:1383   */\n          0x20\n            /* \"#utility.yul\":1375:1377   */\n          dup2\n            /* \"#utility.yul\":1365:1384   */\n          keccak256\n            /* \"#utility.yul\":1449:1451   */\n          0x1f\n            /* \"#utility.yul\":1437:1447   */\n          dup6\n            /* \"#utility.yul\":1433:1452   */\n          add\n            /* \"#utility.yul\":1430:1431   */\n          0x05\n            /* \"#utility.yul\":1426:1453   */\n          shr\n            /* \"#utility.yul\":1420:1424   */\n          dup2\n            /* \"#utility.yul\":1416:1454   */\n          add\n            /* \"#utility.yul\":1485:1489   */\n          0x20\n            /* \"#utility.yul\":1473:1483   */\n          dup7\n            /* \"#utility.yul\":1470:1490   */\n          lt\n            /* \"#utility.yul\":1467:1514   */\n          iszero\n          tag_89\n          jumpi\n          pop\n            /* \"#utility.yul\":1508:1512   */\n          dup1\n            /* \"#utility.yul\":1467:1514   */\n        tag_89:\n            /* \"#utility.yul\":1563:1565   */\n          0x1f\n            /* \"#utility.yul\":1558:1561   */\n          dup6\n            /* \"#utility.yul\":1554:1566   */\n          add\n            /* \"#utility.yul\":1551:1552   */\n          0x05\n            /* \"#utility.yul\":1547:1567   */\n          shr\n            /* \"#utility.yul\":1541:1545   */\n          dup3\n            /* \"#utility.yul\":1537:1568   */\n          add\n            /* \"#utility.yul\":1527:1568   */\n          swap2\n          pop\n            /* \"#utility.yul\":1618:1700   */\n        tag_90:\n            /* \"#utility.yul\":1636:1638   */\n          dup2\n            /* \"#utility.yul\":1629:1634   */\n          dup2\n            /* \"#utility.yul\":1626:1639   */\n          lt\n            /* \"#utility.yul\":1618:1700   */\n          iszero\n          tag_92\n          jumpi\n            /* \"#utility.yul\":1681:1698   */\n          dup3\n          dup2\n          sstore\n            /* \"#utility.yul\":1662:1663   */\n          0x01\n            /* \"#utility.yul\":1651:1664   */\n          add\n            /* \"#utility.yul\":1618:1700   */\n          jump(tag_90)\n        tag_92:\n            /* \"#utility.yul\":1622:1625   */\n          pop\n          pop\n          pop\n            /* \"#utility.yul\":1171:1716   */\n          pop\n          pop\n          pop\n          jump\t// out\n            /* \"#utility.yul\":1892:3244   */\n        tag_9:\n            /* \"#utility.yul\":2012:2022   */\n          dup2\n          mload\n          sub(shl(0x40, 0x01), 0x01)\n            /* \"#utility.yul\":2034:2064   */\n          dup2\n          gt\n            /* \"#utility.yul\":2031:2087   */\n          iszero\n          tag_96\n          jumpi\n            /* \"#utility.yul\":2067:2085   */\n          tag_96\n          tag_69\n          jump\t// in\n        tag_96:\n            /* \"#utility.yul\":2096:2193   */\n          tag_97\n            /* \"#utility.yul\":2186:2192   */\n          dup2\n            /* \"#utility.yul\":2146:2184   */\n          tag_98\n            /* \"#utility.yul\":2178:2182   */\n          dup5\n            /* \"#utility.yul\":2172:2183   */\n          sload\n            /* \"#utility.yul\":2146:2184   */\n          tag_70\n          jump\t// in\n        tag_98:\n            /* \"#utility.yul\":2140:2144   */\n          dup5\n            /* \"#utility.yul\":2096:2193   */\n          tag_72\n          jump\t// in\n        tag_97:\n            /* \"#utility.yul\":2248:2252   */\n          0x20\n          dup1\n            /* \"#utility.yul\":2312:2314   */\n          0x1f\n            /* \"#utility.yul\":2301:2315   */\n          dup4\n          gt\n            /* \"#utility.yul\":2329:2330   */\n          0x01\n            /* \"#utility.yul\":2324:2987   */\n          dup2\n          eq\n          tag_100\n          jumpi\n            /* \"#utility.yul\":3031:3032   */\n          0x00\n            /* \"#utility.yul\":3048:3054   */\n          dup5\n            /* \"#utility.yul\":3045:3134   */\n          iszero\n          tag_101\n          jumpi\n          pop\n            /* \"#utility.yul\":3100:3119   */\n          dup6\n          dup4\n          add\n            /* \"#utility.yul\":3094:3120   */\n          mload\n            /* \"#utility.yul\":3045:3134   */\n        tag_101:\n          not(0x00)\n            /* \"#utility.yul\":1849:1850   */\n          0x03\n            /* \"#utility.yul\":1845:1856   */\n          dup7\n          swap1\n          shl\n            /* \"#utility.yul\":1841:1865   */\n          shr\n            /* \"#utility.yul\":1837:1866   */\n          not\n            /* \"#utility.yul\":1827:1867   */\n          and\n            /* \"#utility.yul\":1873:1874   */\n          0x01\n            /* \"#utility.yul\":1869:1880   */\n          dup6\n          swap1\n          shl\n            /* \"#utility.yul\":1824:1881   */\n          or\n            /* \"#utility.yul\":3147:3228   */\n          dup6\n          sstore\n            /* \"#utility.yul\":2294:3238   */\n          jump(tag_92)\n            /* \"#utility.yul\":2324:2987   */\n        tag_100:\n            /* \"#utility.yul\":1118:1119   */\n          0x00\n            /* \"#utility.yul\":1111:1125   */\n          dup6\n          dup2\n          mstore\n            /* \"#utility.yul\":1155:1159   */\n          0x20\n            /* \"#utility.yul\":1142:1160   */\n          dup2\n          keccak256\n          not(0x1f)\n            /* \"#utility.yul\":2360:2380   */\n          dup7\n          and\n          swap2\n            /* \"#utility.yul\":2478:2714   */\n        tag_104:\n            /* \"#utility.yul\":2492:2499   */\n          dup3\n            /* \"#utility.yul\":2489:2490   */\n          dup2\n            /* \"#utility.yul\":2486:2500   */\n          lt\n            /* \"#utility.yul\":2478:2714   */\n          iszero\n          tag_106\n          jumpi\n            /* \"#utility.yul\":2581:2600   */\n          dup9\n          dup7\n          add\n            /* \"#utility.yul\":2575:2601   */\n          mload\n            /* \"#utility.yul\":2560:2602   */\n          dup3\n          sstore\n            /* \"#utility.yul\":2673:2700   */\n          swap5\n          dup5\n          add\n          swap5\n            /* \"#utility.yul\":2641:2642   */\n          0x01\n            /* \"#utility.yul\":2629:2643   */\n          swap1\n          swap2\n          add\n          swap1\n            /* \"#utility.yul\":2508:2527   */\n          dup5\n          add\n            /* \"#utility.yul\":2478:2714   */\n          jump(tag_104)\n        tag_106:\n            /* \"#utility.yul\":2482:2485   */\n          pop\n            /* \"#utility.yul\":2742:2748   */\n          dup6\n            /* \"#utility.yul\":2733:2740   */\n          dup3\n            /* \"#utility.yul\":2730:2749   */\n          lt\n            /* \"#utility.yul\":2727:2928   */\n          iszero\n          tag_107\n          jumpi\n            /* \"#utility.yul\":2803:2822   */\n          dup8\n          dup6\n          add\n            /* \"#utility.yul\":2797:2823   */\n          mload\n          not(0x00)\n            /* \"#utility.yul\":2886:2887   */\n          0x03\n            /* \"#utility.yul\":2882:2896   */\n          dup9\n          swap1\n          shl\n            /* \"#utility.yul\":2898:2901   */\n          0xf8\n            /* \"#utility.yul\":2878:2902   */\n          and\n            /* \"#utility.yul\":2874:2911   */\n          shr\n            /* \"#utility.yul\":2870:2912   */\n          not\n            /* \"#utility.yul\":2855:2913   */\n          and\n            /* \"#utility.yul\":2840:2914   */\n          dup2\n          sstore\n            /* \"#utility.yul\":2727:2928   */\n        tag_107:\n          pop\n          pop\n          pop\n          pop\n          pop\n            /* \"#utility.yul\":2974:2975   */\n          0x01\n            /* \"#utility.yul\":2958:2972   */\n          swap1\n          dup2\n          shl\n            /* \"#utility.yul\":2954:2976   */\n          add\n            /* \"#utility.yul\":2941:2977   */\n          swap1\n          sstore\n          pop\n            /* \"#utility.yul\":1892:3244   */\n          jump\t// out\n            /* \"#utility.yul\":3249:3452   */\n        tag_14:\n          sub(shl(0xa0, 0x01), 0x01)\n            /* \"#utility.yul\":3413:3445   */\n          swap2\n          swap1\n          swap2\n          and\n            /* \"#utility.yul\":3395:3446   */\n          dup2\n          mstore\n            /* \"#utility.yul\":3383:3385   */\n          0x20\n            /* \"#utility.yul\":3368:3386   */\n          add\n          swap1\n            /* \"#utility.yul\":3249:3452   */\n          jump\t// out\n            /* \"#utility.yul\":4505:4632   */\n        tag_74:\n            /* \"#utility.yul\":4566:4576   */\n          0x4e487b71\n            /* \"#utility.yul\":4561:4564   */\n          0xe0\n            /* \"#utility.yul\":4557:4577   */\n          shl\n            /* \"#utility.yul\":4554:4555   */\n          0x00\n            /* \"#utility.yul\":4547:4578   */\n          mstore\n            /* \"#utility.yul\":4597:4601   */\n          0x11\n            /* \"#utility.yul\":4594:4595   */\n          0x04\n            /* \"#utility.yul\":4587:4602   */\n          mstore\n            /* \"#utility.yul\":4621:4625   */\n          0x24\n            /* \"#utility.yul\":4618:4619   */\n          0x00\n            /* \"#utility.yul\":4611:4626   */\n          revert\n            /* \"#utility.yul\":4637:5059   */\n        tag_75:\n            /* \"#utility.yul\":4726:4727   */\n          0x01\n            /* \"#utility.yul\":4769:4774   */\n          dup2\n            /* \"#utility.yul\":4726:4727   */\n          dup2\n            /* \"#utility.yul\":4783:5053   */\n        tag_114:\n            /* \"#utility.yul\":4804:4811   */\n          dup1\n            /* \"#utility.yul\":4794:4802   */\n          dup6\n            /* \"#utility.yul\":4791:4812   */\n          gt\n            /* \"#utility.yul\":4783:5053   */\n          iszero\n          tag_116\n          jumpi\n            /* \"#utility.yul\":4863:4867   */\n          dup2\n            /* \"#utility.yul\":4859:4860   */\n          0x00\n            /* \"#utility.yul\":4855:4861   */\n          not\n            /* \"#utility.yul\":4851:4868   */\n          div\n            /* \"#utility.yul\":4845:4849   */\n          dup3\n            /* \"#utility.yul\":4842:4869   */\n          gt\n            /* \"#utility.yul\":4839:4892   */\n          iszero\n          tag_118\n          jumpi\n            /* \"#utility.yul\":4872:4890   */\n          tag_118\n          tag_74\n          jump\t// in\n        tag_118:\n            /* \"#utility.yul\":4922:4929   */\n          dup1\n            /* \"#utility.yul\":4912:4920   */\n          dup6\n            /* \"#utility.yul\":4908:4930   */\n          and\n            /* \"#utility.yul\":4905:4960   */\n          iszero\n          tag_119\n          jumpi\n            /* \"#utility.yul\":4942:4958   */\n          swap2\n          dup2\n          mul\n          swap2\n            /* \"#utility.yul\":4905:4960   */\n        tag_119:\n            /* \"#utility.yul\":5021:5043   */\n          swap4\n          dup5\n          shr\n          swap4\n            /* \"#utility.yul\":4981:4996   */\n          swap1\n          dup1\n          mul\n          swap1\n            /* \"#utility.yul\":4783:5053   */\n          jump(tag_114)\n        tag_116:\n            /* \"#utility.yul\":4787:4790   */\n          pop\n            /* \"#utility.yul\":4637:5059   */\n          swap3\n          pop\n          swap3\n          swap1\n          pop\n          jump\t// out\n            /* \"#utility.yul\":5064:5870   */\n        tag_76:\n            /* \"#utility.yul\":5113:5118   */\n          0x00\n            /* \"#utility.yul\":5143:5151   */\n          dup3\n            /* \"#utility.yul\":5133:5213   */\n          tag_121\n          jumpi\n          pop\n            /* \"#utility.yul\":5184:5185   */\n          0x01\n            /* \"#utility.yul\":5198:5203   */\n          jump(tag_120)\n            /* \"#utility.yul\":5133:5213   */\n        tag_121:\n            /* \"#utility.yul\":5232:5236   */\n          dup2\n            /* \"#utility.yul\":5222:5298   */\n          tag_122\n          jumpi\n          pop\n            /* \"#utility.yul\":5269:5270   */\n          0x00\n            /* \"#utility.yul\":5283:5288   */\n          jump(tag_120)\n            /* \"#utility.yul\":5222:5298   */\n        tag_122:\n            /* \"#utility.yul\":5314:5318   */\n          dup2\n            /* \"#utility.yul\":5332:5333   */\n          0x01\n            /* \"#utility.yul\":5327:5386   */\n          dup2\n          eq\n          tag_124\n          jumpi\n            /* \"#utility.yul\":5400:5401   */\n          0x02\n            /* \"#utility.yul\":5395:5525   */\n          dup2\n          eq\n          tag_125\n          jumpi\n            /* \"#utility.yul\":5307:5525   */\n          jump(tag_123)\n            /* \"#utility.yul\":5327:5386   */\n        tag_124:\n            /* \"#utility.yul\":5357:5358   */\n          0x01\n            /* \"#utility.yul\":5348:5358   */\n          swap2\n          pop\n            /* \"#utility.yul\":5371:5376   */\n          pop\n          jump(tag_120)\n            /* \"#utility.yul\":5395:5525   */\n        tag_125:\n            /* \"#utility.yul\":5432:5435   */\n          0xff\n            /* \"#utility.yul\":5422:5430   */\n          dup5\n            /* \"#utility.yul\":5419:5436   */\n          gt\n            /* \"#utility.yul\":5416:5459   */\n          iszero\n          tag_127\n          jumpi\n            /* \"#utility.yul\":5439:5457   */\n          tag_127\n          tag_74\n          jump\t// in\n        tag_127:\n          pop\n          pop\n            /* \"#utility.yul\":5495:5496   */\n          0x01\n            /* \"#utility.yul\":5481:5497   */\n          dup3\n          shl\n            /* \"#utility.yul\":5510:5515   */\n          jump(tag_120)\n            /* \"#utility.yul\":5307:5525   */\n        tag_123:\n          pop\n            /* \"#utility.yul\":5609:5611   */\n          0x20\n            /* \"#utility.yul\":5599:5607   */\n          dup4\n            /* \"#utility.yul\":5596:5612   */\n          lt\n            /* \"#utility.yul\":5590:5593   */\n          0x0133\n            /* \"#utility.yul\":5584:5588   */\n          dup4\n            /* \"#utility.yul\":5581:5594   */\n          lt\n            /* \"#utility.yul\":5577:5613   */\n          and\n            /* \"#utility.yul\":5571:5573   */\n          0x4e\n            /* \"#utility.yul\":5561:5569   */\n          dup5\n            /* \"#utility.yul\":5558:5574   */\n          lt\n            /* \"#utility.yul\":5553:5555   */\n          0x0b\n            /* \"#utility.yul\":5547:5551   */\n          dup5\n            /* \"#utility.yul\":5544:5556   */\n          lt\n            /* \"#utility.yul\":5540:5575   */\n          and\n            /* \"#utility.yul\":5537:5614   */\n          or\n            /* \"#utility.yul\":5534:5693   */\n          iszero\n          tag_128\n          jumpi\n          pop\n            /* \"#utility.yul\":5646:5665   */\n          dup2\n          dup2\n          exp\n            /* \"#utility.yul\":5678:5683   */\n          jump(tag_120)\n            /* \"#utility.yul\":5534:5693   */\n        tag_128:\n            /* \"#utility.yul\":5725:5759   */\n          tag_129\n            /* \"#utility.yul\":5750:5758   */\n          dup4\n            /* \"#utility.yul\":5744:5748   */\n          dup4\n            /* \"#utility.yul\":5725:5759   */\n          tag_75\n          jump\t// in\n        tag_129:\n            /* \"#utility.yul\":5795:5801   */\n          dup1\n            /* \"#utility.yul\":5791:5792   */\n          0x00\n            /* \"#utility.yul\":5787:5793   */\n          not\n            /* \"#utility.yul\":5783:5802   */\n          div\n            /* \"#utility.yul\":5774:5781   */\n          dup3\n            /* \"#utility.yul\":5771:5803   */\n          gt\n            /* \"#utility.yul\":5768:5826   */\n          iszero\n          tag_131\n          jumpi\n            /* \"#utility.yul\":5806:5824   */\n          tag_131\n          tag_74\n          jump\t// in\n        tag_131:\n            /* \"#utility.yul\":5844:5864   */\n          mul\n          swap1\n          pop\n            /* \"#utility.yul\":5064:5870   */\n        tag_120:\n          swap3\n          swap2\n          pop\n          pop\n          jump\t// out\n            /* \"#utility.yul\":5875:6015   */\n        tag_28:\n            /* \"#utility.yul\":5933:5938   */\n          0x00\n            /* \"#utility.yul\":5962:6009   */\n          tag_133\n            /* \"#utility.yul\":6003:6007   */\n          0xff\n            /* \"#utility.yul\":5993:6001   */\n          dup5\n            /* \"#utility.yul\":5989:6008   */\n          and\n            /* \"#utility.yul\":5983:5987   */\n          dup4\n            /* \"#utility.yul\":5962:6009   */\n          tag_76\n          jump\t// in\n        tag_133:\n            /* \"#utility.yul\":5953:6009   */\n          swap4\n            /* \"#utility.yul\":5875:6015   */\n          swap3\n          pop\n          pop\n          pop\n          jump\t// out\n            /* \"#utility.yul\":6020:6237   */\n        tag_30:\n            /* \"#utility.yul\":6060:6061   */\n          0x00\n            /* \"#utility.yul\":6086:6087   */\n          dup3\n            /* \"#utility.yul\":6076:6208   */\n          tag_135\n          jumpi\n            /* \"#utility.yul\":6130:6140   */\n          0x4e487b71\n            /* \"#utility.yul\":6125:6128   */\n          0xe0\n            /* \"#utility.yul\":6121:6141   */\n          shl\n            /* \"#utility.yul\":6118:6119   */\n          0x00\n            /* \"#utility.yul\":6111:6142   */\n          mstore\n            /* \"#utility.yul\":6165:6169   */\n          0x12\n            /* \"#utility.yul\":6162:6163   */\n          0x04\n            /* \"#utility.yul\":6155:6170   */\n          mstore\n            /* \"#utility.yul\":6193:6197   */\n          0x24\n            /* \"#utility.yul\":6190:6191   */\n          0x00\n            /* \"#utility.yul\":6183:6198   */\n          revert\n            /* \"#utility.yul\":6076:6208   */\n        tag_135:\n          pop\n            /* \"#utility.yul\":6222:6231   */\n          div\n          swap1\n            /* \"#utility.yul\":6020:6237   */\n          jump\t// out\n            /* \"#utility.yul\":6587:6755   */\n        tag_37:\n            /* \"#utility.yul\":6660:6669   */\n          dup1\n          dup3\n          mul\n            /* \"#utility.yul\":6691:6700   */\n          dup2\n          iszero\n            /* \"#utility.yul\":6708:6723   */\n          dup3\n          dup3\n          div\n            /* \"#utility.yul\":6702:6724   */\n          dup5\n          eq\n            /* \"#utility.yul\":6688:6725   */\n          or\n            /* \"#utility.yul\":6678:6749   */\n          tag_120\n          jumpi\n            /* \"#utility.yul\":6729:6747   */\n          tag_120\n          tag_74\n          jump\t// in\n            /* \"#utility.yul\":6760:6885   */\n        tag_59:\n            /* \"#utility.yul\":6825:6834   */\n          dup1\n          dup3\n          add\n            /* \"#utility.yul\":6846:6856   */\n          dup1\n          dup3\n          gt\n            /* \"#utility.yul\":6843:6879   */\n          iszero\n          tag_120\n          jumpi\n            /* \"#utility.yul\":6859:6877   */\n          tag_120\n          tag_74\n          jump\t// in\n            /* \"#utility.yul\":7240:7417   */\n        tag_77:\n            /* \"contracts/token.sol\":459:2753  contract WBGZToken is ERC20, ERC20Burnable, Ownable, Pausable {... */\n          dataSize(sub_0)\n          dup1\n          dataOffset(sub_0)\n          0x00\n          codecopy\n          0x00\n          return\n        stop\n\n        sub_0: assembly {\n                /* \"contracts/token.sol\":459:2753  contract WBGZToken is ERC20, ERC20Burnable, Ownable, Pausable {... */\n              mstore(0x40, 0x80)\n              callvalue\n              dup1\n              iszero\n              tag_1\n              jumpi\n              0x00\n              dup1\n              revert\n            tag_1:\n              pop\n              jumpi(tag_2, lt(calldatasize, 0x04))\n              shr(0xe0, calldataload(0x00))\n              dup1\n              0x06fdde03\n              eq\n              tag_3\n              jumpi\n              dup1\n              0x095ea7b3\n              eq\n              tag_4\n              jumpi\n              dup1\n              0x18160ddd\n              eq\n              tag_5\n              jumpi\n              dup1\n              0x23b872dd\n              eq\n              tag_6\n              jumpi\n              dup1\n              0x313ce567\n              eq\n              tag_7\n              jumpi\n              dup1\n              0x3f4ba83a\n              eq\n              tag_8\n              jumpi\n              dup1\n              0x40c10f19\n              eq\n              tag_9\n              jumpi\n              dup1\n              0x42966c68\n              eq\n              tag_10\n              jumpi\n              dup1\n              0x5c975abb\n              eq\n              tag_11\n              jumpi\n              dup1\n              0x70a08231\n              eq\n              tag_12\n              jumpi\n              dup1\n              0x715018a6\n              eq\n              tag_13\n              jumpi\n              dup1\n              0x79cc6790\n              eq\n              tag_14\n              jumpi\n              dup1\n              0x8456cb59\n              eq\n              tag_15\n              jumpi\n              dup1\n              0x8da5cb5b\n              eq\n              tag_16\n              jumpi\n              dup1\n              0x95d89b41\n              eq\n              tag_17\n              jumpi\n              dup1\n              0xa9059cbb\n              eq\n              tag_18\n              jumpi\n              dup1\n              0xdd62ed3e\n              eq\n              tag_19\n              jumpi\n              dup1\n              0xf2fde38b\n              eq\n              tag_20\n              jumpi\n            tag_2:\n              0x00\n              dup1\n              revert\n                /* \"@openzeppelin/contracts/token/ERC20/ERC20.sol\":1760:1849  function name() public view virtual returns (string memory) {... */\n            tag_3:\n              tag_21\n              tag_22\n              jump\t// in\n            tag_21:\n              mload(0x40)\n              tag_23\n              swap2\n              swap1\n              tag_24\n              jump\t// in\n            tag_23:\n              mload(0x40)\n              dup1\n              swap2\n              sub\n              swap1\n              return\n                /* \"@openzeppelin/contracts/token/ERC20/ERC20.sol\":3902:4088  function approve(address spender, uint256 value) public virtual returns (bool) {... */\n            tag_4:\n              tag_25\n              tag_26\n              calldatasize\n              0x04\n              tag_27\n              jump\t// in\n            tag_26:\n              tag_28\n              jump\t// in\n            tag_25:\n              mload(0x40)\n                /* \"#utility.yul\":1169:1183   */\n              swap1\n              iszero\n                /* \"#utility.yul\":1162:1184   */\n              iszero\n                /* \"#utility.yul\":1144:1185   */\n              dup2\n              mstore\n                /* \"#utility.yul\":1132:1134   */\n              0x20\n                /* \"#utility.yul\":1117:1135   */\n              add\n                /* \"@openzeppelin/contracts/token/ERC20/ERC20.sol\":3902:4088  function approve(address spender, uint256 value) public virtual returns (bool) {... */\n              tag_23\n                /* \"#utility.yul\":1004:1191   */\n              jump\n                /* \"@openzeppelin/contracts/token/ERC20/ERC20.sol\":2803:2900  function totalSupply() public view virtual returns (uint256) {... */\n            tag_5:\n                /* \"@openzeppelin/contracts/token/ERC20/ERC20.sol\":2881:2893  _totalSupply */\n              sload(0x02)\n                /* \"@openzeppelin/contracts/token/ERC20/ERC20.sol\":2803:2900  function totalSupply() public view virtual returns (uint256) {... */\n            tag_31:\n              mload(0x40)\n                /* \"#utility.yul\":1342:1367   */\n              swap1\n              dup2\n              mstore\n                /* \"#utility.yul\":1330:1332   */\n              0x20\n                /* \"#utility.yul\":1315:1333   */\n              add\n                /* \"@openzeppelin/contracts/token/ERC20/ERC20.sol\":2803:2900  function totalSupply() public view virtual returns (uint256) {... */\n              tag_23\n                /* \"#utility.yul\":1196:1373   */\n              jump\n                /* \"@openzeppelin/contracts/token/ERC20/ERC20.sol\":4680:4924  function transferFrom(address from, address to, uint256 value) public virtual returns (bool) {... */\n            tag_6:\n              tag_25\n              tag_36\n              calldatasize\n              0x04\n              tag_37\n              jump\t// in\n            tag_36:\n              tag_38\n              jump\t// in\n                /* \"contracts/token.sol\":1758:1856  function decimals() public view virtual override returns (uint8) {... */\n            tag_7:\n                /* \"contracts/token.sol\":1840:1849  _decimals */\n              sload(0x05)\n              shl(0xa8, 0x01)\n              swap1\n              div\n              0xff\n              and\n                /* \"contracts/token.sol\":1758:1856  function decimals() public view virtual override returns (uint8) {... */\n              mload(0x40)\n                /* \"#utility.yul\":1883:1887   */\n              0xff\n                /* \"#utility.yul\":1871:1888   */\n              swap1\n              swap2\n              and\n                /* \"#utility.yul\":1853:1889   */\n              dup2\n              mstore\n                /* \"#utility.yul\":1841:1843   */\n              0x20\n                /* \"#utility.yul\":1826:1844   */\n              add\n                /* \"contracts/token.sol\":1758:1856  function decimals() public view virtual override returns (uint8) {... */\n              tag_23\n                /* \"#utility.yul\":1711:1895   */\n              jump\n                /* \"contracts/token.sol\":2434:2497  function unpause() public onlyOwner {... */\n            tag_8:\n              tag_44\n              tag_45\n              jump\t// in\n            tag_44:\n              stop\n                /* \"contracts/token.sol\":2008:2179  function mint(address to, uint256 amount) public onlyOwner {... */\n            tag_9:\n              tag_44\n              tag_47\n              calldatasize\n              0x04\n              tag_27\n              jump\t// in\n            tag_47:\n              tag_48\n              jump\t// in\n                /* \"@openzeppelin/contracts/token/ERC20/extensions/ERC20Burnable.sol\":618:705  function burn(uint256 value) public virtual {... */\n            tag_10:\n              tag_44\n              tag_50\n              calldatasize\n              0x04\n              tag_51\n              jump\t// in\n            tag_50:\n              tag_52\n              jump\t// in\n                /* \"@openzeppelin/contracts/utils/Pausable.sol\":1726:1810  function paused() public view virtual returns (bool) {... */\n            tag_11:\n              tag_25\n              tag_54\n              jump\t// in\n                /* \"@openzeppelin/contracts/token/ERC20/ERC20.sol\":2933:3049  function balanceOf(address account) public view virtual returns (uint256) {... */\n            tag_12:\n              tag_31\n              tag_57\n              calldatasize\n              0x04\n              tag_58\n              jump\t// in\n            tag_57:\n              sub(shl(0xa0, 0x01), 0x01)\n                /* \"@openzeppelin/contracts/token/ERC20/ERC20.sol\":3024:3042  _balances[account] */\n              and\n                /* \"@openzeppelin/contracts/token/ERC20/ERC20.sol\":2998:3005  uint256 */\n              0x00\n                /* \"@openzeppelin/contracts/token/ERC20/ERC20.sol\":3024:3042  _balances[account] */\n              swap1\n              dup2\n              mstore\n              0x20\n              dup2\n              swap1\n              mstore\n              0x40\n              swap1\n              keccak256\n              sload\n              swap1\n                /* \"@openzeppelin/contracts/token/ERC20/ERC20.sol\":2933:3049  function balanceOf(address account) public view virtual returns (uint256) {... */\n              jump\n                /* \"@openzeppelin/contracts/access/Ownable.sol\":2293:2394  function renounceOwnership() public virtual onlyOwner {... */\n            tag_13:\n              tag_44\n              tag_62\n              jump\t// in\n                /* \"@openzeppelin/contracts/token/ERC20/extensions/ERC20Burnable.sol\":1021:1179  function burnFrom(address account, uint256 value) public virtual {... */\n            tag_14:\n              tag_44\n              tag_64\n              calldatasize\n              0x04\n              tag_27\n              jump\t// in\n            tag_64:\n              tag_65\n              jump\t// in\n                /* \"contracts/token.sol\":2280:2339  function pause() public onlyOwner {... */\n            tag_15:\n              tag_44\n              tag_67\n              jump\t// in\n                /* \"@openzeppelin/contracts/access/Ownable.sol\":1638:1723  function owner() public view virtual returns (address) {... */\n            tag_16:\n              tag_68\n              tag_69\n              jump\t// in\n            tag_68:\n              mload(0x40)\n              tag_23\n              swap2\n              swap1\n              tag_71\n              jump\t// in\n                /* \"@openzeppelin/contracts/token/ERC20/ERC20.sol\":1962:2055  function symbol() public view virtual returns (string memory) {... */\n            tag_17:\n              tag_21\n              tag_73\n              jump\t// in\n                /* \"@openzeppelin/contracts/token/ERC20/ERC20.sol\":3244:3422  function transfer(address to, uint256 value) public virtual returns (bool) {... */\n            tag_18:\n              tag_25\n              tag_76\n              calldatasize\n              0x04\n              tag_27\n              jump\t// in\n            tag_76:\n              tag_77\n              jump\t// in\n                /* \"@openzeppelin/contracts/token/ERC20/ERC20.sol\":3455:3595  function allowance(address owner, address spender) public view virtual returns (uint256) {... */\n            tag_19:\n              tag_31\n              tag_80\n              calldatasize\n              0x04\n              tag_81\n              jump\t// in\n            tag_80:\n              tag_82\n              jump\t// in\n                /* \"@openzeppelin/contracts/access/Ownable.sol\":2543:2758  function transferOwnership(address newOwner) public virtual onlyOwner {... */\n            tag_20:\n              tag_44\n              tag_85\n              calldatasize\n              0x04\n              tag_58\n              jump\t// in\n            tag_85:\n              tag_86\n              jump\t// in\n                /* \"@openzeppelin/contracts/token/ERC20/ERC20.sol\":1760:1849  function name() public view virtual returns (string memory) {... */\n            tag_22:\n                /* \"@openzeppelin/contracts/token/ERC20/ERC20.sol\":1805:1818  string memory */\n              0x60\n                /* \"@openzeppelin/contracts/token/ERC20/ERC20.sol\":1837:1842  _name */\n              0x03\n                /* \"@openzeppelin/contracts/token/ERC20/ERC20.sol\":1830:1842  return _name */\n              dup1\n              sload\n              tag_88\n              swap1\n              tag_89\n              jump\t// in\n            tag_88:\n              dup1\n              0x1f\n              add\n              0x20\n              dup1\n              swap2\n              div\n              mul\n              0x20\n              add\n              mload(0x40)\n              swap1\n              dup2\n              add\n              0x40\n              mstore\n              dup1\n              swap3\n              swap2\n              swap1\n              dup2\n              dup2\n              mstore\n              0x20\n              add\n              dup3\n              dup1\n              sload\n              tag_90\n              swap1\n              tag_89\n              jump\t// in\n            tag_90:\n              dup1\n              iszero\n              tag_91\n              jumpi\n              dup1\n              0x1f\n              lt\n              tag_92\n              jumpi\n              0x0100\n              dup1\n              dup4\n              sload\n              div\n              mul\n              dup4\n              mstore\n              swap2\n              0x20\n              add\n              swap2\n              jump(tag_91)\n            tag_92:\n              dup3\n              add\n              swap2\n              swap1\n              0x00\n              mstore\n              keccak256(0x00, 0x20)\n              swap1\n            tag_93:\n              dup2\n              sload\n              dup2\n              mstore\n              swap1\n              0x01\n              add\n              swap1\n              0x20\n              add\n              dup1\n              dup4\n              gt\n              tag_93\n              jumpi\n              dup3\n              swap1\n              sub\n              0x1f\n              and\n              dup3\n              add\n              swap2\n            tag_91:\n              pop\n              pop\n              pop\n              pop\n              pop\n              swap1\n              pop\n                /* \"@openzeppelin/contracts/token/ERC20/ERC20.sol\":1760:1849  function name() public view virtual returns (string memory) {... */\n              swap1\n              jump\t// out\n                /* \"@openzeppelin/contracts/token/ERC20/ERC20.sol\":3902:4088  function approve(address spender, uint256 value) public virtual returns (bool) {... */\n            tag_28:\n                /* \"@openzeppelin/contracts/token/ERC20/ERC20.sol\":3975:3979  bool */\n              0x00\n                /* \"@openzeppelin/contracts/utils/Context.sol\":735:745  msg.sender */\n              caller\n                /* \"@openzeppelin/contracts/token/ERC20/ERC20.sol\":4029:4060  _approve(owner, spender, value) */\n              tag_97\n                /* \"@openzeppelin/contracts/utils/Context.sol\":735:745  msg.sender */\n              dup2\n                /* \"@openzeppelin/contracts/token/ERC20/ERC20.sol\":4045:4052  spender */\n              dup6\n                /* \"@openzeppelin/contracts/token/ERC20/ERC20.sol\":4054:4059  value */\n              dup6\n                /* \"@openzeppelin/contracts/token/ERC20/ERC20.sol\":4029:4037  _approve */\n              tag_98\n                /* \"@openzeppelin/contracts/token/ERC20/ERC20.sol\":4029:4060  _approve(owner, spender, value) */\n              jump\t// in\n            tag_97:\n                /* \"@openzeppelin/contracts/token/ERC20/ERC20.sol\":4077:4081  true */\n              0x01\n                /* \"@openzeppelin/contracts/token/ERC20/ERC20.sol\":4070:4081  return true */\n              swap2\n              pop\n              pop\n                /* \"@openzeppelin/contracts/token/ERC20/ERC20.sol\":3902:4088  function approve(address spender, uint256 value) public virtual returns (bool) {... */\n            tag_94:\n              swap3\n              swap2\n              pop\n              pop\n              jump\t// out\n                /* \"@openzeppelin/contracts/token/ERC20/ERC20.sol\":4680:4924  function transferFrom(address from, address to, uint256 value) public virtual returns (bool) {... */\n            tag_38:\n                /* \"@openzeppelin/contracts/token/ERC20/ERC20.sol\":4767:4771  bool */\n              0x00\n                /* \"@openzeppelin/contracts/utils/Context.sol\":735:745  msg.sender */\n              caller\n                /* \"@openzeppelin/contracts/token/ERC20/ERC20.sol\":4823:4860  _spendAllowance(from, spender, value) */\n              tag_102\n                /* \"@openzeppelin/contracts/token/ERC20/ERC20.sol\":4839:4843  from */\n              dup6\n                /* \"@openzeppelin/contracts/utils/Context.sol\":735:745  msg.sender */\n              dup3\n                /* \"@openzeppelin/contracts/token/ERC20/ERC20.sol\":4854:4859  value */\n              dup6\n                /* \"@openzeppelin/contracts/token/ERC20/ERC20.sol\":4823:4838  _spendAllowance */\n              tag_103\n                /* \"@openzeppelin/contracts/token/ERC20/ERC20.sol\":4823:4860  _spendAllowance(from, spender, value) */\n              jump\t// in\n            tag_102:\n                /* \"@openzeppelin/contracts/token/ERC20/ERC20.sol\":4870:4896  _transfer(from, to, value) */\n              tag_104\n                /* \"@openzeppelin/contracts/token/ERC20/ERC20.sol\":4880:4884  from */\n              dup6\n                /* \"@openzeppelin/contracts/token/ERC20/ERC20.sol\":4886:4888  to */\n              dup6\n                /* \"@openzeppelin/contracts/token/ERC20/ERC20.sol\":4890:4895  value */\n              dup6\n                /* \"@openzeppelin/contracts/token/ERC20/ERC20.sol\":4870:4879  _transfer */\n              tag_105\n                /* \"@openzeppelin/contracts/token/ERC20/ERC20.sol\":4870:4896  _transfer(from, to, value) */\n              jump\t// in\n            tag_104:\n              pop\n                /* \"@openzeppelin/contracts/token/ERC20/ERC20.sol\":4913:4917  true */\n              0x01\n              swap5\n                /* \"@openzeppelin/contracts/token/ERC20/ERC20.sol\":4680:4924  function transferFrom(address from, address to, uint256 value) public virtual returns (bool) {... */\n              swap4\n              pop\n              pop\n              pop\n              pop\n              jump\t// out\n                /* \"contracts/token.sol\":2434:2497  function unpause() public onlyOwner {... */\n            tag_45:\n                /* \"@openzeppelin/contracts/access/Ownable.sol\":1531:1544  _checkOwner() */\n              tag_108\n                /* \"@openzeppelin/contracts/access/Ownable.sol\":1531:1542  _checkOwner */\n              tag_109\n                /* \"@openzeppelin/contracts/access/Ownable.sol\":1531:1544  _checkOwner() */\n              jump\t// in\n            tag_108:\n                /* \"contracts/token.sol\":2480:2490  _unpause() */\n              tag_111\n                /* \"contracts/token.sol\":2480:2488  _unpause */\n              tag_112\n                /* \"contracts/token.sol\":2480:2490  _unpause() */\n              jump\t// in\n            tag_111:\n                /* \"contracts/token.sol\":2434:2497  function unpause() public onlyOwner {... */\n              jump\t// out\n                /* \"contracts/token.sol\":2008:2179  function mint(address to, uint256 amount) public onlyOwner {... */\n            tag_48:\n                /* \"@openzeppelin/contracts/access/Ownable.sol\":1531:1544  _checkOwner() */\n              tag_114\n                /* \"@openzeppelin/contracts/access/Ownable.sol\":1531:1542  _checkOwner */\n              tag_109\n                /* \"@openzeppelin/contracts/access/Ownable.sol\":1531:1544  _checkOwner() */\n              jump\t// in\n            tag_114:\n                /* \"contracts/token.sol\":667:684  10_000_000 * 1e18 */\n              0x084595161401484a000000\n                /* \"contracts/token.sol\":2101:2107  amount */\n              dup2\n                /* \"contracts/token.sol\":2085:2098  totalSupply() */\n              tag_116\n                /* \"@openzeppelin/contracts/token/ERC20/ERC20.sol\":2881:2893  _totalSupply */\n              sload(0x02)\n              swap1\n                /* \"@openzeppelin/contracts/token/ERC20/ERC20.sol\":2803:2900  function totalSupply() public view virtual returns (uint256) {... */\n              jump\n                /* \"contracts/token.sol\":2085:2098  totalSupply() */\n            tag_116:\n                /* \"contracts/token.sol\":2085:2107  totalSupply() + amount */\n              tag_117\n              swap2\n              swap1\n              tag_118\n              jump\t// in\n            tag_117:\n                /* \"contracts/token.sol\":2085:2121  totalSupply() + amount <= MAX_SUPPLY */\n              gt\n              iszero\n                /* \"contracts/token.sol\":2077:2145  require(totalSupply() + amount <= MAX_SUPPLY, \"Max supply exceeded\") */\n              tag_119\n              jumpi\n              mload(0x40)\n              shl(0xe5, 0x461bcd)\n              dup2\n              mstore\n                /* \"#utility.yul\":3563:3565   */\n              0x20\n                /* \"contracts/token.sol\":2077:2145  require(totalSupply() + amount <= MAX_SUPPLY, \"Max supply exceeded\") */\n              0x04\n              dup3\n              add\n                /* \"#utility.yul\":3545:3566   */\n              mstore\n                /* \"#utility.yul\":3602:3604   */\n              0x13\n                /* \"#utility.yul\":3582:3600   */\n              0x24\n              dup3\n              add\n                /* \"#utility.yul\":3575:3605   */\n              mstore\n              shl(0x6a, 0x13585e081cdd5c1c1b1e48195e18d959591959)\n                /* \"#utility.yul\":3621:3639   */\n              0x44\n              dup3\n              add\n                /* \"#utility.yul\":3614:3663   */\n              mstore\n                /* \"#utility.yul\":3680:3698   */\n              0x64\n              add\n                /* \"contracts/token.sol\":2077:2145  require(totalSupply() + amount <= MAX_SUPPLY, \"Max supply exceeded\") */\n            tag_120:\n              mload(0x40)\n              dup1\n              swap2\n              sub\n              swap1\n              revert\n            tag_119:\n                /* \"contracts/token.sol\":2155:2172  _mint(to, amount) */\n              tag_122\n                /* \"contracts/token.sol\":2161:2163  to */\n              dup3\n                /* \"contracts/token.sol\":2165:2171  amount */\n              dup3\n                /* \"contracts/token.sol\":2155:2160  _mint */\n              tag_123\n                /* \"contracts/token.sol\":2155:2172  _mint(to, amount) */\n              jump\t// in\n            tag_122:\n                /* \"contracts/token.sol\":2008:2179  function mint(address to, uint256 amount) public onlyOwner {... */\n              pop\n              pop\n              jump\t// out\n                /* \"@openzeppelin/contracts/token/ERC20/extensions/ERC20Burnable.sol\":618:705  function burn(uint256 value) public virtual {... */\n            tag_52:\n                /* \"@openzeppelin/contracts/token/ERC20/extensions/ERC20Burnable.sol\":672:698  _burn(_msgSender(), value) */\n              tag_125\n                /* \"@openzeppelin/contracts/utils/Context.sol\":735:745  msg.sender */\n              caller\n                /* \"@openzeppelin/contracts/token/ERC20/extensions/ERC20Burnable.sol\":692:697  value */\n              dup3\n                /* \"@openzeppelin/contracts/token/ERC20/extensions/ERC20Burnable.sol\":672:677  _burn */\n              tag_127\n                /* \"@openzeppelin/contracts/token/ERC20/extensions/ERC20Burnable.sol\":672:698  _burn(_msgSender(), value) */\n              jump\t// in\n            tag_125:\n                /* \"@openzeppelin/contracts/token/ERC20/extensions/ERC20Burnable.sol\":618:705  function burn(uint256 value) public virtual {... */\n              pop\n              jump\t// out\n                /* \"@openzeppelin/contracts/utils/Pausable.sol\":1726:1810  function paused() public view virtual returns (bool) {... */\n            tag_54:\n                /* \"@openzeppelin/contracts/utils/Pausable.sol\":1796:1803  _paused */\n              sload(0x05)\n              shl(0xa0, 0x01)\n              swap1\n              div\n              0xff\n              and\n              swap1\n                /* \"@openzeppelin/contracts/utils/Pausable.sol\":1726:1810  function paused() public view virtual returns (bool) {... */\n              jump\t// out\n                /* \"@openzeppelin/contracts/access/Ownable.sol\":2293:2394  function renounceOwnership() public virtual onlyOwner {... */\n            tag_62:\n                /* \"@openzeppelin/contracts/access/Ownable.sol\":1531:1544  _checkOwner() */\n              tag_131\n                /* \"@openzeppelin/contracts/access/Ownable.sol\":1531:1542  _checkOwner */\n              tag_109\n                /* \"@openzeppelin/contracts/access/Ownable.sol\":1531:1544  _checkOwner() */\n              jump\t// in\n            tag_131:\n                /* \"@openzeppelin/contracts/access/Ownable.sol\":2357:2387  _transferOwnership(address(0)) */\n              tag_111\n                /* \"@openzeppelin/contracts/access/Ownable.sol\":2384:2385  0 */\n              0x00\n                /* \"@openzeppelin/contracts/access/Ownable.sol\":2357:2375  _transferOwnership */\n              tag_134\n                /* \"@openzeppelin/contracts/access/Ownable.sol\":2357:2387  _transferOwnership(address(0)) */\n              jump\t// in\n                /* \"@openzeppelin/contracts/token/ERC20/extensions/ERC20Burnable.sol\":1021:1179  function burnFrom(address account, uint256 value) public virtual {... */\n            tag_65:\n                /* \"@openzeppelin/contracts/token/ERC20/extensions/ERC20Burnable.sol\":1096:1141  _spendAllowance(account, _msgSender(), value) */\n              tag_136\n                /* \"@openzeppelin/contracts/token/ERC20/extensions/ERC20Burnable.sol\":1112:1119  account */\n              dup3\n                /* \"@openzeppelin/contracts/utils/Context.sol\":735:745  msg.sender */\n              caller\n                /* \"@openzeppelin/contracts/token/ERC20/extensions/ERC20Burnable.sol\":1135:1140  value */\n              dup4\n                /* \"@openzeppelin/contracts/token/ERC20/extensions/ERC20Burnable.sol\":1096:1111  _spendAllowance */\n              tag_103\n                /* \"@openzeppelin/contracts/token/ERC20/extensions/ERC20Burnable.sol\":1096:1141  _spendAllowance(account, _msgSender(), value) */\n              jump\t// in\n            tag_136:\n                /* \"@openzeppelin/contracts/token/ERC20/extensions/ERC20Burnable.sol\":1151:1172  _burn(account, value) */\n              tag_122\n                /* \"@openzeppelin/contracts/token/ERC20/extensions/ERC20Burnable.sol\":1157:1164  account */\n              dup3\n                /* \"@openzeppelin/contracts/token/ERC20/extensions/ERC20Burnable.sol\":1166:1171  value */\n              dup3\n                /* \"@openzeppelin/contracts/token/ERC20/extensions/ERC20Burnable.sol\":1151:1156  _burn */\n              tag_127\n                /* \"@openzeppelin/contracts/token/ERC20/extensions/ERC20Burnable.sol\":1151:1172  _burn(account, value) */\n              jump\t// in\n                /* \"contracts/token.sol\":2280:2339  function pause() public onlyOwner {... */\n            tag_67:\n                /* \"@openzeppelin/contracts/access/Ownable.sol\":1531:1544  _checkOwner() */\n              tag_140\n                /* \"@openzeppelin/contracts/access/Ownable.sol\":1531:1542  _checkOwner */\n              tag_109\n                /* \"@openzeppelin/contracts/access/Ownable.sol\":1531:1544  _checkOwner() */\n              jump\t// in\n            tag_140:\n                /* \"contracts/token.sol\":2324:2332  _pause() */\n              tag_111\n                /* \"contracts/token.sol\":2324:2330  _pause */\n              tag_143\n                /* \"contracts/token.sol\":2324:2332  _pause() */\n              jump\t// in\n                /* \"@openzeppelin/contracts/access/Ownable.sol\":1638:1723  function owner() public view virtual returns (address) {... */\n            tag_69:\n                /* \"@openzeppelin/contracts/access/Ownable.sol\":1710:1716  _owner */\n              and(sub(shl(0xa0, 0x01), 0x01), sload(0x05))\n              swap1\n                /* \"@openzeppelin/contracts/access/Ownable.sol\":1638:1723  function owner() public view virtual returns (address) {... */\n              jump\t// out\n                /* \"@openzeppelin/contracts/token/ERC20/ERC20.sol\":1962:2055  function symbol() public view virtual returns (string memory) {... */\n            tag_73:\n                /* \"@openzeppelin/contracts/token/ERC20/ERC20.sol\":2009:2022  string memory */\n              0x60\n                /* \"@openzeppelin/contracts/token/ERC20/ERC20.sol\":2041:2048  _symbol */\n              0x04\n                /* \"@openzeppelin/contracts/token/ERC20/ERC20.sol\":2034:2048  return _symbol */\n              dup1\n              sload\n              tag_88\n              swap1\n              tag_89\n              jump\t// in\n                /* \"@openzeppelin/contracts/token/ERC20/ERC20.sol\":3244:3422  function transfer(address to, uint256 value) public virtual returns (bool) {... */\n            tag_77:\n                /* \"@openzeppelin/contracts/token/ERC20/ERC20.sol\":3313:3317  bool */\n              0x00\n                /* \"@openzeppelin/contracts/utils/Context.sol\":735:745  msg.sender */\n              caller\n                /* \"@openzeppelin/contracts/token/ERC20/ERC20.sol\":3367:3394  _transfer(owner, to, value) */\n              tag_97\n                /* \"@openzeppelin/contracts/utils/Context.sol\":735:745  msg.sender */\n              dup2\n                /* \"@openzeppelin/contracts/token/ERC20/ERC20.sol\":3384:3386  to */\n              dup6\n                /* \"@openzeppelin/contracts/token/ERC20/ERC20.sol\":3388:3393  value */\n              dup6\n                /* \"@openzeppelin/contracts/token/ERC20/ERC20.sol\":3367:3376  _transfer */\n              tag_105\n                /* \"@openzeppelin/contracts/token/ERC20/ERC20.sol\":3367:3394  _transfer(owner, to, value) */\n              jump\t// in\n                /* \"@openzeppelin/contracts/token/ERC20/ERC20.sol\":3455:3595  function allowance(address owner, address spender) public view virtual returns (uint256) {... */\n            tag_82:\n              sub(shl(0xa0, 0x01), 0x01)\n                /* \"@openzeppelin/contracts/token/ERC20/ERC20.sol\":3561:3579  _allowances[owner] */\n              swap2\n              dup3\n              and\n                /* \"@openzeppelin/contracts/token/ERC20/ERC20.sol\":3535:3542  uint256 */\n              0x00\n                /* \"@openzeppelin/contracts/token/ERC20/ERC20.sol\":3561:3579  _allowances[owner] */\n              swap1\n              dup2\n              mstore\n                /* \"@openzeppelin/contracts/token/ERC20/ERC20.sol\":3561:3572  _allowances */\n              0x01\n                /* \"@openzeppelin/contracts/token/ERC20/ERC20.sol\":3561:3579  _allowances[owner] */\n              0x20\n              swap1\n              dup2\n              mstore\n              0x40\n              dup1\n              dup4\n              keccak256\n                /* \"@openzeppelin/contracts/token/ERC20/ERC20.sol\":3561:3588  _allowances[owner][spender] */\n              swap4\n              swap1\n              swap5\n              and\n              dup3\n              mstore\n              swap2\n              swap1\n              swap2\n              mstore\n              keccak256\n              sload\n              swap1\n                /* \"@openzeppelin/contracts/token/ERC20/ERC20.sol\":3455:3595  function allowance(address owner, address spender) public view virtual returns (uint256) {... */\n              jump\t// out\n                /* \"@openzeppelin/contracts/access/Ownable.sol\":2543:2758  function transferOwnership(address newOwner) public virtual onlyOwner {... */\n            tag_86:\n                /* \"@openzeppelin/contracts/access/Ownable.sol\":1531:1544  _checkOwner() */\n              tag_156\n                /* \"@openzeppelin/contracts/access/Ownable.sol\":1531:1542  _checkOwner */\n              tag_109\n                /* \"@openzeppelin/contracts/access/Ownable.sol\":1531:1544  _checkOwner() */\n              jump\t// in\n            tag_156:\n              sub(shl(0xa0, 0x01), 0x01)\n                /* \"@openzeppelin/contracts/access/Ownable.sol\":2627:2649  newOwner == address(0) */\n              dup2\n              and\n                /* \"@openzeppelin/contracts/access/Ownable.sol\":2623:2714  if (newOwner == address(0)) {... */\n              tag_158\n              jumpi\n                /* \"@openzeppelin/contracts/access/Ownable.sol\":2700:2701  0 */\n              0x00\n                /* \"@openzeppelin/contracts/access/Ownable.sol\":2672:2703  OwnableInvalidOwner(address(0)) */\n              mload(0x40)\n              shl(0xe0, 0x1e4fbdf7)\n              dup2\n              mstore\n              0x04\n              add\n              tag_120\n              swap2\n              swap1\n              tag_71\n              jump\t// in\n                /* \"@openzeppelin/contracts/access/Ownable.sol\":2623:2714  if (newOwner == address(0)) {... */\n            tag_158:\n                /* \"@openzeppelin/contracts/access/Ownable.sol\":2723:2751  _transferOwnership(newOwner) */\n              tag_125\n                /* \"@openzeppelin/contracts/access/Ownable.sol\":2742:2750  newOwner */\n              dup2\n                /* \"@openzeppelin/contracts/access/Ownable.sol\":2723:2741  _transferOwnership */\n              tag_134\n                /* \"@openzeppelin/contracts/access/Ownable.sol\":2723:2751  _transferOwnership(newOwner) */\n              jump\t// in\n                /* \"@openzeppelin/contracts/token/ERC20/ERC20.sol\":8630:8758  function _approve(address owner, address spender, uint256 value) internal {... */\n            tag_98:\n                /* \"@openzeppelin/contracts/token/ERC20/ERC20.sol\":8714:8751  _approve(owner, spender, value, true) */\n              tag_163\n                /* \"@openzeppelin/contracts/token/ERC20/ERC20.sol\":8723:8728  owner */\n              dup4\n                /* \"@openzeppelin/contracts/token/ERC20/ERC20.sol\":8730:8737  spender */\n              dup4\n                /* \"@openzeppelin/contracts/token/ERC20/ERC20.sol\":8739:8744  value */\n              dup4\n                /* \"@openzeppelin/contracts/token/ERC20/ERC20.sol\":8746:8750  true */\n              0x01\n                /* \"@openzeppelin/contracts/token/ERC20/ERC20.sol\":8714:8722  _approve */\n              tag_164\n                /* \"@openzeppelin/contracts/token/ERC20/ERC20.sol\":8714:8751  _approve(owner, spender, value, true) */\n              jump\t// in\n            tag_163:\n                /* \"@openzeppelin/contracts/token/ERC20/ERC20.sol\":8630:8758  function _approve(address owner, address spender, uint256 value) internal {... */\n              pop\n              pop\n              pop\n              jump\t// out\n                /* \"@openzeppelin/contracts/token/ERC20/ERC20.sol\":10319:10795  function _spendAllowance(address owner, address spender, uint256 value) internal virtual {... */\n            tag_103:\n                /* \"@openzeppelin/contracts/token/ERC20/ERC20.sol\":10418:10442  uint256 currentAllowance */\n              0x00\n                /* \"@openzeppelin/contracts/token/ERC20/ERC20.sol\":10445:10470  allowance(owner, spender) */\n              tag_166\n                /* \"@openzeppelin/contracts/token/ERC20/ERC20.sol\":10455:10460  owner */\n              dup5\n                /* \"@openzeppelin/contracts/token/ERC20/ERC20.sol\":10462:10469  spender */\n              dup5\n                /* \"@openzeppelin/contracts/token/ERC20/ERC20.sol\":10445:10454  allowance */\n              tag_82\n                /* \"@openzeppelin/contracts/token/ERC20/ERC20.sol\":10445:10470  allowance(owner, spender) */\n              jump\t// in\n            tag_166:\n                /* \"@openzeppelin/contracts/token/ERC20/ERC20.sol\":10418:10470  uint256 currentAllowance = allowance(owner, spender) */\n              swap1\n              pop\n              not(0x00)\n                /* \"@openzeppelin/contracts/token/ERC20/ERC20.sol\":10484:10500  currentAllowance */\n              dup2\n                /* \"@openzeppelin/contracts/token/ERC20/ERC20.sol\":10484:10520  currentAllowance < type(uint256).max */\n              lt\n                /* \"@openzeppelin/contracts/token/ERC20/ERC20.sol\":10480:10789  if (currentAllowance < type(uint256).max) {... */\n              iszero\n              tag_171\n              jumpi\n                /* \"@openzeppelin/contracts/token/ERC20/ERC20.sol\":10559:10564  value */\n              dup2\n                /* \"@openzeppelin/contracts/token/ERC20/ERC20.sol\":10540:10556  currentAllowance */\n              dup2\n                /* \"@openzeppelin/contracts/token/ERC20/ERC20.sol\":10540:10564  currentAllowance < value */\n              lt\n                /* \"@openzeppelin/contracts/token/ERC20/ERC20.sol\":10536:10666  if (currentAllowance < value) {... */\n              iszero\n              tag_168\n              jumpi\n                /* \"@openzeppelin/contracts/token/ERC20/ERC20.sol\":10618:10625  spender */\n              dup3\n                /* \"@openzeppelin/contracts/token/ERC20/ERC20.sol\":10627:10643  currentAllowance */\n              dup2\n                /* \"@openzeppelin/contracts/token/ERC20/ERC20.sol\":10645:10650  value */\n              dup4\n                /* \"@openzeppelin/contracts/token/ERC20/ERC20.sol\":10591:10651  ERC20InsufficientAllowance(spender, currentAllowance, value) */\n              mload(0x40)\n              shl(0xe1, 0x7dc7a0d9)\n              dup2\n              mstore\n              0x04\n              add\n              tag_120\n              swap4\n              swap3\n              swap2\n              swap1\n              tag_170\n              jump\t// in\n                /* \"@openzeppelin/contracts/token/ERC20/ERC20.sol\":10536:10666  if (currentAllowance < value) {... */\n            tag_168:\n                /* \"@openzeppelin/contracts/token/ERC20/ERC20.sol\":10707:10764  _approve(owner, spender, currentAllowance - value, false) */\n              tag_171\n                /* \"@openzeppelin/contracts/token/ERC20/ERC20.sol\":10716:10721  owner */\n              dup5\n                /* \"@openzeppelin/contracts/token/ERC20/ERC20.sol\":10723:10730  spender */\n              dup5\n                /* \"@openzeppelin/contracts/token/ERC20/ERC20.sol\":10751:10756  value */\n              dup5\n                /* \"@openzeppelin/contracts/token/ERC20/ERC20.sol\":10732:10748  currentAllowance */\n              dup5\n                /* \"@openzeppelin/contracts/token/ERC20/ERC20.sol\":10732:10756  currentAllowance - value */\n              sub\n                /* \"@openzeppelin/contracts/token/ERC20/ERC20.sol\":10758:10763  false */\n              0x00\n                /* \"@openzeppelin/contracts/token/ERC20/ERC20.sol\":10707:10715  _approve */\n              tag_164\n                /* \"@openzeppelin/contracts/token/ERC20/ERC20.sol\":10707:10764  _approve(owner, spender, currentAllowance - value, false) */\n              jump\t// in\n            tag_171:\n                /* \"@openzeppelin/contracts/token/ERC20/ERC20.sol\":10408:10795  {... */\n              pop\n                /* \"@openzeppelin/contracts/token/ERC20/ERC20.sol\":10319:10795  function _spendAllowance(address owner, address spender, uint256 value) internal virtual {... */\n              pop\n              pop\n              pop\n              jump\t// out\n                /* \"@openzeppelin/contracts/token/ERC20/ERC20.sol\":5297:5597  function _transfer(address from, address to, uint256 value) internal {... */\n            tag_105:\n              sub(shl(0xa0, 0x01), 0x01)\n                /* \"@openzeppelin/contracts/token/ERC20/ERC20.sol\":5380:5398  from == address(0) */\n              dup4\n              and\n                /* \"@openzeppelin/contracts/token/ERC20/ERC20.sol\":5376:5462  if (from == address(0)) {... */\n              tag_173\n              jumpi\n                /* \"@openzeppelin/contracts/token/ERC20/ERC20.sol\":5448:5449  0 */\n              0x00\n                /* \"@openzeppelin/contracts/token/ERC20/ERC20.sol\":5421:5451  ERC20InvalidSender(address(0)) */\n              mload(0x40)\n              shl(0xe1, 0x4b637e8f)\n              dup2\n              mstore\n              0x04\n              add\n              tag_120\n              swap2\n              swap1\n              tag_71\n              jump\t// in\n                /* \"@openzeppelin/contracts/token/ERC20/ERC20.sol\":5376:5462  if (from == address(0)) {... */\n            tag_173:\n              sub(shl(0xa0, 0x01), 0x01)\n                /* \"@openzeppelin/contracts/token/ERC20/ERC20.sol\":5475:5491  to == address(0) */\n              dup3\n              and\n                /* \"@openzeppelin/contracts/token/ERC20/ERC20.sol\":5471:5557  if (to == address(0)) {... */\n              tag_175\n              jumpi\n                /* \"@openzeppelin/contracts/token/ERC20/ERC20.sol\":5543:5544  0 */\n              0x00\n                /* \"@openzeppelin/contracts/token/ERC20/ERC20.sol\":5514:5546  ERC20InvalidReceiver(address(0)) */\n              mload(0x40)\n              shl(0xe0, 0xec442f05)\n              dup2\n              mstore\n              0x04\n              add\n              tag_120\n              swap2\n              swap1\n              tag_71\n              jump\t// in\n                /* \"@openzeppelin/contracts/token/ERC20/ERC20.sol\":5471:5557  if (to == address(0)) {... */\n            tag_175:\n                /* \"@openzeppelin/contracts/token/ERC20/ERC20.sol\":5566:5590  _update(from, to, value) */\n              tag_163\n                /* \"@openzeppelin/contracts/token/ERC20/ERC20.sol\":5574:5578  from */\n              dup4\n                /* \"@openzeppelin/contracts/token/ERC20/ERC20.sol\":5580:5582  to */\n              dup4\n                /* \"@openzeppelin/contracts/token/ERC20/ERC20.sol\":5584:5589  value */\n              dup4\n                /* \"@openzeppelin/contracts/token/ERC20/ERC20.sol\":5566:5573  _update */\n              tag_178\n                /* \"@openzeppelin/contracts/token/ERC20/ERC20.sol\":5566:5590  _update(from, to, value) */\n              jump\t// in\n                /* \"@openzeppelin/contracts/access/Ownable.sol\":1796:1958  function _checkOwner() internal view virtual {... */\n            tag_109:\n                /* \"@openzeppelin/contracts/utils/Context.sol\":735:745  msg.sender */\n              caller\n                /* \"@openzeppelin/contracts/access/Ownable.sol\":1855:1862  owner() */\n              tag_181\n                /* \"@openzeppelin/contracts/access/Ownable.sol\":1855:1860  owner */\n              tag_69\n                /* \"@openzeppelin/contracts/access/Ownable.sol\":1855:1862  owner() */\n              jump\t// in\n            tag_181:\n              sub(shl(0xa0, 0x01), 0x01)\n                /* \"@openzeppelin/contracts/access/Ownable.sol\":1855:1878  owner() != _msgSender() */\n              and\n              eq\n                /* \"@openzeppelin/contracts/access/Ownable.sol\":1851:1952  if (owner() != _msgSender()) {... */\n              tag_111\n              jumpi\n                /* \"@openzeppelin/contracts/utils/Context.sol\":735:745  msg.sender */\n              caller\n                /* \"@openzeppelin/contracts/access/Ownable.sol\":1901:1941  OwnableUnauthorizedAccount(_msgSender()) */\n              mload(0x40)\n              shl(0xe0, 0x118cdaa7)\n              dup2\n              mstore\n              0x04\n              add\n              tag_120\n              swap2\n              swap1\n              tag_71\n              jump\t// in\n                /* \"@openzeppelin/contracts/utils/Pausable.sol\":2586:2703  function _unpause() internal virtual whenPaused {... */\n            tag_112:\n                /* \"@openzeppelin/contracts/utils/Pausable.sol\":1597:1613  _requirePaused() */\n              tag_186\n                /* \"@openzeppelin/contracts/utils/Pausable.sol\":1597:1611  _requirePaused */\n              tag_187\n                /* \"@openzeppelin/contracts/utils/Pausable.sol\":1597:1613  _requirePaused() */\n              jump\t// in\n            tag_186:\n                /* \"@openzeppelin/contracts/utils/Pausable.sol\":2644:2651  _paused */\n              0x05\n                /* \"@openzeppelin/contracts/utils/Pausable.sol\":2644:2659  _paused = false */\n              dup1\n              sload\n              not(shl(0xa0, 0xff))\n              and\n              swap1\n              sstore\n                /* \"@openzeppelin/contracts/utils/Pausable.sol\":2674:2696  Unpaused(_msgSender()) */\n              0x5db9ee0a495bf2e6ff9c91a7834c1ba4fdd244a5e8aa4e537bd38aeae4b073aa\n                /* \"@openzeppelin/contracts/utils/Context.sol\":735:745  msg.sender */\n              caller\n                /* \"@openzeppelin/contracts/utils/Pausable.sol\":2683:2695  _msgSender() */\n            tag_189:\n                /* \"@openzeppelin/contracts/utils/Pausable.sol\":2674:2696  Unpaused(_msgSender()) */\n              mload(0x40)\n              tag_190\n              swap2\n              swap1\n              tag_71\n              jump\t// in\n            tag_190:\n              mload(0x40)\n              dup1\n              swap2\n              sub\n              swap1\n              log1\n                /* \"@openzeppelin/contracts/utils/Pausable.sol\":2586:2703  function _unpause() internal virtual whenPaused {... */\n              jump\t// out\n                /* \"@openzeppelin/contracts/token/ERC20/ERC20.sol\":7362:7570  function _mint(address account, uint256 value) internal {... */\n            tag_123:\n              sub(shl(0xa0, 0x01), 0x01)\n                /* \"@openzeppelin/contracts/token/ERC20/ERC20.sol\":7432:7453  account == address(0) */\n              dup3\n              and\n                /* \"@openzeppelin/contracts/token/ERC20/ERC20.sol\":7428:7519  if (account == address(0)) {... */\n              tag_192\n              jumpi\n                /* \"@openzeppelin/contracts/token/ERC20/ERC20.sol\":7505:7506  0 */\n              0x00\n                /* \"@openzeppelin/contracts/token/ERC20/ERC20.sol\":7476:7508  ERC20InvalidReceiver(address(0)) */\n              mload(0x40)\n              shl(0xe0, 0xec442f05)\n              dup2\n              mstore\n              0x04\n              add\n              tag_120\n              swap2\n              swap1\n              tag_71\n              jump\t// in\n                /* \"@openzeppelin/contracts/token/ERC20/ERC20.sol\":7428:7519  if (account == address(0)) {... */\n            tag_192:\n                /* \"@openzeppelin/contracts/token/ERC20/ERC20.sol\":7528:7563  _update(address(0), account, value) */\n              tag_122\n                /* \"@openzeppelin/contracts/token/ERC20/ERC20.sol\":7544:7545  0 */\n              0x00\n                /* \"@openzeppelin/contracts/token/ERC20/ERC20.sol\":7548:7555  account */\n              dup4\n                /* \"@openzeppelin/contracts/token/ERC20/ERC20.sol\":7557:7562  value */\n              dup4\n                /* \"@openzeppelin/contracts/token/ERC20/ERC20.sol\":7528:7535  _update */\n              tag_178\n                /* \"@openzeppelin/contracts/token/ERC20/ERC20.sol\":7528:7563  _update(address(0), account, value) */\n              jump\t// in\n                /* \"@openzeppelin/contracts/token/ERC20/ERC20.sol\":7888:8094  function _burn(address account, uint256 value) internal {... */\n            tag_127:\n              sub(shl(0xa0, 0x01), 0x01)\n                /* \"@openzeppelin/contracts/token/ERC20/ERC20.sol\":7958:7979  account == address(0) */\n              dup3\n              and\n                /* \"@openzeppelin/contracts/token/ERC20/ERC20.sol\":7954:8043  if (account == address(0)) {... */\n              tag_196\n              jumpi\n                /* \"@openzeppelin/contracts/token/ERC20/ERC20.sol\":8029:8030  0 */\n              0x00\n                /* \"@openzeppelin/contracts/token/ERC20/ERC20.sol\":8002:8032  ERC20InvalidSender(address(0)) */\n              mload(0x40)\n              shl(0xe1, 0x4b637e8f)\n              dup2\n              mstore\n              0x04\n              add\n              tag_120\n              swap2\n              swap1\n              tag_71\n              jump\t// in\n                /* \"@openzeppelin/contracts/token/ERC20/ERC20.sol\":7954:8043  if (account == address(0)) {... */\n            tag_196:\n                /* \"@openzeppelin/contracts/token/ERC20/ERC20.sol\":8052:8087  _update(account, address(0), value) */\n              tag_122\n                /* \"@openzeppelin/contracts/token/ERC20/ERC20.sol\":8060:8067  account */\n              dup3\n                /* \"@openzeppelin/contracts/token/ERC20/ERC20.sol\":8077:8078  0 */\n              0x00\n                /* \"@openzeppelin/contracts/token/ERC20/ERC20.sol\":8081:8086  value */\n              dup4\n                /* \"@openzeppelin/contracts/token/ERC20/ERC20.sol\":8052:8059  _update */\n              tag_178\n                /* \"@openzeppelin/contracts/token/ERC20/ERC20.sol\":8052:8087  _update(account, address(0), value) */\n              jump\t// in\n                /* \"@openzeppelin/contracts/access/Ownable.sol\":2912:3099  function _transferOwnership(address newOwner) internal virtual {... */\n            tag_134:\n                /* \"@openzeppelin/contracts/access/Ownable.sol\":3004:3010  _owner */\n              0x05\n              dup1\n              sload\n              sub(shl(0xa0, 0x01), 0x01)\n                /* \"@openzeppelin/contracts/access/Ownable.sol\":3020:3037  _owner = newOwner */\n              dup4\n              dup2\n              and\n              not(sub(shl(0xa0, 0x01), 0x01))\n              dup4\n              and\n              dup2\n              or\n              swap1\n              swap4\n              sstore\n                /* \"@openzeppelin/contracts/access/Ownable.sol\":3052:3092  OwnershipTransferred(oldOwner, newOwner) */\n              mload(0x40)\n                /* \"@openzeppelin/contracts/access/Ownable.sol\":3004:3010  _owner */\n              swap2\n              and\n              swap2\n                /* \"@openzeppelin/contracts/access/Ownable.sol\":3020:3037  _owner = newOwner */\n              swap1\n                /* \"@openzeppelin/contracts/access/Ownable.sol\":3004:3010  _owner */\n              dup3\n              swap1\n                /* \"@openzeppelin/contracts/access/Ownable.sol\":3052:3092  OwnershipTransferred(oldOwner, newOwner) */\n              0x8be0079c531659141344cd1fd0a4f28419497f9722a3daafe3b4186f6b6457e0\n              swap1\n                /* \"@openzeppelin/contracts/access/Ownable.sol\":2985:3001  address oldOwner */\n              0x00\n              swap1\n                /* \"@openzeppelin/contracts/access/Ownable.sol\":3052:3092  OwnershipTransferred(oldOwner, newOwner) */\n              log3\n                /* \"@openzeppelin/contracts/access/Ownable.sol\":2975:3099  {... */\n              pop\n                /* \"@openzeppelin/contracts/access/Ownable.sol\":2912:3099  function _transferOwnership(address newOwner) internal virtual {... */\n              pop\n              jump\t// out\n                /* \"@openzeppelin/contracts/utils/Pausable.sol\":2339:2454  function _pause() internal virtual whenNotPaused {... */\n            tag_143:\n                /* \"@openzeppelin/contracts/utils/Pausable.sol\":1350:1369  _requireNotPaused() */\n              tag_201\n                /* \"@openzeppelin/contracts/utils/Pausable.sol\":1350:1367  _requireNotPaused */\n              tag_202\n                /* \"@openzeppelin/contracts/utils/Pausable.sol\":1350:1369  _requireNotPaused() */\n              jump\t// in\n            tag_201:\n                /* \"@openzeppelin/contracts/utils/Pausable.sol\":2398:2405  _paused */\n              0x05\n                /* \"@openzeppelin/contracts/utils/Pausable.sol\":2398:2412  _paused = true */\n              dup1\n              sload\n              not(shl(0xa0, 0xff))\n              and\n              shl(0xa0, 0x01)\n              or\n              swap1\n              sstore\n                /* \"@openzeppelin/contracts/utils/Pausable.sol\":2427:2447  Paused(_msgSender()) */\n              0x62e78cea01bee320cd4e420270b5ea74000d11b0c9f74754ebdbfc544b05a258\n                /* \"@openzeppelin/contracts/utils/Pausable.sol\":2434:2446  _msgSender() */\n              tag_189\n                /* \"@openzeppelin/contracts/utils/Context.sol\":735:745  msg.sender */\n              caller\n              swap1\n                /* \"@openzeppelin/contracts/utils/Context.sol\":656:752  function _msgSender() internal view virtual returns (address) {... */\n              jump\n                /* \"@openzeppelin/contracts/token/ERC20/ERC20.sol\":9605:10037  function _approve(address owner, address spender, uint256 value, bool emitEvent) internal virtual {... */\n            tag_164:\n              sub(shl(0xa0, 0x01), 0x01)\n                /* \"@openzeppelin/contracts/token/ERC20/ERC20.sol\":9717:9736  owner == address(0) */\n              dup5\n              and\n                /* \"@openzeppelin/contracts/token/ERC20/ERC20.sol\":9713:9802  if (owner == address(0)) {... */\n              tag_207\n              jumpi\n                /* \"@openzeppelin/contracts/token/ERC20/ERC20.sol\":9788:9789  0 */\n              0x00\n                /* \"@openzeppelin/contracts/token/ERC20/ERC20.sol\":9759:9791  ERC20InvalidApprover(address(0)) */\n              mload(0x40)\n              shl(0xe0, 0xe602df05)\n              dup2\n              mstore\n              0x04\n              add\n              tag_120\n              swap2\n              swap1\n              tag_71\n              jump\t// in\n                /* \"@openzeppelin/contracts/token/ERC20/ERC20.sol\":9713:9802  if (owner == address(0)) {... */\n            tag_207:\n              sub(shl(0xa0, 0x01), 0x01)\n                /* \"@openzeppelin/contracts/token/ERC20/ERC20.sol\":9815:9836  spender == address(0) */\n              dup4\n              and\n                /* \"@openzeppelin/contracts/token/ERC20/ERC20.sol\":9811:9901  if (spender == address(0)) {... */\n              tag_209\n              jumpi\n                /* \"@openzeppelin/contracts/token/ERC20/ERC20.sol\":9887:9888  0 */\n              0x00\n                /* \"@openzeppelin/contracts/token/ERC20/ERC20.sol\":9859:9890  ERC20InvalidSpender(address(0)) */\n              mload(0x40)\n              shl(0xe1, 0x4a1406b1)\n              dup2\n              mstore\n              0x04\n              add\n              tag_120\n              swap2\n              swap1\n              tag_71\n              jump\t// in\n                /* \"@openzeppelin/contracts/token/ERC20/ERC20.sol\":9811:9901  if (spender == address(0)) {... */\n            tag_209:\n              sub(shl(0xa0, 0x01), 0x01)\n                /* \"@openzeppelin/contracts/token/ERC20/ERC20.sol\":9910:9928  _allowances[owner] */\n              dup1\n              dup6\n              and\n              0x00\n              swap1\n              dup2\n              mstore\n                /* \"@openzeppelin/contracts/token/ERC20/ERC20.sol\":9910:9921  _allowances */\n              0x01\n                /* \"@openzeppelin/contracts/token/ERC20/ERC20.sol\":9910:9928  _allowances[owner] */\n              0x20\n              swap1\n              dup2\n              mstore\n              0x40\n              dup1\n              dup4\n              keccak256\n                /* \"@openzeppelin/contracts/token/ERC20/ERC20.sol\":9910:9937  _allowances[owner][spender] */\n              swap4\n              dup8\n              and\n              dup4\n              mstore\n              swap3\n              swap1\n              mstore\n              keccak256\n                /* \"@openzeppelin/contracts/token/ERC20/ERC20.sol\":9910:9945  _allowances[owner][spender] = value */\n              dup3\n              swap1\n              sstore\n                /* \"@openzeppelin/contracts/token/ERC20/ERC20.sol\":9955:10031  if (emitEvent) {... */\n              dup1\n              iszero\n              tag_171\n              jumpi\n                /* \"@openzeppelin/contracts/token/ERC20/ERC20.sol\":10005:10012  spender */\n              dup3\n              sub(shl(0xa0, 0x01), 0x01)\n                /* \"@openzeppelin/contracts/token/ERC20/ERC20.sol\":9989:10020  Approval(owner, spender, value) */\n              and\n                /* \"@openzeppelin/contracts/token/ERC20/ERC20.sol\":9998:10003  owner */\n              dup5\n              sub(shl(0xa0, 0x01), 0x01)\n                /* \"@openzeppelin/contracts/token/ERC20/ERC20.sol\":9989:10020  Approval(owner, spender, value) */\n              and\n              0x8c5be1e5ebec7d5bd14f71427d1e84f3dd0314c0f7b2291e5b200ac8c7c3b925\n                /* \"@openzeppelin/contracts/token/ERC20/ERC20.sol\":10014:10019  value */\n              dup5\n                /* \"@openzeppelin/contracts/token/ERC20/ERC20.sol\":9989:10020  Approval(owner, spender, value) */\n              mload(0x40)\n              tag_212\n              swap2\n                /* \"#utility.yul\":1342:1367   */\n              dup2\n              mstore\n                /* \"#utility.yul\":1330:1332   */\n              0x20\n                /* \"#utility.yul\":1315:1333   */\n              add\n              swap1\n                /* \"#utility.yul\":1196:1373   */\n              jump\n                /* \"@openzeppelin/contracts/token/ERC20/ERC20.sol\":9989:10020  Approval(owner, spender, value) */\n            tag_212:\n              mload(0x40)\n              dup1\n              swap2\n              sub\n              swap1\n              log3\n                /* \"@openzeppelin/contracts/token/ERC20/ERC20.sol\":9605:10037  function _approve(address owner, address spender, uint256 value, bool emitEvent) internal virtual {... */\n              pop\n              pop\n              pop\n              pop\n              jump\t// out\n                /* \"contracts/token.sol\":2584:2751  function _update(... */\n            tag_178:\n                /* \"@openzeppelin/contracts/utils/Pausable.sol\":1350:1369  _requireNotPaused() */\n              tag_214\n                /* \"@openzeppelin/contracts/utils/Pausable.sol\":1350:1367  _requireNotPaused */\n              tag_202\n                /* \"@openzeppelin/contracts/utils/Pausable.sol\":1350:1369  _requireNotPaused() */\n              jump\t// in\n            tag_214:\n                /* \"contracts/token.sol\":2714:2744  super._update(from, to, value) */\n              tag_163\n                /* \"contracts/token.sol\":2728:2732  from */\n              dup4\n                /* \"contracts/token.sol\":2734:2736  to */\n              dup4\n                /* \"contracts/token.sol\":2738:2743  value */\n              dup4\n                /* \"contracts/token.sol\":2714:2727  super._update */\n              tag_217\n                /* \"contracts/token.sol\":2714:2744  super._update(from, to, value) */\n              jump\t// in\n                /* \"@openzeppelin/contracts/utils/Pausable.sol\":2078:2204  function _requirePaused() internal view virtual {... */\n            tag_187:\n                /* \"@openzeppelin/contracts/utils/Pausable.sol\":2141:2149  paused() */\n              tag_219\n                /* \"@openzeppelin/contracts/utils/Pausable.sol\":2141:2147  paused */\n              tag_54\n                /* \"@openzeppelin/contracts/utils/Pausable.sol\":2141:2149  paused() */\n              jump\t// in\n            tag_219:\n                /* \"@openzeppelin/contracts/utils/Pausable.sol\":2136:2198  if (!paused()) {... */\n              tag_111\n              jumpi\n                /* \"@openzeppelin/contracts/utils/Pausable.sol\":2172:2187  ExpectedPause() */\n              mload(0x40)\n              shl(0xe0, 0x8dfc202b)\n              dup2\n              mstore\n              0x04\n              add\n              mload(0x40)\n              dup1\n              swap2\n              sub\n              swap1\n              revert\n                /* \"@openzeppelin/contracts/utils/Pausable.sol\":1878:2006  function _requireNotPaused() internal view virtual {... */\n            tag_202:\n                /* \"@openzeppelin/contracts/utils/Pausable.sol\":1943:1951  paused() */\n              tag_222\n                /* \"@openzeppelin/contracts/utils/Pausable.sol\":1943:1949  paused */\n              tag_54\n                /* \"@openzeppelin/contracts/utils/Pausable.sol\":1943:1951  paused() */\n              jump\t// in\n            tag_222:\n                /* \"@openzeppelin/contracts/utils/Pausable.sol\":1939:2000  if (paused()) {... */\n              iszero\n              tag_111\n              jumpi\n                /* \"@openzeppelin/contracts/utils/Pausable.sol\":1974:1989  EnforcedPause() */\n              mload(0x40)\n              shl(0xe0, 0xd93c0665)\n              dup2\n              mstore\n              0x04\n              add\n              mload(0x40)\n              dup1\n              swap2\n              sub\n              swap1\n              revert\n                /* \"@openzeppelin/contracts/token/ERC20/ERC20.sol\":5912:7019  function _update(address from, address to, uint256 value) internal virtual {... */\n            tag_217:\n              sub(shl(0xa0, 0x01), 0x01)\n                /* \"@openzeppelin/contracts/token/ERC20/ERC20.sol\":6001:6019  from == address(0) */\n              dup4\n              and\n                /* \"@openzeppelin/contracts/token/ERC20/ERC20.sol\":5997:6537  if (from == address(0)) {... */\n              tag_225\n              jumpi\n                /* \"@openzeppelin/contracts/token/ERC20/ERC20.sol\":6153:6158  value */\n              dup1\n                /* \"@openzeppelin/contracts/token/ERC20/ERC20.sol\":6137:6149  _totalSupply */\n              0x02\n              0x00\n                /* \"@openzeppelin/contracts/token/ERC20/ERC20.sol\":6137:6158  _totalSupply += value */\n              dup3\n              dup3\n              sload\n              tag_226\n              swap2\n              swap1\n              tag_118\n              jump\t// in\n            tag_226:\n              swap1\n              swap2\n              sstore\n              pop\n                /* \"@openzeppelin/contracts/token/ERC20/ERC20.sol\":5997:6537  if (from == address(0)) {... */\n              tag_227\n              swap1\n              pop\n              jump\n            tag_225:\n              sub(shl(0xa0, 0x01), 0x01)\n                /* \"@openzeppelin/contracts/token/ERC20/ERC20.sol\":6211:6226  _balances[from] */\n              dup4\n              and\n                /* \"@openzeppelin/contracts/token/ERC20/ERC20.sol\":6189:6208  uint256 fromBalance */\n              0x00\n                /* \"@openzeppelin/contracts/token/ERC20/ERC20.sol\":6211:6226  _balances[from] */\n              swap1\n              dup2\n              mstore\n              0x20\n              dup2\n              swap1\n              mstore\n              0x40\n              swap1\n              keccak256\n              sload\n                /* \"@openzeppelin/contracts/token/ERC20/ERC20.sol\":6244:6263  fromBalance < value */\n              dup2\n              dup2\n              lt\n                /* \"@openzeppelin/contracts/token/ERC20/ERC20.sol\":6240:6355  if (fromBalance < value) {... */\n              iszero\n              tag_228\n              jumpi\n                /* \"@openzeppelin/contracts/token/ERC20/ERC20.sol\":6315:6319  from */\n              dup4\n                /* \"@openzeppelin/contracts/token/ERC20/ERC20.sol\":6321:6332  fromBalance */\n              dup2\n                /* \"@openzeppelin/contracts/token/ERC20/ERC20.sol\":6334:6339  value */\n              dup4\n                /* \"@openzeppelin/contracts/token/ERC20/ERC20.sol\":6290:6340  ERC20InsufficientBalance(from, fromBalance, value) */\n              mload(0x40)\n              shl(0xe2, 0x391434e3)\n              dup2\n              mstore\n              0x04\n              add\n              tag_120\n              swap4\n              swap3\n              swap2\n              swap1\n              tag_170\n              jump\t// in\n                /* \"@openzeppelin/contracts/token/ERC20/ERC20.sol\":6240:6355  if (fromBalance < value) {... */\n            tag_228:\n              sub(shl(0xa0, 0x01), 0x01)\n                /* \"@openzeppelin/contracts/token/ERC20/ERC20.sol\":6475:6490  _balances[from] */\n              dup5\n              and\n                /* \"@openzeppelin/contracts/token/ERC20/ERC20.sol\":6475:6484  _balances */\n              0x00\n                /* \"@openzeppelin/contracts/token/ERC20/ERC20.sol\":6475:6490  _balances[from] */\n              swap1\n              dup2\n              mstore\n              0x20\n              dup2\n              swap1\n              mstore\n              0x40\n              swap1\n              keccak256\n                /* \"@openzeppelin/contracts/token/ERC20/ERC20.sol\":6493:6512  fromBalance - value */\n              swap1\n              dup3\n              swap1\n              sub\n                /* \"@openzeppelin/contracts/token/ERC20/ERC20.sol\":6475:6512  _balances[from] = fromBalance - value */\n              swap1\n              sstore\n                /* \"@openzeppelin/contracts/token/ERC20/ERC20.sol\":5997:6537  if (from == address(0)) {... */\n            tag_227:\n              sub(shl(0xa0, 0x01), 0x01)\n                /* \"@openzeppelin/contracts/token/ERC20/ERC20.sol\":6551:6567  to == address(0) */\n              dup3\n              and\n                /* \"@openzeppelin/contracts/token/ERC20/ERC20.sol\":6547:6972  if (to == address(0)) {... */\n              tag_230\n              jumpi\n                /* \"@openzeppelin/contracts/token/ERC20/ERC20.sol\":6714:6726  _totalSupply */\n              0x02\n                /* \"@openzeppelin/contracts/token/ERC20/ERC20.sol\":6714:6735  _totalSupply -= value */\n              dup1\n              sload\n              dup3\n              swap1\n              sub\n              swap1\n              sstore\n                /* \"@openzeppelin/contracts/token/ERC20/ERC20.sol\":6547:6972  if (to == address(0)) {... */\n              jump(tag_231)\n            tag_230:\n              sub(shl(0xa0, 0x01), 0x01)\n                /* \"@openzeppelin/contracts/token/ERC20/ERC20.sol\":6925:6938  _balances[to] */\n              dup3\n              and\n                /* \"@openzeppelin/contracts/token/ERC20/ERC20.sol\":6925:6934  _balances */\n              0x00\n                /* \"@openzeppelin/contracts/token/ERC20/ERC20.sol\":6925:6938  _balances[to] */\n              swap1\n              dup2\n              mstore\n              0x20\n              dup2\n              swap1\n              mstore\n              0x40\n              swap1\n              keccak256\n                /* \"@openzeppelin/contracts/token/ERC20/ERC20.sol\":6925:6947  _balances[to] += value */\n              dup1\n              sload\n              dup3\n              add\n              swap1\n              sstore\n                /* \"@openzeppelin/contracts/token/ERC20/ERC20.sol\":6547:6972  if (to == address(0)) {... */\n            tag_231:\n                /* \"@openzeppelin/contracts/token/ERC20/ERC20.sol\":7002:7004  to */\n              dup2\n              sub(shl(0xa0, 0x01), 0x01)\n                /* \"@openzeppelin/contracts/token/ERC20/ERC20.sol\":6987:7012  Transfer(from, to, value) */\n              and\n                /* \"@openzeppelin/contracts/token/ERC20/ERC20.sol\":6996:7000  from */\n              dup4\n              sub(shl(0xa0, 0x01), 0x01)\n                /* \"@openzeppelin/contracts/token/ERC20/ERC20.sol\":6987:7012  Transfer(from, to, value) */\n              and\n              0xddf252ad1be2c89b69c2b068fc378daa952ba7f163c4a11628f55a4df523b3ef\n                /* \"@openzeppelin/contracts/token/ERC20/ERC20.sol\":7006:7011  value */\n              dup4\n                /* \"@openzeppelin/contracts/token/ERC20/ERC20.sol\":6987:7012  Transfer(from, to, value) */\n              mload(0x40)\n              tag_232\n              swap2\n                /* \"#utility.yul\":1342:1367   */\n              dup2\n              mstore\n                /* \"#utility.yul\":1330:1332   */\n              0x20\n                /* \"#utility.yul\":1315:1333   */\n              add\n              swap1\n                /* \"#utility.yul\":1196:1373   */\n              jump\n                /* \"@openzeppelin/contracts/token/ERC20/ERC20.sol\":6987:7012  Transfer(from, to, value) */\n            tag_232:\n              mload(0x40)\n              dup1\n              swap2\n              sub\n              swap1\n              log3\n                /* \"@openzeppelin/contracts/token/ERC20/ERC20.sol\":5912:7019  function _update(address from, address to, uint256 value) internal virtual {... */\n              pop\n              pop\n              pop\n              jump\t// out\n                /* \"#utility.yul\":14:562   */\n            tag_24:\n                /* \"#utility.yul\":126:130   */\n              0x00\n                /* \"#utility.yul\":155:157   */\n              0x20\n                /* \"#utility.yul\":184:186   */\n              dup1\n                /* \"#utility.yul\":173:182   */\n              dup4\n                /* \"#utility.yul\":166:187   */\n              mstore\n                /* \"#utility.yul\":216:222   */\n              dup4\n                /* \"#utility.yul\":210:223   */\n              mload\n                /* \"#utility.yul\":259:265   */\n              dup1\n                /* \"#utility.yul\":254:256   */\n              dup3\n                /* \"#utility.yul\":243:252   */\n              dup6\n                /* \"#utility.yul\":239:257   */\n              add\n                /* \"#utility.yul\":232:266   */\n              mstore\n                /* \"#utility.yul\":284:285   */\n              0x00\n                /* \"#utility.yul\":294:434   */\n            tag_236:\n                /* \"#utility.yul\":308:314   */\n              dup2\n                /* \"#utility.yul\":305:306   */\n              dup2\n                /* \"#utility.yul\":302:315   */\n              lt\n                /* \"#utility.yul\":294:434   */\n              iszero\n              tag_238\n              jumpi\n                /* \"#utility.yul\":403:417   */\n              dup6\n              dup2\n              add\n                /* \"#utility.yul\":399:422   */\n              dup4\n              add\n                /* \"#utility.yul\":393:423   */\n              mload\n                /* \"#utility.yul\":369:386   */\n              dup6\n              dup3\n              add\n                /* \"#utility.yul\":388:390   */\n              0x40\n                /* \"#utility.yul\":365:391   */\n              add\n                /* \"#utility.yul\":358:424   */\n              mstore\n                /* \"#utility.yul\":323:333   */\n              dup3\n              add\n                /* \"#utility.yul\":294:434   */\n              jump(tag_236)\n            tag_238:\n                /* \"#utility.yul\":298:301   */\n              pop\n                /* \"#utility.yul\":483:484   */\n              0x00\n                /* \"#utility.yul\":478:480   */\n              0x40\n                /* \"#utility.yul\":469:475   */\n              dup3\n                /* \"#utility.yul\":458:467   */\n              dup7\n                /* \"#utility.yul\":454:476   */\n              add\n                /* \"#utility.yul\":450:481   */\n              add\n                /* \"#utility.yul\":443:485   */\n              mstore\n                /* \"#utility.yul\":553:555   */\n              0x40\n                /* \"#utility.yul\":546:548   */\n              0x1f\n                /* \"#utility.yul\":542:549   */\n              not\n                /* \"#utility.yul\":537:539   */\n              0x1f\n                /* \"#utility.yul\":529:535   */\n              dup4\n                /* \"#utility.yul\":525:540   */\n              add\n                /* \"#utility.yul\":521:550   */\n              and\n                /* \"#utility.yul\":510:519   */\n              dup6\n                /* \"#utility.yul\":506:551   */\n              add\n                /* \"#utility.yul\":502:556   */\n              add\n                /* \"#utility.yul\":494:556   */\n              swap3\n              pop\n              pop\n              pop\n                /* \"#utility.yul\":14:562   */\n              swap3\n              swap2\n              pop\n              pop\n              jump\t// out\n                /* \"#utility.yul\":567:740   */\n            tag_233:\n                /* \"#utility.yul\":635:655   */\n              dup1\n              calldataload\n              sub(shl(0xa0, 0x01), 0x01)\n                /* \"#utility.yul\":684:715   */\n              dup2\n              and\n                /* \"#utility.yul\":674:716   */\n              dup2\n              eq\n                /* \"#utility.yul\":664:734   */\n              tag_240\n              jumpi\n                /* \"#utility.yul\":730:731   */\n              0x00\n                /* \"#utility.yul\":727:728   */\n              dup1\n                /* \"#utility.yul\":720:732   */\n              revert\n                /* \"#utility.yul\":664:734   */\n            tag_240:\n                /* \"#utility.yul\":567:740   */\n              swap2\n              swap1\n              pop\n              jump\t// out\n                /* \"#utility.yul\":745:999   */\n            tag_27:\n                /* \"#utility.yul\":813:819   */\n              0x00\n                /* \"#utility.yul\":821:827   */\n              dup1\n                /* \"#utility.yul\":874:876   */\n              0x40\n                /* \"#utility.yul\":862:871   */\n              dup4\n                /* \"#utility.yul\":853:860   */\n              dup6\n                /* \"#utility.yul\":849:872   */\n              sub\n                /* \"#utility.yul\":845:877   */\n              slt\n                /* \"#utility.yul\":842:894   */\n              iszero\n              tag_242\n              jumpi\n                /* \"#utility.yul\":890:891   */\n              0x00\n                /* \"#utility.yul\":887:888   */\n              dup1\n                /* \"#utility.yul\":880:892   */\n              revert\n                /* \"#utility.yul\":842:894   */\n            tag_242:\n                /* \"#utility.yul\":913:942   */\n              tag_243\n                /* \"#utility.yul\":932:941   */\n              dup4\n                /* \"#utility.yul\":913:942   */\n              tag_233\n              jump\t// in\n            tag_243:\n                /* \"#utility.yul\":903:942   */\n              swap5\n                /* \"#utility.yul\":989:991   */\n              0x20\n                /* \"#utility.yul\":974:992   */\n              swap4\n              swap1\n              swap4\n              add\n                /* \"#utility.yul\":961:993   */\n              calldataload\n              swap4\n              pop\n              pop\n              pop\n                /* \"#utility.yul\":745:999   */\n              jump\t// out\n                /* \"#utility.yul\":1378:1706   */\n            tag_37:\n                /* \"#utility.yul\":1455:1461   */\n              0x00\n                /* \"#utility.yul\":1463:1469   */\n              dup1\n                /* \"#utility.yul\":1471:1477   */\n              0x00\n                /* \"#utility.yul\":1524:1526   */\n              0x60\n                /* \"#utility.yul\":1512:1521   */\n              dup5\n                /* \"#utility.yul\":1503:1510   */\n              dup7\n                /* \"#utility.yul\":1499:1522   */\n              sub\n                /* \"#utility.yul\":1495:1527   */\n              slt\n                /* \"#utility.yul\":1492:1544   */\n              iszero\n              tag_247\n              jumpi\n                /* \"#utility.yul\":1540:1541   */\n              0x00\n                /* \"#utility.yul\":1537:1538   */\n              dup1\n                /* \"#utility.yul\":1530:1542   */\n              revert\n                /* \"#utility.yul\":1492:1544   */\n            tag_247:\n                /* \"#utility.yul\":1563:1592   */\n              tag_248\n                /* \"#utility.yul\":1582:1591   */\n              dup5\n                /* \"#utility.yul\":1563:1592   */\n              tag_233\n              jump\t// in\n            tag_248:\n                /* \"#utility.yul\":1553:1592   */\n              swap3\n              pop\n                /* \"#utility.yul\":1611:1649   */\n              tag_249\n                /* \"#utility.yul\":1645:1647   */\n              0x20\n                /* \"#utility.yul\":1634:1643   */\n              dup6\n                /* \"#utility.yul\":1630:1648   */\n              add\n                /* \"#utility.yul\":1611:1649   */\n              tag_233\n              jump\t// in\n            tag_249:\n                /* \"#utility.yul\":1601:1649   */\n              swap2\n              pop\n                /* \"#utility.yul\":1696:1698   */\n              0x40\n                /* \"#utility.yul\":1685:1694   */\n              dup5\n                /* \"#utility.yul\":1681:1699   */\n              add\n                /* \"#utility.yul\":1668:1700   */\n              calldataload\n                /* \"#utility.yul\":1658:1700   */\n              swap1\n              pop\n                /* \"#utility.yul\":1378:1706   */\n              swap3\n              pop\n              swap3\n              pop\n              swap3\n              jump\t// out\n                /* \"#utility.yul\":1900:2080   */\n            tag_51:\n                /* \"#utility.yul\":1959:1965   */\n              0x00\n                /* \"#utility.yul\":2012:2014   */\n              0x20\n                /* \"#utility.yul\":2000:2009   */\n              dup3\n                /* \"#utility.yul\":1991:1998   */\n              dup5\n                /* \"#utility.yul\":1987:2010   */\n              sub\n                /* \"#utility.yul\":1983:2015   */\n              slt\n                /* \"#utility.yul\":1980:2032   */\n              iszero\n              tag_252\n              jumpi\n                /* \"#utility.yul\":2028:2029   */\n              0x00\n                /* \"#utility.yul\":2025:2026   */\n              dup1\n                /* \"#utility.yul\":2018:2030   */\n              revert\n                /* \"#utility.yul\":1980:2032   */\n            tag_252:\n              pop\n                /* \"#utility.yul\":2051:2074   */\n              calldataload\n              swap2\n                /* \"#utility.yul\":1900:2080   */\n              swap1\n              pop\n              jump\t// out\n                /* \"#utility.yul\":2085:2271   */\n            tag_58:\n                /* \"#utility.yul\":2144:2150   */\n              0x00\n                /* \"#utility.yul\":2197:2199   */\n              0x20\n                /* \"#utility.yul\":2185:2194   */\n              dup3\n                /* \"#utility.yul\":2176:2183   */\n              dup5\n                /* \"#utility.yul\":2172:2195   */\n              sub\n                /* \"#utility.yul\":2168:2200   */\n              slt\n                /* \"#utility.yul\":2165:2217   */\n              iszero\n              tag_254\n              jumpi\n                /* \"#utility.yul\":2213:2214   */\n              0x00\n                /* \"#utility.yul\":2210:2211   */\n              dup1\n                /* \"#utility.yul\":2203:2215   */\n              revert\n                /* \"#utility.yul\":2165:2217   */\n            tag_254:\n                /* \"#utility.yul\":2236:2265   */\n              tag_255\n                /* \"#utility.yul\":2255:2264   */\n              dup3\n                /* \"#utility.yul\":2236:2265   */\n              tag_233\n              jump\t// in\n            tag_255:\n                /* \"#utility.yul\":2226:2265   */\n              swap4\n                /* \"#utility.yul\":2085:2271   */\n              swap3\n              pop\n              pop\n              pop\n              jump\t// out\n                /* \"#utility.yul\":2276:2479   */\n            tag_71:\n              sub(shl(0xa0, 0x01), 0x01)\n                /* \"#utility.yul\":2440:2472   */\n              swap2\n              swap1\n              swap2\n              and\n                /* \"#utility.yul\":2422:2473   */\n              dup2\n              mstore\n                /* \"#utility.yul\":2410:2412   */\n              0x20\n                /* \"#utility.yul\":2395:2413   */\n              add\n              swap1\n                /* \"#utility.yul\":2276:2479   */\n              jump\t// out\n                /* \"#utility.yul\":2484:2744   */\n            tag_81:\n                /* \"#utility.yul\":2552:2558   */\n              0x00\n                /* \"#utility.yul\":2560:2566   */\n              dup1\n                /* \"#utility.yul\":2613:2615   */\n              0x40\n                /* \"#utility.yul\":2601:2610   */\n              dup4\n                /* \"#utility.yul\":2592:2599   */\n              dup6\n                /* \"#utility.yul\":2588:2611   */\n              sub\n                /* \"#utility.yul\":2584:2616   */\n              slt\n                /* \"#utility.yul\":2581:2633   */\n              iszero\n              tag_258\n              jumpi\n                /* \"#utility.yul\":2629:2630   */\n              0x00\n                /* \"#utility.yul\":2626:2627   */\n              dup1\n                /* \"#utility.yul\":2619:2631   */\n              revert\n                /* \"#utility.yul\":2581:2633   */\n            tag_258:\n                /* \"#utility.yul\":2652:2681   */\n              tag_259\n                /* \"#utility.yul\":2671:2680   */\n              dup4\n                /* \"#utility.yul\":2652:2681   */\n              tag_233\n              jump\t// in\n            tag_259:\n                /* \"#utility.yul\":2642:2681   */\n              swap2\n              pop\n                /* \"#utility.yul\":2700:2738   */\n              tag_260\n                /* \"#utility.yul\":2734:2736   */\n              0x20\n                /* \"#utility.yul\":2723:2732   */\n              dup5\n                /* \"#utility.yul\":2719:2737   */\n              add\n                /* \"#utility.yul\":2700:2738   */\n              tag_233\n              jump\t// in\n            tag_260:\n                /* \"#utility.yul\":2690:2738   */\n              swap1\n              pop\n                /* \"#utility.yul\":2484:2744   */\n              swap3\n              pop\n              swap3\n              swap1\n              pop\n              jump\t// out\n                /* \"#utility.yul\":2749:3129   */\n            tag_89:\n                /* \"#utility.yul\":2828:2829   */\n              0x01\n                /* \"#utility.yul\":2824:2836   */\n              dup2\n              dup2\n              shr\n              swap1\n                /* \"#utility.yul\":2871:2883   */\n              dup3\n              and\n              dup1\n                /* \"#utility.yul\":2892:2953   */\n              tag_262\n              jumpi\n                /* \"#utility.yul\":2946:2950   */\n              0x7f\n                /* \"#utility.yul\":2938:2944   */\n              dup3\n                /* \"#utility.yul\":2934:2951   */\n              and\n                /* \"#utility.yul\":2924:2951   */\n              swap2\n              pop\n                /* \"#utility.yul\":2892:2953   */\n            tag_262:\n                /* \"#utility.yul\":2999:3001   */\n              0x20\n                /* \"#utility.yul\":2991:2997   */\n              dup3\n                /* \"#utility.yul\":2988:3002   */\n              lt\n                /* \"#utility.yul\":2968:2986   */\n              dup2\n                /* \"#utility.yul\":2965:3003   */\n              sub\n                /* \"#utility.yul\":2962:3123   */\n              tag_263\n              jumpi\n                /* \"#utility.yul\":3045:3055   */\n              0x4e487b71\n                /* \"#utility.yul\":3040:3043   */\n              0xe0\n                /* \"#utility.yul\":3036:3056   */\n              shl\n                /* \"#utility.yul\":3033:3034   */\n              0x00\n                /* \"#utility.yul\":3026:3057   */\n              mstore\n                /* \"#utility.yul\":3080:3084   */\n              0x22\n                /* \"#utility.yul\":3077:3078   */\n              0x04\n                /* \"#utility.yul\":3070:3085   */\n              mstore\n                /* \"#utility.yul\":3108:3112   */\n              0x24\n                /* \"#utility.yul\":3105:3106   */\n              0x00\n                /* \"#utility.yul\":3098:3113   */\n              revert\n                /* \"#utility.yul\":2962:3123   */\n            tag_263:\n              pop\n                /* \"#utility.yul\":2749:3129   */\n              swap2\n              swap1\n              pop\n              jump\t// out\n                /* \"#utility.yul\":3134:3356   */\n            tag_118:\n                /* \"#utility.yul\":3199:3208   */\n              dup1\n              dup3\n              add\n                /* \"#utility.yul\":3220:3230   */\n              dup1\n              dup3\n              gt\n                /* \"#utility.yul\":3217:3350   */\n              iszero\n              tag_94\n              jumpi\n                /* \"#utility.yul\":3272:3282   */\n              0x4e487b71\n                /* \"#utility.yul\":3267:3270   */\n              0xe0\n                /* \"#utility.yul\":3263:3283   */\n              shl\n                /* \"#utility.yul\":3260:3261   */\n              0x00\n                /* \"#utility.yul\":3253:3284   */\n              mstore\n                /* \"#utility.yul\":3307:3311   */\n              0x11\n                /* \"#utility.yul\":3304:3305   */\n              0x04\n                /* \"#utility.yul\":3297:3312   */\n              mstore\n                /* \"#utility.yul\":3335:3339   */\n              0x24\n                /* \"#utility.yul\":3332:3333   */\n              0x00\n                /* \"#utility.yul\":3325:3340   */\n              revert\n                /* \"#utility.yul\":3709:4054   */\n            tag_170:\n              sub(shl(0xa0, 0x01), 0x01)\n                /* \"#utility.yul\":3929:3961   */\n              swap4\n              swap1\n              swap4\n              and\n                /* \"#utility.yul\":3911:3962   */\n              dup4\n              mstore\n                /* \"#utility.yul\":3993:3995   */\n              0x20\n                /* \"#utility.yul\":3978:3996   */\n              dup4\n              add\n                /* \"#utility.yul\":3971:4005   */\n              swap2\n              swap1\n              swap2\n              mstore\n                /* \"#utility.yul\":4036:4038   */\n              0x40\n                /* \"#utility.yul\":4021:4039   */\n              dup3\n              add\n                /* \"#utility.yul\":4014:4048   */\n              mstore\n                /* \"#utility.yul\":3899:3901   */\n              0x60\n                /* \"#utility.yul\":3884:3902   */\n              add\n              swap1\n                /* \"#utility.yul\":3709:4054   */\n              jump\t// out\n\n            auxdata: 0xa2646970667358221220f529989a813db1d2559468912ed7ef9fa1bfb27f6bf334d9913188b73ea920de64736f6c63430008140033\n        }\n    }\n\n    auxdata: 0xa2646970667358221220f4b71b283a26963bd3ad24b0f8cc9e292aa8a0725df89c9f6ad366752026351564736f6c63430008140033\n}\n",
				"bytecode": {
					"linkReferences": {},
					"object": "608060405234801561000f575f80fd5b506116438061001d5f395ff3fe608060405234801562000010575f80fd5b506004361062000038575f3560e01c806318423c06146200003c5780633dcee3ac146200006f575b5f80fd5b620000536200004d3660046200029d565b62000086565b6040516001600160a01b03909116815260200160405180910390f35b62000053620000803660046200029d565b6200015c565b5f80604051806020016200009a906200028f565b6020820181038252601f19601f8201166040525090505f868686604051602001620000c893929190620002f3565b60405160208183030381529060405290505f8282604051602001620000ef92919062000346565b60408051808303601f1901815282825280516020918201206001600160f81b0319828501523060601b6001600160601b0319166021850152603584019890985260558084019890985281518084039098018852607590920190528551950194909420979650505050505050565b5f806040518060200162000170906200028f565b6020820181038252601f19601f8201166040525090505f8686866040516020016200019e93929190620002f3565b60405160208183030381529060405290505f8282604051602001620001c592919062000346565b6040516020818303038152906040529050848151602083015ff593506001600160a01b038416620002305760405162461bcd60e51b815260206004820152601160248201527011195c1b1bde5b595b9d0819985a5b1959607a1b604482015260640160405180910390fd5b6040805160ff89168152602081018890529081018690526001600160a01b03808a1691908616907fd1c16269e4896821ea5dd6216a16b09048d63329a1b10963f0458d3f0389f4f49060600160405180910390a3505050949350505050565b6112a7806200036783390190565b5f805f8060808587031215620002b1575f80fd5b84356001600160a01b0381168114620002c8575f80fd5b9350602085013560ff81168114620002de575f80fd5b93969395505050506040820135916060013590565b6001600160a01b0393909316835260ff919091166020830152604082015260600190565b5f81515f5b818110156200033857602081850181015186830152016200031c565b505f93019283525090919050565b5f6200035e62000357838662000317565b8462000317565b94935050505056fe608060405234801562000010575f80fd5b50604051620012a7380380620012a783398101604081905262000033916200045f565b604080518082018252600c8082526be5b881e5ae89e4bb99e5a5b360a01b60208084018290528451808601909552918452908301528491600362000078838262000551565b50600462000087828262000551565b5050506001600160a01b038116620000bf575f604051631e4fbdf760e01b8152600401620000b6919062000619565b60405180910390fd5b620000ca8162000251565b506001600160a01b038316620001135760405162461bcd60e51b815260206004820152600d60248201526c24b73b30b634b21037bbb732b960991b6044820152606401620000b6565b60128260ff1611156200015d5760405162461bcd60e51b8152602060048201526011602482015270088cac6d2dac2d8e640e8dede40d0d2ced607b1b6044820152606401620000b6565b805f03620001ae5760405162461bcd60e51b815260206004820152601f60248201527f496e697469616c20737570706c79206d75737420626520706f736974697665006044820152606401620000b6565b620001bb82600a6200073c565b620001c8905f1962000753565b8111156200020c5760405162461bcd60e51b815260206004820152601060248201526f537570706c7920746f6f206c6172676560801b6044820152606401620000b6565b6005805460ff60a81b1916600160a81b60ff85160217905562000248836200023684600a6200073c565b62000242908462000773565b620002a2565b505050620007a3565b600580546001600160a01b038381166001600160a01b0319831681179093556040519116919082907f8be0079c531659141344cd1fd0a4f28419497f9722a3daafe3b4186f6b6457e0905f90a35050565b6001600160a01b038216620002ce575f60405163ec442f0560e01b8152600401620000b6919062000619565b620002db5f8383620002df565b5050565b620002e9620002fb565b620002f683838362000330565b505050565b6200030f600554600160a01b900460ff1690565b156200032e5760405163d93c066560e01b815260040160405180910390fd5b565b6001600160a01b0383166200035e578060025f8282546200035291906200078d565b90915550620003d09050565b6001600160a01b0383165f9081526020819052604090205481811015620003b25760405163391434e360e21b81526001600160a01b03851660048201526024810182905260448101839052606401620000b6565b6001600160a01b0384165f9081526020819052604090209082900390555b6001600160a01b038216620003ee576002805482900390556200040c565b6001600160a01b0382165f9081526020819052604090208054820190555b816001600160a01b0316836001600160a01b03167fddf252ad1be2c89b69c2b068fc378daa952ba7f163c4a11628f55a4df523b3ef836040516200045291815260200190565b60405180910390a3505050565b5f805f6060848603121562000472575f80fd5b83516001600160a01b038116811462000489575f80fd5b602085015190935060ff81168114620004a0575f80fd5b80925050604084015190509250925092565b634e487b7160e01b5f52604160045260245ffd5b600181811c90821680620004db57607f821691505b602082108103620004fa57634e487b7160e01b5f52602260045260245ffd5b50919050565b601f821115620002f6575f81815260208120601f850160051c81016020861015620005285750805b601f850160051c820191505b81811015620005495782815560010162000534565b505050505050565b81516001600160401b038111156200056d576200056d620004b2565b62000585816200057e8454620004c6565b8462000500565b602080601f831160018114620005bb575f8415620005a35750858301515b5f19600386901b1c1916600185901b17855562000549565b5f85815260208120601f198616915b82811015620005eb57888601518255948401946001909101908401620005ca565b50858210156200060957878501515f19600388901b60f8161c191681555b5050505050600190811b01905550565b6001600160a01b0391909116815260200190565b634e487b7160e01b5f52601160045260245ffd5b600181815b808511156200068157815f19048211156200066557620006656200062d565b808516156200067357918102915b93841c939080029062000646565b509250929050565b5f82620006995750600162000736565b81620006a757505f62000736565b8160018114620006c05760028114620006cb57620006eb565b600191505062000736565b60ff841115620006df57620006df6200062d565b50506001821b62000736565b5060208310610133831016604e8410600b841016171562000710575081810a62000736565b6200071c838362000641565b805f19048211156200073257620007326200062d565b0290505b92915050565b5f6200074c60ff84168362000689565b9392505050565b5f826200076e57634e487b7160e01b5f52601260045260245ffd5b500490565b80820281158282048414176200073657620007366200062d565b808201808211156200073657620007366200062d565b610af680620007b15f395ff3fe608060405234801561000f575f80fd5b50600436106100e4575f3560e01c806306fdde03146100e8578063095ea7b31461010657806318160ddd1461012957806323b872dd1461013b578063313ce5671461014e5780633f4ba83a1461016d57806340c10f191461017757806342966c681461018a5780635c975abb1461019d57806370a08231146101a5578063715018a6146101cd57806379cc6790146101d55780638456cb59146101e85780638da5cb5b146101f057806395d89b4114610205578063a9059cbb1461020d578063dd62ed3e14610220578063f2fde38b14610233575b5f80fd5b6100f0610246565b6040516100fd9190610905565b60405180910390f35b61011961011436600461096b565b6102d6565b60405190151581526020016100fd565b6002545b6040519081526020016100fd565b610119610149366004610993565b6102ef565b600554600160a81b900460ff1660405160ff90911681526020016100fd565b610175610312565b005b61017561018536600461096b565b610324565b6101756101983660046109cc565b6103a3565b6101196103b0565b61012d6101b33660046109e3565b6001600160a01b03165f9081526020819052604090205490565b6101756103c0565b6101756101e336600461096b565b6103d1565b6101756103e6565b6101f86103f6565b6040516100fd9190610a03565b6100f0610405565b61011961021b36600461096b565b610414565b61012d61022e366004610a17565b610421565b6101756102413660046109e3565b61044b565b60606003805461025590610a48565b80601f016020809104026020016040519081016040528092919081815260200182805461028190610a48565b80156102cc5780601f106102a3576101008083540402835291602001916102cc565b820191905f5260205f20905b8154815290600101906020018083116102af57829003601f168201915b5050505050905090565b5f336102e3818585610485565b60019150505b92915050565b5f336102fc858285610497565b6103078585856104e8565b506001949350505050565b61031a610545565b610322610577565b565b61032c610545565b6a084595161401484a0000008161034260025490565b61034c9190610a80565b11156103955760405162461bcd60e51b815260206004820152601360248201527213585e081cdd5c1c1b1e48195e18d959591959606a1b60448201526064015b60405180910390fd5b61039f82826105c6565b5050565b6103ad33826105fa565b50565b600554600160a01b900460ff1690565b6103c8610545565b6103225f61062e565b6103dc823383610497565b61039f82826105fa565b6103ee610545565b61032261067f565b6005546001600160a01b031690565b60606004805461025590610a48565b5f336102e38185856104e8565b6001600160a01b039182165f90815260016020908152604080832093909416825291909152205490565b610453610545565b6001600160a01b03811661047c575f604051631e4fbdf760e01b815260040161038c9190610a03565b6103ad8161062e565b61049283838360016106c2565b505050565b5f6104a28484610421565b90505f198110156104e257818110156104d457828183604051637dc7a0d960e11b815260040161038c93929190610a9f565b6104e284848484035f6106c2565b50505050565b6001600160a01b038316610511575f604051634b637e8f60e11b815260040161038c9190610a03565b6001600160a01b03821661053a575f60405163ec442f0560e01b815260040161038c9190610a03565b610492838383610794565b3361054e6103f6565b6001600160a01b031614610322573360405163118cdaa760e01b815260040161038c9190610a03565b61057f6107a7565b6005805460ff60a01b191690557f5db9ee0a495bf2e6ff9c91a7834c1ba4fdd244a5e8aa4e537bd38aeae4b073aa335b6040516105bc9190610a03565b60405180910390a1565b6001600160a01b0382166105ef575f60405163ec442f0560e01b815260040161038c9190610a03565b61039f5f8383610794565b6001600160a01b038216610623575f604051634b637e8f60e11b815260040161038c9190610a03565b61039f825f83610794565b600580546001600160a01b038381166001600160a01b0319831681179093556040519116919082907f8be0079c531659141344cd1fd0a4f28419497f9722a3daafe3b4186f6b6457e0905f90a35050565b6106876107cc565b6005805460ff60a01b1916600160a01b1790557f62e78cea01bee320cd4e420270b5ea74000d11b0c9f74754ebdbfc544b05a2586105af3390565b6001600160a01b0384166106eb575f60405163e602df0560e01b815260040161038c9190610a03565b6001600160a01b038316610714575f604051634a1406b160e11b815260040161038c9190610a03565b6001600160a01b038085165f90815260016020908152604080832093871683529290522082905580156104e257826001600160a01b0316846001600160a01b03167f8c5be1e5ebec7d5bd14f71427d1e84f3dd0314c0f7b2291e5b200ac8c7c3b9258460405161078691815260200190565b60405180910390a350505050565b61079c6107cc565b6104928383836107f2565b6107af6103b0565b61032257604051638dfc202b60e01b815260040160405180910390fd5b6107d46103b0565b156103225760405163d93c066560e01b815260040160405180910390fd5b6001600160a01b03831661081c578060025f8282546108119190610a80565b909155506108799050565b6001600160a01b0383165f908152602081905260409020548181101561085b5783818360405163391434e360e21b815260040161038c93929190610a9f565b6001600160a01b0384165f9081526020819052604090209082900390555b6001600160a01b038216610895576002805482900390556108b3565b6001600160a01b0382165f9081526020819052604090208054820190555b816001600160a01b0316836001600160a01b03167fddf252ad1be2c89b69c2b068fc378daa952ba7f163c4a11628f55a4df523b3ef836040516108f891815260200190565b60405180910390a3505050565b5f6020808352835180828501525f5b8181101561093057858101830151858201604001528201610914565b505f604082860101526040601f19601f8301168501019250505092915050565b80356001600160a01b0381168114610966575f80fd5b919050565b5f806040838503121561097c575f80fd5b61098583610950565b946020939093013593505050565b5f805f606084860312156109a5575f80fd5b6109ae84610950565b92506109bc60208501610950565b9150604084013590509250925092565b5f602082840312156109dc575f80fd5b5035919050565b5f602082840312156109f3575f80fd5b6109fc82610950565b9392505050565b6001600160a01b0391909116815260200190565b5f8060408385031215610a28575f80fd5b610a3183610950565b9150610a3f60208401610950565b90509250929050565b600181811c90821680610a5c57607f821691505b602082108103610a7a57634e487b7160e01b5f52602260045260245ffd5b50919050565b808201808211156102e957634e487b7160e01b5f52601160045260245ffd5b6001600160a01b03939093168352602083019190915260408201526060019056fea2646970667358221220f529989a813db1d2559468912ed7ef9fa1bfb27f6bf334d9913188b73ea920de64736f6c63430008140033a2646970667358221220f4b71b283a26963bd3ad24b0f8cc9e292aa8a0725df89c9f6ad366752026351564736f6c63430008140033",
					"opcodes": "PUSH1 0x80 PUSH1 0x40 MSTORE CALLVALUE DUP1 ISZERO PUSH2 0xF JUMPI PUSH0 DUP1 REVERT JUMPDEST POP PUSH2 0x1643 DUP1 PUSH2 0x1D PUSH0 CODECOPY PUSH0 RETURN INVALID PUSH1 0x80 PUSH1 0x40 MSTORE CALLVALUE DUP1 ISZERO PUSH3 0x10 JUMPI PUSH0 DUP1 REVERT JUMPDEST POP PUSH1 0x4 CALLDATASIZE LT PUSH3 0x38 JUMPI PUSH0 CALLDATALOAD PUSH1 0xE0 SHR DUP1 PUSH4 0x18423C06 EQ PUSH3 0x3C JUMPI DUP1 PUSH4 0x3DCEE3AC EQ PUSH3 0x6F JUMPI JUMPDEST PUSH0 DUP1 REVERT JUMPDEST PUSH3 0x53 PUSH3 0x4D CALLDATASIZE PUSH1 0x4 PUSH3 0x29D JUMP JUMPDEST PUSH3 0x86 JUMP JUMPDEST PUSH1 0x40 MLOAD PUSH1 0x1 PUSH1 0x1 PUSH1 0xA0 SHL SUB SWAP1 SWAP2 AND DUP2 MSTORE PUSH1 0x20 ADD PUSH1 0x40 MLOAD DUP1 SWAP2 SUB SWAP1 RETURN JUMPDEST PUSH3 0x53 PUSH3 0x80 CALLDATASIZE PUSH1 0x4 PUSH3 0x29D JUMP JUMPDEST PUSH3 0x15C JUMP JUMPDEST PUSH0 DUP1 PUSH1 0x40 MLOAD DUP1 PUSH1 0x20 ADD PUSH3 0x9A SWAP1 PUSH3 0x28F JUMP JUMPDEST PUSH1 0x20 DUP3 ADD DUP2 SUB DUP3 MSTORE PUSH1 0x1F NOT PUSH1 0x1F DUP3 ADD AND PUSH1 0x40 MSTORE POP SWAP1 POP PUSH0 DUP7 DUP7 DUP7 PUSH1 0x40 MLOAD PUSH1 0x20 ADD PUSH3 0xC8 SWAP4 SWAP3 SWAP2 SWAP1 PUSH3 0x2F3 JUMP JUMPDEST PUSH1 0x40 MLOAD PUSH1 0x20 DUP2 DUP4 SUB SUB DUP2 MSTORE SWAP1 PUSH1 0x40 MSTORE SWAP1 POP PUSH0 DUP3 DUP3 PUSH1 0x40 MLOAD PUSH1 0x20 ADD PUSH3 0xEF SWAP3 SWAP2 SWAP1 PUSH3 0x346 JUMP JUMPDEST PUSH1 0x40 DUP1 MLOAD DUP1 DUP4 SUB PUSH1 0x1F NOT ADD DUP2 MSTORE DUP3 DUP3 MSTORE DUP1 MLOAD PUSH1 0x20 SWAP2 DUP3 ADD KECCAK256 PUSH1 0x1 PUSH1 0x1 PUSH1 0xF8 SHL SUB NOT DUP3 DUP6 ADD MSTORE ADDRESS PUSH1 0x60 SHL PUSH1 0x1 PUSH1 0x1 PUSH1 0x60 SHL SUB NOT AND PUSH1 0x21 DUP6 ADD MSTORE PUSH1 0x35 DUP5 ADD SWAP9 SWAP1 SWAP9 MSTORE PUSH1 0x55 DUP1 DUP5 ADD SWAP9 SWAP1 SWAP9 MSTORE DUP2 MLOAD DUP1 DUP5 SUB SWAP1 SWAP9 ADD DUP9 MSTORE PUSH1 0x75 SWAP1 SWAP3 ADD SWAP1 MSTORE DUP6 MLOAD SWAP6 ADD SWAP5 SWAP1 SWAP5 KECCAK256 SWAP8 SWAP7 POP POP POP POP POP POP POP JUMP JUMPDEST PUSH0 DUP1 PUSH1 0x40 MLOAD DUP1 PUSH1 0x20 ADD PUSH3 0x170 SWAP1 PUSH3 0x28F JUMP JUMPDEST PUSH1 0x20 DUP3 ADD DUP2 SUB DUP3 MSTORE PUSH1 0x1F NOT PUSH1 0x1F DUP3 ADD AND PUSH1 0x40 MSTORE POP SWAP1 POP PUSH0 DUP7 DUP7 DUP7 PUSH1 0x40 MLOAD PUSH1 0x20 ADD PUSH3 0x19E SWAP4 SWAP3 SWAP2 SWAP1 PUSH3 0x2F3 JUMP JUMPDEST PUSH1 0x40 MLOAD PUSH1 0x20 DUP2 DUP4 SUB SUB DUP2 MSTORE SWAP1 PUSH1 0x40 MSTORE SWAP1 POP PUSH0 DUP3 DUP3 PUSH1 0x40 MLOAD PUSH1 0x20 ADD PUSH3 0x1C5 SWAP3 SWAP2 SWAP1 PUSH3 0x346 JUMP JUMPDEST PUSH1 0x40 MLOAD PUSH1 0x20 DUP2 DUP4 SUB SUB DUP2 MSTORE SWAP1 PUSH1 0x40 MSTORE SWAP1 POP DUP5 DUP2 MLOAD PUSH1 0x20 DUP4 ADD PUSH0 CREATE2 SWAP4 POP PUSH1 0x1 PUSH1 0x1 PUSH1 0xA0 SHL SUB DUP5 AND PUSH3 0x230 JUMPI PUSH1 0x40 MLOAD PUSH3 0x461BCD PUSH1 0xE5 SHL DUP2 MSTORE PUSH1 0x20 PUSH1 0x4 DUP3 ADD MSTORE PUSH1 0x11 PUSH1 0x24 DUP3 ADD MSTORE PUSH17 0x11195C1B1BDE5B595B9D0819985A5B1959 PUSH1 0x7A SHL PUSH1 0x44 DUP3 ADD MSTORE PUSH1 0x64 ADD PUSH1 0x40 MLOAD DUP1 SWAP2 SUB SWAP1 REVERT JUMPDEST PUSH1 0x40 DUP1 MLOAD PUSH1 0xFF DUP10 AND DUP2 MSTORE PUSH1 0x20 DUP2 ADD DUP9 SWAP1 MSTORE SWAP1 DUP2 ADD DUP7 SWAP1 MSTORE PUSH1 0x1 PUSH1 0x1 PUSH1 0xA0 SHL SUB DUP1 DUP11 AND SWAP2 SWAP1 DUP7 AND SWAP1 PUSH32 0xD1C16269E4896821EA5DD6216A16B09048D63329A1B10963F0458D3F0389F4F4 SWAP1 PUSH1 0x60 ADD PUSH1 0x40 MLOAD DUP1 SWAP2 SUB SWAP1 LOG3 POP POP POP SWAP5 SWAP4 POP POP POP POP JUMP JUMPDEST PUSH2 0x12A7 DUP1 PUSH3 0x367 DUP4 CODECOPY ADD SWAP1 JUMP JUMPDEST PUSH0 DUP1 PUSH0 DUP1 PUSH1 0x80 DUP6 DUP8 SUB SLT ISZERO PUSH3 0x2B1 JUMPI PUSH0 DUP1 REVERT JUMPDEST DUP5 CALLDATALOAD PUSH1 0x1 PUSH1 0x1 PUSH1 0xA0 SHL SUB DUP2 AND DUP2 EQ PUSH3 0x2C8 JUMPI PUSH0 DUP1 REVERT JUMPDEST SWAP4 POP PUSH1 0x20 DUP6 ADD CALLDATALOAD PUSH1 0xFF DUP2 AND DUP2 EQ PUSH3 0x2DE JUMPI PUSH0 DUP1 REVERT JUMPDEST SWAP4 SWAP7 SWAP4 SWAP6 POP POP POP POP PUSH1 0x40 DUP3 ADD CALLDATALOAD SWAP2 PUSH1 0x60 ADD CALLDATALOAD SWAP1 JUMP JUMPDEST PUSH1 0x1 PUSH1 0x1 PUSH1 0xA0 SHL SUB SWAP4 SWAP1 SWAP4 AND DUP4 MSTORE PUSH1 0xFF SWAP2 SWAP1 SWAP2 AND PUSH1 0x20 DUP4 ADD MSTORE PUSH1 0x40 DUP3 ADD MSTORE PUSH1 0x60 ADD SWAP1 JUMP JUMPDEST PUSH0 DUP2 MLOAD PUSH0 JUMPDEST DUP2 DUP2 LT ISZERO PUSH3 0x338 JUMPI PUSH1 0x20 DUP2 DUP6 ADD DUP2 ADD MLOAD DUP7 DUP4 ADD MSTORE ADD PUSH3 0x31C JUMP JUMPDEST POP PUSH0 SWAP4 ADD SWAP3 DUP4 MSTORE POP SWAP1 SWAP2 SWAP1 POP JUMP JUMPDEST PUSH0 PUSH3 0x35E PUSH3 0x357 DUP4 DUP7 PUSH3 0x317 JUMP JUMPDEST DUP5 PUSH3 0x317 JUMP JUMPDEST SWAP5 SWAP4 POP POP POP POP JUMP INVALID PUSH1 0x80 PUSH1 0x40 MSTORE CALLVALUE DUP1 ISZERO PUSH3 0x10 JUMPI PUSH0 DUP1 REVERT JUMPDEST POP PUSH1 0x40 MLOAD PUSH3 0x12A7 CODESIZE SUB DUP1 PUSH3 0x12A7 DUP4 CODECOPY DUP2 ADD PUSH1 0x40 DUP2 SWAP1 MSTORE PUSH3 0x33 SWAP2 PUSH3 0x45F JUMP JUMPDEST PUSH1 0x40 DUP1 MLOAD DUP1 DUP3 ADD DUP3 MSTORE PUSH1 0xC DUP1 DUP3 MSTORE PUSH12 0xE5B881E5AE89E4BB99E5A5B3 PUSH1 0xA0 SHL PUSH1 0x20 DUP1 DUP5 ADD DUP3 SWAP1 MSTORE DUP5 MLOAD DUP1 DUP7 ADD SWAP1 SWAP6 MSTORE SWAP2 DUP5 MSTORE SWAP1 DUP4 ADD MSTORE DUP5 SWAP2 PUSH1 0x3 PUSH3 0x78 DUP4 DUP3 PUSH3 0x551 JUMP JUMPDEST POP PUSH1 0x4 PUSH3 0x87 DUP3 DUP3 PUSH3 0x551 JUMP JUMPDEST POP POP POP PUSH1 0x1 PUSH1 0x1 PUSH1 0xA0 SHL SUB DUP2 AND PUSH3 0xBF JUMPI PUSH0 PUSH1 0x40 MLOAD PUSH4 0x1E4FBDF7 PUSH1 0xE0 SHL DUP2 MSTORE PUSH1 0x4 ADD PUSH3 0xB6 SWAP2 SWAP1 PUSH3 0x619 JUMP JUMPDEST PUSH1 0x40 MLOAD DUP1 SWAP2 SUB SWAP1 REVERT JUMPDEST PUSH3 0xCA DUP2 PUSH3 0x251 JUMP JUMPDEST POP PUSH1 0x1 PUSH1 0x1 PUSH1 0xA0 SHL SUB DUP4 AND PUSH3 0x113 JUMPI PUSH1 0x40 MLOAD PUSH3 0x461BCD PUSH1 0xE5 SHL DUP2 MSTORE PUSH1 0x20 PUSH1 0x4 DUP3 ADD MSTORE PUSH1 0xD PUSH1 0x24 DUP3 ADD MSTORE PUSH13 0x24B73B30B634B21037BBB732B9 PUSH1 0x99 SHL PUSH1 0x44 DUP3 ADD MSTORE PUSH1 0x64 ADD PUSH3 0xB6 JUMP JUMPDEST PUSH1 0x12 DUP3 PUSH1 0xFF AND GT ISZERO PUSH3 0x15D JUMPI PUSH1 0x40 MLOAD PUSH3 0x461BCD PUSH1 0xE5 SHL DUP2 MSTORE PUSH1 0x20 PUSH1 0x4 DUP3 ADD MSTORE PUSH1 0x11 PUSH1 0x24 DUP3 ADD MSTORE PUSH17 0x88CAC6D2DAC2D8E640E8DEDE40D0D2CED PUSH1 0x7B SHL PUSH1 0x44 DUP3 ADD MSTORE PUSH1 0x64 ADD PUSH3 0xB6 JUMP JUMPDEST DUP1 PUSH0 SUB PUSH3 0x1AE JUMPI PUSH1 0x40 MLOAD PUSH3 0x461BCD PUSH1 0xE5 SHL DUP2 MSTORE PUSH1 0x20 PUSH1 0x4 DUP3 ADD MSTORE PUSH1 0x1F PUSH1 0x24 DUP3 ADD MSTORE PUSH32 0x496E697469616C20737570706C79206D75737420626520706F73697469766500 PUSH1 0x44 DUP3 ADD MSTORE PUSH1 0x64 ADD PUSH3 0xB6 JUMP JUMPDEST PUSH3 0x1BB DUP3 PUSH1 0xA PUSH3 0x73C JUMP JUMPDEST PUSH3 0x1C8 SWAP1 PUSH0 NOT PUSH3 0x753 JUMP JUMPDEST DUP2 GT ISZERO PUSH3 0x20C JUMPI PUSH1 0x40 MLOAD PUSH3 0x461BCD PUSH1 0xE5 SHL DUP2 MSTORE PUSH1 0x20 PUSH1 0x4 DUP3 ADD MSTORE PUSH1 0x10 PUSH1 0x24 DUP3 ADD MSTORE PUSH16 0x537570706C7920746F6F206C61726765 PUSH1 0x80 SHL PUSH1 0x44 DUP3 ADD MSTORE PUSH1 0x64 ADD PUSH3 0xB6 JUMP JUMPDEST PUSH1 0x5 DUP1 SLOAD PUSH1 0xFF PUSH1 0xA8 SHL NOT AND PUSH1 0x1 PUSH1 0xA8 SHL PUSH1 0xFF DUP6 AND MUL OR SWAP1 SSTORE PUSH3 0x248 DUP4 PUSH3 0x236 DUP5 PUSH1 0xA PUSH3 0x73C JUMP JUMPDEST PUSH3 0x242 SWAP1 DUP5 PUSH3 0x773 JUMP JUMPDEST PUSH3 0x2A2 JUMP JUMPDEST POP POP POP PUSH3 0x7A3 JUMP JUMPDEST PUSH1 0x5 DUP1 SLOAD PUSH1 0x1 PUSH1 0x1 PUSH1 0xA0 SHL SUB DUP4 DUP2 AND PUSH1 0x1 PUSH1 0x1 PUSH1 0xA0 SHL SUB NOT DUP4 AND DUP2 OR SWAP1 SWAP4 SSTORE PUSH1 0x40 MLOAD SWAP2 AND SWAP2 SWAP1 DUP3 SWAP1 PUSH32 0x8BE0079C531659141344CD1FD0A4F28419497F9722A3DAAFE3B4186F6B6457E0 SWAP1 PUSH0 SWAP1 LOG3 POP POP JUMP JUMPDEST PUSH1 0x1 PUSH1 0x1 PUSH1 0xA0 SHL SUB DUP3 AND PUSH3 0x2CE JUMPI PUSH0 PUSH1 0x40 MLOAD PUSH4 0xEC442F05 PUSH1 0xE0 SHL DUP2 MSTORE PUSH1 0x4 ADD PUSH3 0xB6 SWAP2 SWAP1 PUSH3 0x619 JUMP JUMPDEST PUSH3 0x2DB PUSH0 DUP4 DUP4 PUSH3 0x2DF JUMP JUMPDEST POP POP JUMP JUMPDEST PUSH3 0x2E9 PUSH3 0x2FB JUMP JUMPDEST PUSH3 0x2F6 DUP4 DUP4 DUP4 PUSH3 0x330 JUMP JUMPDEST POP POP POP JUMP JUMPDEST PUSH3 0x30F PUSH1 0x5 SLOAD PUSH1 0x1 PUSH1 0xA0 SHL SWAP1 DIV PUSH1 0xFF AND SWAP1 JUMP JUMPDEST ISZERO PUSH3 0x32E JUMPI PUSH1 0x40 MLOAD PUSH4 0xD93C0665 PUSH1 0xE0 SHL DUP2 MSTORE PUSH1 0x4 ADD PUSH1 0x40 MLOAD DUP1 SWAP2 SUB SWAP1 REVERT JUMPDEST JUMP JUMPDEST PUSH1 0x1 PUSH1 0x1 PUSH1 0xA0 SHL SUB DUP4 AND PUSH3 0x35E JUMPI DUP1 PUSH1 0x2 PUSH0 DUP3 DUP3 SLOAD PUSH3 0x352 SWAP2 SWAP1 PUSH3 0x78D JUMP JUMPDEST SWAP1 SWAP2 SSTORE POP PUSH3 0x3D0 SWAP1 POP JUMP JUMPDEST PUSH1 0x1 PUSH1 0x1 PUSH1 0xA0 SHL SUB DUP4 AND PUSH0 SWAP1 DUP2 MSTORE PUSH1 0x20 DUP2 SWAP1 MSTORE PUSH1 0x40 SWAP1 KECCAK256 SLOAD DUP2 DUP2 LT ISZERO PUSH3 0x3B2 JUMPI PUSH1 0x40 MLOAD PUSH4 0x391434E3 PUSH1 0xE2 SHL DUP2 MSTORE PUSH1 0x1 PUSH1 0x1 PUSH1 0xA0 SHL SUB DUP6 AND PUSH1 0x4 DUP3 ADD MSTORE PUSH1 0x24 DUP2 ADD DUP3 SWAP1 MSTORE PUSH1 0x44 DUP2 ADD DUP4 SWAP1 MSTORE PUSH1 0x64 ADD PUSH3 0xB6 JUMP JUMPDEST PUSH1 0x1 PUSH1 0x1 PUSH1 0xA0 SHL SUB DUP5 AND PUSH0 SWAP1 DUP2 MSTORE PUSH1 0x20 DUP2 SWAP1 MSTORE PUSH1 0x40 SWAP1 KECCAK256 SWAP1 DUP3 SWAP1 SUB SWAP1 SSTORE JUMPDEST PUSH1 0x1 PUSH1 0x1 PUSH1 0xA0 SHL SUB DUP3 AND PUSH3 0x3EE JUMPI PUSH1 0x2 DUP1 SLOAD DUP3 SWAP1 SUB SWAP1 SSTORE PUSH3 0x40C JUMP JUMPDEST PUSH1 0x1 PUSH1 0x1 PUSH1 0xA0 SHL SUB DUP3 AND PUSH0 SWAP1 DUP2 MSTORE PUSH1 0x20 DUP2 SWAP1 MSTORE PUSH1 0x40 SWAP1 KECCAK256 DUP1 SLOAD DUP3 ADD SWAP1 SSTORE JUMPDEST DUP2 PUSH1 0x1 PUSH1 0x1 PUSH1 0xA0 SHL SUB AND DUP4 PUSH1 0x1 PUSH1 0x1 PUSH1 0xA0 SHL SUB AND PUSH32 0xDDF252AD1BE2C89B69C2B068FC378DAA952BA7F163C4A11628F55A4DF523B3EF DUP4 PUSH1 0x40 MLOAD PUSH3 0x452 SWAP2 DUP2 MSTORE PUSH1 0x20 ADD SWAP1 JUMP JUMPDEST PUSH1 0x40 MLOAD DUP1 SWAP2 SUB SWAP1 LOG3 POP POP POP JUMP JUMPDEST PUSH0 DUP1 PUSH0 PUSH1 0x60 DUP5 DUP7 SUB SLT ISZERO PUSH3 0x472 JUMPI PUSH0 DUP1 REVERT JUMPDEST DUP4 MLOAD PUSH1 0x1 PUSH1 0x1 PUSH1 0xA0 SHL SUB DUP2 AND DUP2 EQ PUSH3 0x489 JUMPI PUSH0 DUP1 REVERT JUMPDEST PUSH1 0x20 DUP6 ADD MLOAD SWAP1 SWAP4 POP PUSH1 0xFF DUP2 AND DUP2 EQ PUSH3 0x4A0 JUMPI PUSH0 DUP1 REVERT JUMPDEST DUP1 SWAP3 POP POP PUSH1 0x40 DUP5 ADD MLOAD SWAP1 POP SWAP3 POP SWAP3 POP SWAP3 JUMP JUMPDEST PUSH4 0x4E487B71 PUSH1 0xE0 SHL PUSH0 MSTORE PUSH1 0x41 PUSH1 0x4 MSTORE PUSH1 0x24 PUSH0 REVERT JUMPDEST PUSH1 0x1 DUP2 DUP2 SHR SWAP1 DUP3 AND DUP1 PUSH3 0x4DB JUMPI PUSH1 0x7F DUP3 AND SWAP2 POP JUMPDEST PUSH1 0x20 DUP3 LT DUP2 SUB PUSH3 0x4FA JUMPI PUSH4 0x4E487B71 PUSH1 0xE0 SHL PUSH0 MSTORE PUSH1 0x22 PUSH1 0x4 MSTORE PUSH1 0x24 PUSH0 REVERT JUMPDEST POP SWAP2 SWAP1 POP JUMP JUMPDEST PUSH1 0x1F DUP3 GT ISZERO PUSH3 0x2F6 JUMPI PUSH0 DUP2 DUP2 MSTORE PUSH1 0x20 DUP2 KECCAK256 PUSH1 0x1F DUP6 ADD PUSH1 0x5 SHR DUP2 ADD PUSH1 0x20 DUP7 LT ISZERO PUSH3 0x528 JUMPI POP DUP1 JUMPDEST PUSH1 0x1F DUP6 ADD PUSH1 0x5 SHR DUP3 ADD SWAP2 POP JUMPDEST DUP2 DUP2 LT ISZERO PUSH3 0x549 JUMPI DUP3 DUP2 SSTORE PUSH1 0x1 ADD PUSH3 0x534 JUMP JUMPDEST POP POP POP POP POP POP JUMP JUMPDEST DUP2 MLOAD PUSH1 0x1 PUSH1 0x1 PUSH1 0x40 SHL SUB DUP2 GT ISZERO PUSH3 0x56D JUMPI PUSH3 0x56D PUSH3 0x4B2 JUMP JUMPDEST PUSH3 0x585 DUP2 PUSH3 0x57E DUP5 SLOAD PUSH3 0x4C6 JUMP JUMPDEST DUP5 PUSH3 0x500 JUMP JUMPDEST PUSH1 0x20 DUP1 PUSH1 0x1F DUP4 GT PUSH1 0x1 DUP2 EQ PUSH3 0x5BB JUMPI PUSH0 DUP5 ISZERO PUSH3 0x5A3 JUMPI POP DUP6 DUP4 ADD MLOAD JUMPDEST PUSH0 NOT PUSH1 0x3 DUP7 SWAP1 SHL SHR NOT AND PUSH1 0x1 DUP6 SWAP1 SHL OR DUP6 SSTORE PUSH3 0x549 JUMP JUMPDEST PUSH0 DUP6 DUP2 MSTORE PUSH1 0x20 DUP2 KECCAK256 PUSH1 0x1F NOT DUP7 AND SWAP2 JUMPDEST DUP3 DUP2 LT ISZERO PUSH3 0x5EB JUMPI DUP9 DUP7 ADD MLOAD DUP3 SSTORE SWAP5 DUP5 ADD SWAP5 PUSH1 0x1 SWAP1 SWAP2 ADD SWAP1 DUP5 ADD PUSH3 0x5CA JUMP JUMPDEST POP DUP6 DUP3 LT ISZERO PUSH3 0x609 JUMPI DUP8 DUP6 ADD MLOAD PUSH0 NOT PUSH1 0x3 DUP9 SWAP1 SHL PUSH1 0xF8 AND SHR NOT AND DUP2 SSTORE JUMPDEST POP POP POP POP POP PUSH1 0x1 SWAP1 DUP2 SHL ADD SWAP1 SSTORE POP JUMP JUMPDEST PUSH1 0x1 PUSH1 0x1 PUSH1 0xA0 SHL SUB SWAP2 SWAP1 SWAP2 AND DUP2 MSTORE PUSH1 0x20 ADD SWAP1 JUMP JUMPDEST PUSH4 0x4E487B71 PUSH1 0xE0 SHL PUSH0 MSTORE PUSH1 0x11 PUSH1 0x4 MSTORE PUSH1 0x24 PUSH0 REVERT JUMPDEST PUSH1 0x1 DUP2 DUP2 JUMPDEST DUP1 DUP6 GT ISZERO PUSH3 0x681 JUMPI DUP2 PUSH0 NOT DIV DUP3 GT ISZERO PUSH3 0x665 JUMPI PUSH3 0x665 PUSH3 0x62D JUMP JUMPDEST DUP1 DUP6 AND ISZERO PUSH3 0x673 JUMPI SWAP2 DUP2 MUL SWAP2 JUMPDEST SWAP4 DUP5 SHR SWAP4 SWAP1 DUP1 MUL SWAP1 PUSH3 0x646 JUMP JUMPDEST POP SWAP3 POP SWAP3 SWAP1 POP JUMP JUMPDEST PUSH0 DUP3 PUSH3 0x699 JUMPI POP PUSH1 0x1 PUSH3 0x736 JUMP JUMPDEST DUP2 PUSH3 0x6A7 JUMPI POP PUSH0 PUSH3 0x736 JUMP JUMPDEST DUP2 PUSH1 0x1 DUP2 EQ PUSH3 0x6C0 JUMPI PUSH1 0x2 DUP2 EQ PUSH3 0x6CB JUMPI PUSH3 0x6EB JUMP JUMPDEST PUSH1 0x1 SWAP2 POP POP PUSH3 0x736 JUMP JUMPDEST PUSH1 0xFF DUP5 GT ISZERO PUSH3 0x6DF JUMPI PUSH3 0x6DF PUSH3 0x62D JUMP JUMPDEST POP POP PUSH1 0x1 DUP3 SHL PUSH3 0x736 JUMP JUMPDEST POP PUSH1 0x20 DUP4 LT PUSH2 0x133 DUP4 LT AND PUSH1 0x4E DUP5 LT PUSH1 0xB DUP5 LT AND OR ISZERO PUSH3 0x710 JUMPI POP DUP2 DUP2 EXP PUSH3 0x736 JUMP JUMPDEST PUSH3 0x71C DUP4 DUP4 PUSH3 0x641 JUMP JUMPDEST DUP1 PUSH0 NOT DIV DUP3 GT ISZERO PUSH3 0x732 JUMPI PUSH3 0x732 PUSH3 0x62D JUMP JUMPDEST MUL SWAP1 POP JUMPDEST SWAP3 SWAP2 POP POP JUMP JUMPDEST PUSH0 PUSH3 0x74C PUSH1 0xFF DUP5 AND DUP4 PUSH3 0x689 JUMP JUMPDEST SWAP4 SWAP3 POP POP POP JUMP JUMPDEST PUSH0 DUP3 PUSH3 0x76E JUMPI PUSH4 0x4E487B71 PUSH1 0xE0 SHL PUSH0 MSTORE PUSH1 0x12 PUSH1 0x4 MSTORE PUSH1 0x24 PUSH0 REVERT JUMPDEST POP DIV SWAP1 JUMP JUMPDEST DUP1 DUP3 MUL DUP2 ISZERO DUP3 DUP3 DIV DUP5 EQ OR PUSH3 0x736 JUMPI PUSH3 0x736 PUSH3 0x62D JUMP JUMPDEST DUP1 DUP3 ADD DUP1 DUP3 GT ISZERO PUSH3 0x736 JUMPI PUSH3 0x736 PUSH3 0x62D JUMP JUMPDEST PUSH2 0xAF6 DUP1 PUSH3 0x7B1 PUSH0 CODECOPY PUSH0 RETURN INVALID PUSH1 0x80 PUSH1 0x40 MSTORE CALLVALUE DUP1 ISZERO PUSH2 0xF JUMPI PUSH0 DUP1 REVERT JUMPDEST POP PUSH1 0x4 CALLDATASIZE LT PUSH2 0xE4 JUMPI PUSH0 CALLDATALOAD PUSH1 0xE0 SHR DUP1 PUSH4 0x6FDDE03 EQ PUSH2 0xE8 JUMPI DUP1 PUSH4 0x95EA7B3 EQ PUSH2 0x106 JUMPI DUP1 PUSH4 0x18160DDD EQ PUSH2 0x129 JUMPI DUP1 PUSH4 0x23B872DD EQ PUSH2 0x13B JUMPI DUP1 PUSH4 0x313CE567 EQ PUSH2 0x14E JUMPI DUP1 PUSH4 0x3F4BA83A EQ PUSH2 0x16D JUMPI DUP1 PUSH4 0x40C10F19 EQ PUSH2 0x177 JUMPI DUP1 PUSH4 0x42966C68 EQ PUSH2 0x18A JUMPI DUP1 PUSH4 0x5C975ABB EQ PUSH2 0x19D JUMPI DUP1 PUSH4 0x70A08231 EQ PUSH2 0x1A5 JUMPI DUP1 PUSH4 0x715018A6 EQ PUSH2 0x1CD JUMPI DUP1 PUSH4 0x79CC6790 EQ PUSH2 0x1D5 JUMPI DUP1 PUSH4 0x8456CB59 EQ PUSH2 0x1E8 JUMPI DUP1 PUSH4 0x8DA5CB5B EQ PUSH2 0x1F0 JUMPI DUP1 PUSH4 0x95D89B41 EQ PUSH2 0x205 JUMPI DUP1 PUSH4 0xA9059CBB EQ PUSH2 0x20D JUMPI DUP1 PUSH4 0xDD62ED3E EQ PUSH2 0x220 JUMPI DUP1 PUSH4 0xF2FDE38B EQ PUSH2 0x233 JUMPI JUMPDEST PUSH0 DUP1 REVERT JUMPDEST PUSH2 0xF0 PUSH2 0x246 JUMP JUMPDEST PUSH1 0x40 MLOAD PUSH2 0xFD SWAP2 SWAP1 PUSH2 0x905 JUMP JUMPDEST PUSH1 0x40 MLOAD DUP1 SWAP2 SUB SWAP1 RETURN JUMPDEST PUSH2 0x119 PUSH2 0x114 CALLDATASIZE PUSH1 0x4 PUSH2 0x96B JUMP JUMPDEST PUSH2 0x2D6 JUMP JUMPDEST PUSH1 0x40 MLOAD SWAP1 ISZERO ISZERO DUP2 MSTORE PUSH1 0x20 ADD PUSH2 0xFD JUMP JUMPDEST PUSH1 0x2 SLOAD JUMPDEST PUSH1 0x40 MLOAD SWAP1 DUP2 MSTORE PUSH1 0x20 ADD PUSH2 0xFD JUMP JUMPDEST PUSH2 0x119 PUSH2 0x149 CALLDATASIZE PUSH1 0x4 PUSH2 0x993 JUMP JUMPDEST PUSH2 0x2EF JUMP JUMPDEST PUSH1 0x5 SLOAD PUSH1 0x1 PUSH1 0xA8 SHL SWAP1 DIV PUSH1 0xFF AND PUSH1 0x40 MLOAD PUSH1 0xFF SWAP1 SWAP2 AND DUP2 MSTORE PUSH1 0x20 ADD PUSH2 0xFD JUMP JUMPDEST PUSH2 0x175 PUSH2 0x312 JUMP JUMPDEST STOP JUMPDEST PUSH2 0x175 PUSH2 0x185 CALLDATASIZE PUSH1 0x4 PUSH2 0x96B JUMP JUMPDEST PUSH2 0x324 JUMP JUMPDEST PUSH2 0x175 PUSH2 0x198 CALLDATASIZE PUSH1 0x4 PUSH2 0x9CC JUMP JUMPDEST PUSH2 0x3A3 JUMP JUMPDEST PUSH2 0x119 PUSH2 0x3B0 JUMP JUMPDEST PUSH2 0x12D PUSH2 0x1B3 CALLDATASIZE PUSH1 0x4 PUSH2 0x9E3 JUMP JUMPDEST PUSH1 0x1 PUSH1 0x1 PUSH1 0xA0 SHL SUB AND PUSH0 SWAP1 DUP2 MSTORE PUSH1 0x20 DUP2 SWAP1 MSTORE PUSH1 0x40 SWAP1 KECCAK256 SLOAD SWAP1 JUMP JUMPDEST PUSH2 0x175 PUSH2 0x3C0 JUMP JUMPDEST PUSH2 0x175 PUSH2 0x1E3 CALLDATASIZE PUSH1 0x4 PUSH2 0x96B JUMP JUMPDEST PUSH2 0x3D1 JUMP JUMPDEST PUSH2 0x175 PUSH2 0x3E6 JUMP JUMPDEST PUSH2 0x1F8 PUSH2 0x3F6 JUMP JUMPDEST PUSH1 0x40 MLOAD PUSH2 0xFD SWAP2 SWAP1 PUSH2 0xA03 JUMP JUMPDEST PUSH2 0xF0 PUSH2 0x405 JUMP JUMPDEST PUSH2 0x119 PUSH2 0x21B CALLDATASIZE PUSH1 0x4 PUSH2 0x96B JUMP JUMPDEST PUSH2 0x414 JUMP JUMPDEST PUSH2 0x12D PUSH2 0x22E CALLDATASIZE PUSH1 0x4 PUSH2 0xA17 JUMP JUMPDEST PUSH2 0x421 JUMP JUMPDEST PUSH2 0x175 PUSH2 0x241 CALLDATASIZE PUSH1 0x4 PUSH2 0x9E3 JUMP JUMPDEST PUSH2 0x44B JUMP JUMPDEST PUSH1 0x60 PUSH1 0x3 DUP1 SLOAD PUSH2 0x255 SWAP1 PUSH2 0xA48 JUMP JUMPDEST DUP1 PUSH1 0x1F ADD PUSH1 0x20 DUP1 SWAP2 DIV MUL PUSH1 0x20 ADD PUSH1 0x40 MLOAD SWAP1 DUP2 ADD PUSH1 0x40 MSTORE DUP1 SWAP3 SWAP2 SWAP1 DUP2 DUP2 MSTORE PUSH1 0x20 ADD DUP3 DUP1 SLOAD PUSH2 0x281 SWAP1 PUSH2 0xA48 JUMP JUMPDEST DUP1 ISZERO PUSH2 0x2CC JUMPI DUP1 PUSH1 0x1F LT PUSH2 0x2A3 JUMPI PUSH2 0x100 DUP1 DUP4 SLOAD DIV MUL DUP4 MSTORE SWAP2 PUSH1 0x20 ADD SWAP2 PUSH2 0x2CC JUMP JUMPDEST DUP3 ADD SWAP2 SWAP1 PUSH0 MSTORE PUSH1 0x20 PUSH0 KECCAK256 SWAP1 JUMPDEST DUP2 SLOAD DUP2 MSTORE SWAP1 PUSH1 0x1 ADD SWAP1 PUSH1 0x20 ADD DUP1 DUP4 GT PUSH2 0x2AF JUMPI DUP3 SWAP1 SUB PUSH1 0x1F AND DUP3 ADD SWAP2 JUMPDEST POP POP POP POP POP SWAP1 POP SWAP1 JUMP JUMPDEST PUSH0 CALLER PUSH2 0x2E3 DUP2 DUP6 DUP6 PUSH2 0x485 JUMP JUMPDEST PUSH1 0x1 SWAP2 POP POP JUMPDEST SWAP3 SWAP2 POP POP JUMP JUMPDEST PUSH0 CALLER PUSH2 0x2FC DUP6 DUP3 DUP6 PUSH2 0x497 JUMP JUMPDEST PUSH2 0x307 DUP6 DUP6 DUP6 PUSH2 0x4E8 JUMP JUMPDEST POP PUSH1 0x1 SWAP5 SWAP4 POP POP POP POP JUMP JUMPDEST PUSH2 0x31A PUSH2 0x545 JUMP JUMPDEST PUSH2 0x322 PUSH2 0x577 JUMP JUMPDEST JUMP JUMPDEST PUSH2 0x32C PUSH2 0x545 JUMP JUMPDEST PUSH11 0x84595161401484A000000 DUP2 PUSH2 0x342 PUSH1 0x2 SLOAD SWAP1 JUMP JUMPDEST PUSH2 0x34C SWAP2 SWAP1 PUSH2 0xA80 JUMP JUMPDEST GT ISZERO PUSH2 0x395 JUMPI PUSH1 0x40 MLOAD PUSH3 0x461BCD PUSH1 0xE5 SHL DUP2 MSTORE PUSH1 0x20 PUSH1 0x4 DUP3 ADD MSTORE PUSH1 0x13 PUSH1 0x24 DUP3 ADD MSTORE PUSH19 0x13585E081CDD5C1C1B1E48195E18D959591959 PUSH1 0x6A SHL PUSH1 0x44 DUP3 ADD MSTORE PUSH1 0x64 ADD JUMPDEST PUSH1 0x40 MLOAD DUP1 SWAP2 SUB SWAP1 REVERT JUMPDEST PUSH2 0x39F DUP3 DUP3 PUSH2 0x5C6 JUMP JUMPDEST POP POP JUMP JUMPDEST PUSH2 0x3AD CALLER DUP3 PUSH2 0x5FA JUMP JUMPDEST POP JUMP JUMPDEST PUSH1 0x5 SLOAD PUSH1 0x1 PUSH1 0xA0 SHL SWAP1 DIV PUSH1 0xFF AND SWAP1 JUMP JUMPDEST PUSH2 0x3C8 PUSH2 0x545 JUMP JUMPDEST PUSH2 0x322 PUSH0 PUSH2 0x62E JUMP JUMPDEST PUSH2 0x3DC DUP3 CALLER DUP4 PUSH2 0x497 JUMP JUMPDEST PUSH2 0x39F DUP3 DUP3 PUSH2 0x5FA JUMP JUMPDEST PUSH2 0x3EE PUSH2 0x545 JUMP JUMPDEST PUSH2 0x322 PUSH2 0x67F JUMP JUMPDEST PUSH1 0x5 SLOAD PUSH1 0x1 PUSH1 0x1 PUSH1 0xA0 SHL SUB AND SWAP1 JUMP JUMPDEST PUSH1 0x60 PUSH1 0x4 DUP1 SLOAD PUSH2 0x255 SWAP1 PUSH2 0xA48 JUMP JUMPDEST PUSH0 CALLER PUSH2 0x2E3 DUP2 DUP6 DUP6 PUSH2 0x4E8 JUMP JUMPDEST PUSH1 0x1 PUSH1 0x1 PUSH1 0xA0 SHL SUB SWAP2 DUP3 AND PUSH0 SWAP1 DUP2 MSTORE PUSH1 0x1 PUSH1 0x20 SWAP1 DUP2 MSTORE PUSH1 0x40 DUP1 DUP4 KECCAK256 SWAP4 SWAP1 SWAP5 AND DUP3 MSTORE SWAP2 SWAP1 SWAP2 MSTORE KECCAK256 SLOAD SWAP1 JUMP JUMPDEST PUSH2 0x453 PUSH2 0x545 JUMP JUMPDEST PUSH1 0x1 PUSH1 0x1 PUSH1 0xA0 SHL SUB DUP2 AND PUSH2 0x47C JUMPI PUSH0 PUSH1 0x40 MLOAD PUSH4 0x1E4FBDF7 PUSH1 0xE0 SHL DUP2 MSTORE PUSH1 0x4 ADD PUSH2 0x38C SWAP2 SWAP1 PUSH2 0xA03 JUMP JUMPDEST PUSH2 0x3AD DUP2 PUSH2 0x62E JUMP JUMPDEST PUSH2 0x492 DUP4 DUP4 DUP4 PUSH1 0x1 PUSH2 0x6C2 JUMP JUMPDEST POP POP POP JUMP JUMPDEST PUSH0 PUSH2 0x4A2 DUP5 DUP5 PUSH2 0x421 JUMP JUMPDEST SWAP1 POP PUSH0 NOT DUP2 LT ISZERO PUSH2 0x4E2 JUMPI DUP2 DUP2 LT ISZERO PUSH2 0x4D4 JUMPI DUP3 DUP2 DUP4 PUSH1 0x40 MLOAD PUSH4 0x7DC7A0D9 PUSH1 0xE1 SHL DUP2 MSTORE PUSH1 0x4 ADD PUSH2 0x38C SWAP4 SWAP3 SWAP2 SWAP1 PUSH2 0xA9F JUMP JUMPDEST PUSH2 0x4E2 DUP5 DUP5 DUP5 DUP5 SUB PUSH0 PUSH2 0x6C2 JUMP JUMPDEST POP POP POP POP JUMP JUMPDEST PUSH1 0x1 PUSH1 0x1 PUSH1 0xA0 SHL SUB DUP4 AND PUSH2 0x511 JUMPI PUSH0 PUSH1 0x40 MLOAD PUSH4 0x4B637E8F PUSH1 0xE1 SHL DUP2 MSTORE PUSH1 0x4 ADD PUSH2 0x38C SWAP2 SWAP1 PUSH2 0xA03 JUMP JUMPDEST PUSH1 0x1 PUSH1 0x1 PUSH1 0xA0 SHL SUB DUP3 AND PUSH2 0x53A JUMPI PUSH0 PUSH1 0x40 MLOAD PUSH4 0xEC442F05 PUSH1 0xE0 SHL DUP2 MSTORE PUSH1 0x4 ADD PUSH2 0x38C SWAP2 SWAP1 PUSH2 0xA03 JUMP JUMPDEST PUSH2 0x492 DUP4 DUP4 DUP4 PUSH2 0x794 JUMP JUMPDEST CALLER PUSH2 0x54E PUSH2 0x3F6 JUMP JUMPDEST PUSH1 0x1 PUSH1 0x1 PUSH1 0xA0 SHL SUB AND EQ PUSH2 0x322 JUMPI CALLER PUSH1 0x40 MLOAD PUSH4 0x118CDAA7 PUSH1 0xE0 SHL DUP2 MSTORE PUSH1 0x4 ADD PUSH2 0x38C SWAP2 SWAP1 PUSH2 0xA03 JUMP JUMPDEST PUSH2 0x57F PUSH2 0x7A7 JUMP JUMPDEST PUSH1 0x5 DUP1 SLOAD PUSH1 0xFF PUSH1 0xA0 SHL NOT AND SWAP1 SSTORE PUSH32 0x5DB9EE0A495BF2E6FF9C91A7834C1BA4FDD244A5E8AA4E537BD38AEAE4B073AA CALLER JUMPDEST PUSH1 0x40 MLOAD PUSH2 0x5BC SWAP2 SWAP1 PUSH2 0xA03 JUMP JUMPDEST PUSH1 0x40 MLOAD DUP1 SWAP2 SUB SWAP1 LOG1 JUMP JUMPDEST PUSH1 0x1 PUSH1 0x1 PUSH1 0xA0 SHL SUB DUP3 AND PUSH2 0x5EF JUMPI PUSH0 PUSH1 0x40 MLOAD PUSH4 0xEC442F05 PUSH1 0xE0 SHL DUP2 MSTORE PUSH1 0x4 ADD PUSH2 0x38C SWAP2 SWAP1 PUSH2 0xA03 JUMP JUMPDEST PUSH2 0x39F PUSH0 DUP4 DUP4 PUSH2 0x794 JUMP JUMPDEST PUSH1 0x1 PUSH1 0x1 PUSH1 0xA0 SHL SUB DUP3 AND PUSH2 0x623 JUMPI PUSH0 PUSH1 0x40 MLOAD PUSH4 0x4B637E8F PUSH1 0xE1 SHL DUP2 MSTORE PUSH1 0x4 ADD PUSH2 0x38C SWAP2 SWAP1 PUSH2 0xA03 JUMP JUMPDEST PUSH2 0x39F DUP3 PUSH0 DUP4 PUSH2 0x794 JUMP JUMPDEST PUSH1 0x5 DUP1 SLOAD PUSH1 0x1 PUSH1 0x1 PUSH1 0xA0 SHL SUB DUP4 DUP2 AND PUSH1 0x1 PUSH1 0x1 PUSH1 0xA0 SHL SUB NOT DUP4 AND DUP2 OR SWAP1 SWAP4 SSTORE PUSH1 0x40 MLOAD SWAP2 AND SWAP2 SWAP1 DUP3 SWAP1 PUSH32 0x8BE0079C531659141344CD1FD0A4F28419497F9722A3DAAFE3B4186F6B6457E0 SWAP1 PUSH0 SWAP1 LOG3 POP POP JUMP JUMPDEST PUSH2 0x687 PUSH2 0x7CC JUMP JUMPDEST PUSH1 0x5 DUP1 SLOAD PUSH1 0xFF PUSH1 0xA0 SHL NOT AND PUSH1 0x1 PUSH1 0xA0 SHL OR SWAP1 SSTORE PUSH32 0x62E78CEA01BEE320CD4E420270B5EA74000D11B0C9F74754EBDBFC544B05A258 PUSH2 0x5AF CALLER SWAP1 JUMP JUMPDEST PUSH1 0x1 PUSH1 0x1 PUSH1 0xA0 SHL SUB DUP5 AND PUSH2 0x6EB JUMPI PUSH0 PUSH1 0x40 MLOAD PUSH4 0xE602DF05 PUSH1 0xE0 SHL DUP2 MSTORE PUSH1 0x4 ADD PUSH2 0x38C SWAP2 SWAP1 PUSH2 0xA03 JUMP JUMPDEST PUSH1 0x1 PUSH1 0x1 PUSH1 0xA0 SHL SUB DUP4 AND PUSH2 0x714 JUMPI PUSH0 PUSH1 0x40 MLOAD PUSH4 0x4A1406B1 PUSH1 0xE1 SHL DUP2 MSTORE PUSH1 0x4 ADD PUSH2 0x38C SWAP2 SWAP1 PUSH2 0xA03 JUMP JUMPDEST PUSH1 0x1 PUSH1 0x1 PUSH1 0xA0 SHL SUB DUP1 DUP6 AND PUSH0 SWAP1 DUP2 MSTORE PUSH1 0x1 PUSH1 0x20 SWAP1 DUP2 MSTORE PUSH1 0x40 DUP1 DUP4 KECCAK256 SWAP4 DUP8 AND DUP4 MSTORE SWAP3 SWAP1 MSTORE KECCAK256 DUP3 SWAP1 SSTORE DUP1 ISZERO PUSH2 0x4E2 JUMPI DUP3 PUSH1 0x1 PUSH1 0x1 PUSH1 0xA0 SHL SUB AND DUP5 PUSH1 0x1 PUSH1 0x1 PUSH1 0xA0 SHL SUB AND PUSH32 0x8C5BE1E5EBEC7D5BD14F71427D1E84F3DD0314C0F7B2291E5B200AC8C7C3B925 DUP5 PUSH1 0x40 MLOAD PUSH2 0x786 SWAP2 DUP2 MSTORE PUSH1 0x20 ADD SWAP1 JUMP JUMPDEST PUSH1 0x40 MLOAD DUP1 SWAP2 SUB SWAP1 LOG3 POP POP POP POP JUMP JUMPDEST PUSH2 0x79C PUSH2 0x7CC JUMP JUMPDEST PUSH2 0x492 DUP4 DUP4 DUP4 PUSH2 0x7F2 JUMP JUMPDEST PUSH2 0x7AF PUSH2 0x3B0 JUMP JUMPDEST PUSH2 0x322 JUMPI PUSH1 0x40 MLOAD PUSH4 0x8DFC202B PUSH1 0xE0 SHL DUP2 MSTORE PUSH1 0x4 ADD PUSH1 0x40 MLOAD DUP1 SWAP2 SUB SWAP1 REVERT JUMPDEST PUSH2 0x7D4 PUSH2 0x3B0 JUMP JUMPDEST ISZERO PUSH2 0x322 JUMPI PUSH1 0x40 MLOAD PUSH4 0xD93C0665 PUSH1 0xE0 SHL DUP2 MSTORE PUSH1 0x4 ADD PUSH1 0x40 MLOAD DUP1 SWAP2 SUB SWAP1 REVERT JUMPDEST PUSH1 0x1 PUSH1 0x1 PUSH1 0xA0 SHL SUB DUP4 AND PUSH2 0x81C JUMPI DUP1 PUSH1 0x2 PUSH0 DUP3 DUP3 SLOAD PUSH2 0x811 SWAP2 SWAP1 PUSH2 0xA80 JUMP JUMPDEST SWAP1 SWAP2 SSTORE POP PUSH2 0x879 SWAP1 POP JUMP JUMPDEST PUSH1 0x1 PUSH1 0x1 PUSH1 0xA0 SHL SUB DUP4 AND PUSH0 SWAP1 DUP2 MSTORE PUSH1 0x20 DUP2 SWAP1 MSTORE PUSH1 0x40 SWAP1 KECCAK256 SLOAD DUP2 DUP2 LT ISZERO PUSH2 0x85B JUMPI DUP4 DUP2 DUP4 PUSH1 0x40 MLOAD PUSH4 0x391434E3 PUSH1 0xE2 SHL DUP2 MSTORE PUSH1 0x4 ADD PUSH2 0x38C SWAP4 SWAP3 SWAP2 SWAP1 PUSH2 0xA9F JUMP JUMPDEST PUSH1 0x1 PUSH1 0x1 PUSH1 0xA0 SHL SUB DUP5 AND PUSH0 SWAP1 DUP2 MSTORE PUSH1 0x20 DUP2 SWAP1 MSTORE PUSH1 0x40 SWAP1 KECCAK256 SWAP1 DUP3 SWAP1 SUB SWAP1 SSTORE JUMPDEST PUSH1 0x1 PUSH1 0x1 PUSH1 0xA0 SHL SUB DUP3 AND PUSH2 0x895 JUMPI PUSH1 0x2 DUP1 SLOAD DUP3 SWAP1 SUB SWAP1 SSTORE PUSH2 0x8B3 JUMP JUMPDEST PUSH1 0x1 PUSH1 0x1 PUSH1 0xA0 SHL SUB DUP3 AND PUSH0 SWAP1 DUP2 MSTORE PUSH1 0x20 DUP2 SWAP1 MSTORE PUSH1 0x40 SWAP1 KECCAK256 DUP1 SLOAD DUP3 ADD SWAP1 SSTORE JUMPDEST DUP2 PUSH1 0x1 PUSH1 0x1 PUSH1 0xA0 SHL SUB AND DUP4 PUSH1 0x1 PUSH1 0x1 PUSH1 0xA0 SHL SUB AND PUSH32 0xDDF252AD1BE2C89B69C2B068FC378DAA952BA7F163C4A11628F55A4DF523B3EF DUP4 PUSH1 0x40 MLOAD PUSH2 0x8F8 SWAP2 DUP2 MSTORE PUSH1 0x20 ADD SWAP1 JUMP JUMPDEST PUSH1 0x40 MLOAD DUP1 SWAP2 SUB SWAP1 LOG3 POP POP POP JUMP JUMPDEST PUSH0 PUSH1 0x20 DUP1 DUP4 MSTORE DUP4 MLOAD DUP1 DUP3 DUP6 ADD MSTORE PUSH0 JUMPDEST DUP2 DUP2 LT ISZERO PUSH2 0x930 JUMPI DUP6 DUP2 ADD DUP4 ADD MLOAD DUP6 DUP3 ADD PUSH1 0x40 ADD MSTORE DUP3 ADD PUSH2 0x914 JUMP JUMPDEST POP PUSH0 PUSH1 0x40 DUP3 DUP7 ADD ADD MSTORE PUSH1 0x40 PUSH1 0x1F NOT PUSH1 0x1F DUP4 ADD AND DUP6 ADD ADD SWAP3 POP POP POP SWAP3 SWAP2 POP POP JUMP JUMPDEST DUP1 CALLDATALOAD PUSH1 0x1 PUSH1 0x1 PUSH1 0xA0 SHL SUB DUP2 AND DUP2 EQ PUSH2 0x966 JUMPI PUSH0 DUP1 REVERT JUMPDEST SWAP2 SWAP1 POP JUMP JUMPDEST PUSH0 DUP1 PUSH1 0x40 DUP4 DUP6 SUB SLT ISZERO PUSH2 0x97C JUMPI PUSH0 DUP1 REVERT JUMPDEST PUSH2 0x985 DUP4 PUSH2 0x950 JUMP JUMPDEST SWAP5 PUSH1 0x20 SWAP4 SWAP1 SWAP4 ADD CALLDATALOAD SWAP4 POP POP POP JUMP JUMPDEST PUSH0 DUP1 PUSH0 PUSH1 0x60 DUP5 DUP7 SUB SLT ISZERO PUSH2 0x9A5 JUMPI PUSH0 DUP1 REVERT JUMPDEST PUSH2 0x9AE DUP5 PUSH2 0x950 JUMP JUMPDEST SWAP3 POP PUSH2 0x9BC PUSH1 0x20 DUP6 ADD PUSH2 0x950 JUMP JUMPDEST SWAP2 POP PUSH1 0x40 DUP5 ADD CALLDATALOAD SWAP1 POP SWAP3 POP SWAP3 POP SWAP3 JUMP JUMPDEST PUSH0 PUSH1 0x20 DUP3 DUP5 SUB SLT ISZERO PUSH2 0x9DC JUMPI PUSH0 DUP1 REVERT JUMPDEST POP CALLDATALOAD SWAP2 SWAP1 POP JUMP JUMPDEST PUSH0 PUSH1 0x20 DUP3 DUP5 SUB SLT ISZERO PUSH2 0x9F3 JUMPI PUSH0 DUP1 REVERT JUMPDEST PUSH2 0x9FC DUP3 PUSH2 0x950 JUMP JUMPDEST SWAP4 SWAP3 POP POP POP JUMP JUMPDEST PUSH1 0x1 PUSH1 0x1 PUSH1 0xA0 SHL SUB SWAP2 SWAP1 SWAP2 AND DUP2 MSTORE PUSH1 0x20 ADD SWAP1 JUMP JUMPDEST PUSH0 DUP1 PUSH1 0x40 DUP4 DUP6 SUB SLT ISZERO PUSH2 0xA28 JUMPI PUSH0 DUP1 REVERT JUMPDEST PUSH2 0xA31 DUP4 PUSH2 0x950 JUMP JUMPDEST SWAP2 POP PUSH2 0xA3F PUSH1 0x20 DUP5 ADD PUSH2 0x950 JUMP JUMPDEST SWAP1 POP SWAP3 POP SWAP3 SWAP1 POP JUMP JUMPDEST PUSH1 0x1 DUP2 DUP2 SHR SWAP1 DUP3 AND DUP1 PUSH2 0xA5C JUMPI PUSH1 0x7F DUP3 AND SWAP2 POP JUMPDEST PUSH1 0x20 DUP3 LT DUP2 SUB PUSH2 0xA7A JUMPI PUSH4 0x4E487B71 PUSH1 0xE0 SHL PUSH0 MSTORE PUSH1 0x22 PUSH1 0x4 MSTORE PUSH1 0x24 PUSH0 REVERT JUMPDEST POP SWAP2 SWAP1 POP JUMP JUMPDEST DUP1 DUP3 ADD DUP1 DUP3 GT ISZERO PUSH2 0x2E9 JUMPI PUSH4 0x4E487B71 PUSH1 0xE0 SHL PUSH0 MSTORE PUSH1 0x11 PUSH1 0x4 MSTORE PUSH1 0x24 PUSH0 REVERT JUMPDEST PUSH1 0x1 PUSH1 0x1 PUSH1 0xA0 SHL SUB SWAP4 SWAP1 SWAP4 AND DUP4 MSTORE PUSH1 0x20 DUP4 ADD SWAP2 SWAP1 SWAP2 MSTORE PUSH1 0x40 DUP3 ADD MSTORE PUSH1 0x60 ADD SWAP1 JUMP INVALID LOG2 PUSH5 0x6970667358 0x22 SLT KECCAK256 CREATE2 0x29 SWAP9 SWAP11 DUP2 RETURNDATASIZE 0xB1 0xD2 SSTORE SWAP5 PUSH9 0x912ED7EF9FA1BFB27F PUSH12 0xF334D9913188B73EA920DE64 PUSH20 0x6F6C63430008140033A2646970667358221220F4 0xB7 SHL 0x28 GASPRICE 0x26 SWAP7 EXTCODESIZE 0xD3 0xAD 0x24 0xB0 0xF8 0xCC SWAP15 0x29 0x2A 0xA8 LOG0 PUSH19 0x5DF89C9F6AD366752026351564736F6C634300 ADDMOD EQ STOP CALLER "
				},
				"gasEstimates": {
					"creation": {
						"codeDepositCost": "1139800",
						"executionCost": "1185",
						"totalCost": "1140985"
					},
					"external": {
						"deployWBGZToken(address,uint8,uint256,bytes32)": "infinite",
						"getWBGZTokenAddress(address,uint8,uint256,bytes32)": "infinite"
					}
				},
				"methodIdentifiers": {
					"deployWBGZToken(address,uint8,uint256,bytes32)": "3dcee3ac",
					"getWBGZTokenAddress(address,uint8,uint256,bytes32)": "18423c06"
				}
			},
			"storageLayout": {
				"storage": [],
				"types": null
			},
			"userdoc": {
				"kind": "user",
				"methods": {
					"deployWBGZToken(address,uint8,uint256,bytes32)": {
						"notice": "Deploys a new WBGZToken contract using CREATE2"
					},
					"getWBGZTokenAddress(address,uint8,uint256,bytes32)": {
						"notice": "Computes the address of a WBGZToken contract that would be deployed with the given parameters"
					}
				},
				"version": 1
			}
		}
	}
}